{
  "contractName": "VMTracker",
  "abi": [
    {
      "constant": false,
      "inputs": [],
      "name": "renounceOwnership",
      "outputs": [],
      "payable": false,
      "stateMutability": "nonpayable",
      "type": "function"
    },
    {
      "constant": true,
      "inputs": [],
      "name": "owner",
      "outputs": [
        {
          "name": "",
          "type": "address"
        }
      ],
      "payable": false,
      "stateMutability": "view",
      "type": "function"
    },
    {
      "constant": true,
      "inputs": [],
      "name": "isOwner",
      "outputs": [
        {
          "name": "",
          "type": "bool"
        }
      ],
      "payable": false,
      "stateMutability": "view",
      "type": "function"
    },
    {
      "constant": false,
      "inputs": [
        {
          "name": "newOwner",
          "type": "address"
        }
      ],
      "name": "transferOwnership",
      "outputs": [],
      "payable": false,
      "stateMutability": "nonpayable",
      "type": "function"
    },
    {
      "inputs": [
        {
          "name": "_balanceTrackerAddress",
          "type": "address"
        }
      ],
      "payable": false,
      "stateMutability": "nonpayable",
      "type": "constructor"
    },
    {
      "anonymous": false,
      "inputs": [
        {
          "indexed": true,
          "name": "vmId",
          "type": "bytes32"
        },
        {
          "indexed": false,
          "name": "destination",
          "type": "bytes32"
        },
        {
          "indexed": false,
          "name": "tokenType",
          "type": "bytes21"
        },
        {
          "indexed": false,
          "name": "value",
          "type": "uint256"
        },
        {
          "indexed": false,
          "name": "data",
          "type": "bytes"
        }
      ],
      "name": "MessageDelivered",
      "type": "event"
    },
    {
      "anonymous": false,
      "inputs": [
        {
          "indexed": true,
          "name": "vmId",
          "type": "bytes32"
        },
        {
          "indexed": false,
          "name": "_gracePeriod",
          "type": "uint32"
        },
        {
          "indexed": false,
          "name": "_escrowRequired",
          "type": "uint128"
        },
        {
          "indexed": false,
          "name": "_escrowCurrency",
          "type": "address"
        },
        {
          "indexed": false,
          "name": "_maxExecutionSteps",
          "type": "uint32"
        },
        {
          "indexed": false,
          "name": "_vmState",
          "type": "bytes32"
        },
        {
          "indexed": false,
          "name": "_challengeManagerNum",
          "type": "uint16"
        },
        {
          "indexed": false,
          "name": "_owner",
          "type": "address"
        },
        {
          "indexed": false,
          "name": "validators",
          "type": "address[]"
        }
      ],
      "name": "VMCreated",
      "type": "event"
    },
    {
      "anonymous": false,
      "inputs": [
        {
          "indexed": true,
          "name": "vmId",
          "type": "bytes32"
        },
        {
          "indexed": false,
          "name": "unanHash",
          "type": "bytes32"
        },
        {
          "indexed": false,
          "name": "sequenceNum",
          "type": "uint64"
        }
      ],
      "name": "PendingUnanimousAssertion",
      "type": "event"
    },
    {
      "anonymous": false,
      "inputs": [
        {
          "indexed": true,
          "name": "vmId",
          "type": "bytes32"
        },
        {
          "indexed": false,
          "name": "sequenceNum",
          "type": "uint64"
        }
      ],
      "name": "ConfirmedUnanimousAssertion",
      "type": "event"
    },
    {
      "anonymous": false,
      "inputs": [
        {
          "indexed": true,
          "name": "vmId",
          "type": "bytes32"
        },
        {
          "indexed": false,
          "name": "unanHash",
          "type": "bytes32"
        }
      ],
      "name": "FinalizedUnanimousAssertion",
      "type": "event"
    },
    {
      "anonymous": false,
      "inputs": [
        {
          "indexed": true,
          "name": "vmId",
          "type": "bytes32"
        },
        {
          "indexed": false,
          "name": "fields",
          "type": "bytes32[3]"
        },
        {
          "indexed": false,
          "name": "asserter",
          "type": "address"
        },
        {
          "indexed": false,
          "name": "timeBounds",
          "type": "uint64[2]"
        },
        {
          "indexed": false,
          "name": "tokenTypes",
          "type": "bytes21[]"
        },
        {
          "indexed": false,
          "name": "numSteps",
          "type": "uint32"
        },
        {
          "indexed": false,
          "name": "lastMessageHash",
          "type": "bytes32"
        },
        {
          "indexed": false,
          "name": "logsAccHash",
          "type": "bytes32"
        },
        {
          "indexed": false,
          "name": "amounts",
          "type": "uint256[]"
        }
      ],
      "name": "PendingDisputableAssertion",
      "type": "event"
    },
    {
      "anonymous": false,
      "inputs": [
        {
          "indexed": true,
          "name": "vmId",
          "type": "bytes32"
        },
        {
          "indexed": false,
          "name": "newState",
          "type": "bytes32"
        },
        {
          "indexed": false,
          "name": "logsAccHash",
          "type": "bytes32"
        }
      ],
      "name": "ConfirmedDisputableAssertion",
      "type": "event"
    },
    {
      "anonymous": false,
      "inputs": [
        {
          "indexed": true,
          "name": "vmId",
          "type": "bytes32"
        },
        {
          "indexed": false,
          "name": "challenger",
          "type": "address"
        }
      ],
      "name": "InitiatedChallenge",
      "type": "event"
    },
    {
      "anonymous": false,
      "inputs": [
        {
          "indexed": true,
          "name": "previousOwner",
          "type": "address"
        },
        {
          "indexed": true,
          "name": "newOwner",
          "type": "address"
        }
      ],
      "name": "OwnershipTransferred",
      "type": "event"
    },
    {
      "constant": false,
      "inputs": [
        {
          "name": "_challengeManager",
          "type": "address"
        }
      ],
      "name": "addChallengeManager",
      "outputs": [],
      "payable": false,
      "stateMutability": "nonpayable",
      "type": "function"
    },
    {
      "constant": true,
      "inputs": [
        {
          "name": "_timeBounds",
          "type": "uint64[2]"
        }
      ],
      "name": "withinTimeBounds",
      "outputs": [
        {
          "name": "",
          "type": "bool"
        }
      ],
      "payable": false,
      "stateMutability": "view",
      "type": "function"
    },
    {
      "constant": false,
      "inputs": [
        {
          "name": "_fields",
          "type": "bytes32[3]"
        },
        {
          "name": "_gracePeriod",
          "type": "uint32"
        },
        {
          "name": "_maxExecutionSteps",
          "type": "uint32"
        },
        {
          "name": "_challengeManagerNum",
          "type": "uint16"
        },
        {
          "name": "_escrowRequired",
          "type": "uint128"
        },
        {
          "name": "_escrowCurrency",
          "type": "address"
        },
        {
          "name": "_owner",
          "type": "address"
        },
        {
          "name": "_signatures",
          "type": "bytes"
        }
      ],
      "name": "createVm",
      "outputs": [],
      "payable": false,
      "stateMutability": "nonpayable",
      "type": "function"
    },
    {
      "constant": false,
      "inputs": [
        {
          "name": "_vmId",
          "type": "bytes32"
        }
      ],
      "name": "ownerShutdown",
      "outputs": [],
      "payable": false,
      "stateMutability": "nonpayable",
      "type": "function"
    },
    {
      "constant": false,
      "inputs": [
        {
          "name": "_destination",
          "type": "bytes32"
        },
        {
          "name": "_tokenType",
          "type": "bytes21"
        },
        {
          "name": "_amount",
          "type": "uint256"
        },
        {
          "name": "_data",
          "type": "bytes"
        }
      ],
      "name": "sendMessage",
      "outputs": [],
      "payable": false,
      "stateMutability": "nonpayable",
      "type": "function"
    },
    {
      "constant": false,
      "inputs": [
        {
          "name": "_destination",
          "type": "bytes32"
        },
        {
          "name": "_data",
          "type": "bytes"
        }
      ],
      "name": "sendEthMessage",
      "outputs": [],
      "payable": true,
      "stateMutability": "payable",
      "type": "function"
    },
    {
      "constant": false,
      "inputs": [
        {
          "name": "_vmId",
          "type": "bytes32"
        },
        {
          "name": "_afterHash",
          "type": "bytes32"
        },
        {
          "name": "_newInbox",
          "type": "bytes32"
        },
        {
          "name": "_timeBounds",
          "type": "uint64[2]"
        },
        {
          "name": "_tokenTypes",
          "type": "bytes21[]"
        },
        {
          "name": "_messageData",
          "type": "bytes"
        },
        {
          "name": "_messageTokenNum",
          "type": "uint16[]"
        },
        {
          "name": "_messageAmount",
          "type": "uint256[]"
        },
        {
          "name": "_messageDestination",
          "type": "bytes32[]"
        },
        {
          "name": "_logsAccHash",
          "type": "bytes32"
        },
        {
          "name": "_signatures",
          "type": "bytes"
        }
      ],
      "name": "finalizedUnanimousAssert",
      "outputs": [],
      "payable": false,
      "stateMutability": "nonpayable",
      "type": "function"
    },
    {
      "constant": false,
      "inputs": [
        {
          "name": "_vmId",
          "type": "bytes32"
        },
        {
          "name": "_unanRest",
          "type": "bytes32"
        },
        {
          "name": "_timeBounds",
          "type": "uint64[2]"
        },
        {
          "name": "_tokenTypes",
          "type": "bytes21[]"
        },
        {
          "name": "_messageTokenNum",
          "type": "uint16[]"
        },
        {
          "name": "_messageAmount",
          "type": "uint256[]"
        },
        {
          "name": "_sequenceNum",
          "type": "uint64"
        },
        {
          "name": "_logsAccHash",
          "type": "bytes32"
        },
        {
          "name": "_signatures",
          "type": "bytes"
        }
      ],
      "name": "pendingUnanimousAssert",
      "outputs": [],
      "payable": false,
      "stateMutability": "nonpayable",
      "type": "function"
    },
    {
      "constant": false,
      "inputs": [
        {
          "name": "_vmId",
          "type": "bytes32"
        },
        {
          "name": "_afterHash",
          "type": "bytes32"
        },
        {
          "name": "_newInbox",
          "type": "bytes32"
        },
        {
          "name": "_tokenTypes",
          "type": "bytes21[]"
        },
        {
          "name": "_messageData",
          "type": "bytes"
        },
        {
          "name": "_messageTokenNum",
          "type": "uint16[]"
        },
        {
          "name": "_messageAmount",
          "type": "uint256[]"
        },
        {
          "name": "_messageDestination",
          "type": "bytes32[]"
        }
      ],
      "name": "ConfirmUnanimousAsserted",
      "outputs": [],
      "payable": false,
      "stateMutability": "nonpayable",
      "type": "function"
    },
    {
      "constant": false,
      "inputs": [
        {
          "name": "_fields",
          "type": "bytes32[5]"
        },
        {
          "name": "_numSteps",
          "type": "uint32"
        },
        {
          "name": "timeBounds",
          "type": "uint64[2]"
        },
        {
          "name": "_tokenTypes",
          "type": "bytes21[]"
        },
        {
          "name": "_messageDataHash",
          "type": "bytes32[]"
        },
        {
          "name": "_messageTokenNum",
          "type": "uint16[]"
        },
        {
          "name": "_msgAmount",
          "type": "uint256[]"
        },
        {
          "name": "_msgDestination",
          "type": "bytes32[]"
        }
      ],
      "name": "pendingDisputableAssert",
      "outputs": [],
      "payable": false,
      "stateMutability": "nonpayable",
      "type": "function"
    },
    {
      "constant": false,
      "inputs": [
        {
          "name": "_vmId",
          "type": "bytes32"
        },
        {
          "name": "_preconditionHash",
          "type": "bytes32"
        },
        {
          "name": "_afterHash",
          "type": "bytes32"
        },
        {
          "name": "_numSteps",
          "type": "uint32"
        },
        {
          "name": "_tokenTypes",
          "type": "bytes21[]"
        },
        {
          "name": "_messageData",
          "type": "bytes"
        },
        {
          "name": "_messageTokenNums",
          "type": "uint16[]"
        },
        {
          "name": "_messageAmounts",
          "type": "uint256[]"
        },
        {
          "name": "_messageDestination",
          "type": "bytes32[]"
        },
        {
          "name": "_logsAccHash",
          "type": "bytes32"
        }
      ],
      "name": "confirmDisputableAsserted",
      "outputs": [],
      "payable": false,
      "stateMutability": "nonpayable",
      "type": "function"
    },
    {
      "constant": false,
      "inputs": [
        {
          "name": "_vmId",
          "type": "bytes32"
        },
        {
          "name": "_assertPreHash",
          "type": "bytes32"
        }
      ],
      "name": "initiateChallenge",
      "outputs": [],
      "payable": false,
      "stateMutability": "nonpayable",
      "type": "function"
    },
    {
      "constant": false,
      "inputs": [
        {
          "name": "_vmId",
          "type": "bytes32"
        },
        {
          "name": "_players",
          "type": "address[2]"
        },
        {
          "name": "_rewards",
          "type": "uint128[2]"
        }
      ],
      "name": "completeChallenge",
      "outputs": [],
      "payable": false,
      "stateMutability": "nonpayable",
      "type": "function"
    }
  ],
  "bytecode": "0x60806040523480156200001157600080fd5b5060405160208062005919833981018060405260208110156200003357600080fd5b505160008054600160a060020a0319163317808255604051600160a060020a039190911691907f8be0079c531659141344cd1fd0a4f28419497f9722a3daafe3b4186f6b6457e0908290a360028054600160a060020a03909216600160a060020a03199092169190911790556000805260046020527f17ef568e3e12ab5b9c7254a8d58478811de00f9e6eb34345acd53bf8fd09d3ec805460ff1916600117905561583580620000e46000396000f3fe6080604052600436106101025760003560e060020a900480638dbc44f611610099578063e8a8480e11610068578063e8a8480e14610fb0578063f2fde38b14611340578063fa3eebe614611373578063fd0961b614611420578063ffd134c91461144a57610102565b80638dbc44f6146108b15780638f32d59b146109df5780639215f1e6146109f4578063da9f547a14610c8257610102565b80636f0edcd5116100d55780636f0edcd5146102b0578063715018a61461059457806380a22d76146105a95780638da5cb5b1461088057610102565b80632e6bf2e6146101075780633cd8a3221461013c57806342c0787e1461021057806363d846371461027c575b600080fd5b34801561011357600080fd5b5061013a6004803603602081101561012a57600080fd5b5035600160a060020a031661147a565b005b34801561014857600080fd5b5061013a6004803603608081101561015f57600080fd5b8135916affffffffffffffffffffff19602082013516916040820135919081019060808101606082013564010000000081111561019b57600080fd5b8201836020820111156101ad57600080fd5b803590602001918460018302840111640100000000831117156101cf57600080fd5b91908080601f0160208091040260200160405190810160405280939291908181526020018383808284376000920191909152509295506114eb945050505050565b34801561021c57600080fd5b506102686004803603604081101561023357600080fd5b604080518082018252918301929181830191839060029083908390808284376000920191909152509194506114fe9350505050565b604080519115158252519081900360200190f35b34801561028857600080fd5b5061013a600480360360a081101561029f57600080fd5b508035906020810190606001611530565b3480156102bc57600080fd5b5061013a60048036036101408110156102d457600080fd5b81359160208101359160408201359163ffffffff6060820135169181019060a08101608082013564010000000081111561030d57600080fd5b82018360208201111561031f57600080fd5b8035906020019184602083028401116401000000008311171561034157600080fd5b919080806020026020016040519081016040528093929190818152602001838360200280828437600092019190915250929594936020810193503591505064010000000081111561039157600080fd5b8201836020820111156103a357600080fd5b803590602001918460018302840111640100000000831117156103c557600080fd5b91908080601f016020809104026020016040519081016040528093929190818152602001838380828437600092019190915250929594936020810193503591505064010000000081111561041857600080fd5b82018360208201111561042a57600080fd5b8035906020019184602083028401116401000000008311171561044c57600080fd5b919080806020026020016040519081016040528093929190818152602001838360200280828437600092019190915250929594936020810193503591505064010000000081111561049c57600080fd5b8201836020820111156104ae57600080fd5b803590602001918460208302840111640100000000831117156104d057600080fd5b919080806020026020016040519081016040528093929190818152602001838360200280828437600092019190915250929594936020810193503591505064010000000081111561052057600080fd5b82018360208201111561053257600080fd5b8035906020019184602083028401116401000000008311171561055457600080fd5b9190808060200260200160405190810160405280939291908181526020018383602002808284376000920191909152509295505091359250611678915050565b3480156105a057600080fd5b5061013a6116d9565b3480156105b557600080fd5b5061013a60048036036101008110156105cd57600080fd5b813591602081013591604082013591908101906080810160608201356401000000008111156105fb57600080fd5b82018360208201111561060d57600080fd5b8035906020019184602083028401116401000000008311171561062f57600080fd5b919080806020026020016040519081016040528093929190818152602001838360200280828437600092019190915250929594936020810193503591505064010000000081111561067f57600080fd5b82018360208201111561069157600080fd5b803590602001918460018302840111640100000000831117156106b357600080fd5b91908080601f016020809104026020016040519081016040528093929190818152602001838380828437600092019190915250929594936020810193503591505064010000000081111561070657600080fd5b82018360208201111561071857600080fd5b8035906020019184602083028401116401000000008311171561073a57600080fd5b919080806020026020016040519081016040528093929190818152602001838360200280828437600092019190915250929594936020810193503591505064010000000081111561078a57600080fd5b82018360208201111561079c57600080fd5b803590602001918460208302840111640100000000831117156107be57600080fd5b919080806020026020016040519081016040528093929190818152602001838360200280828437600092019190915250929594936020810193503591505064010000000081111561080e57600080fd5b82018360208201111561082057600080fd5b8035906020019184602083028401116401000000008311171561084257600080fd5b919080806020026020016040519081016040528093929190818152602001838360200280828437600092019190915250929550611743945050505050565b34801561088c57600080fd5b5061089561197e565b60408051600160a060020a039092168252519081900360200190f35b3480156108bd57600080fd5b5061013a60048036036101408110156108d557600080fd5b8101908080606001906003806020026040519081016040528092919082600360200280828437600092019190915250919463ffffffff843581169560208601359091169461ffff60408201351694506001608060020a036060820135169350600160a060020a03608082013581169360a083013590911692909160e081019060c0013564010000000081111561096a57600080fd5b82018360208201111561097c57600080fd5b8035906020019184600183028401116401000000008311171561099e57600080fd5b91908080601f01602080910402602001604051908101604052809392919081815260200183838082843760009201919091525092955061198d945050505050565b3480156109eb57600080fd5b50610268612375565b348015610a0057600080fd5b5061013a6004803603610140811015610a1857600080fd5b6040805180820182528335936020810135938101929091608083019180840190600290839083908082843760009201919091525091949392602081019250359050640100000000811115610a6b57600080fd5b820183602082011115610a7d57600080fd5b80359060200191846020830284011164010000000083111715610a9f57600080fd5b9190808060200260200160405190810160405280939291908181526020018383602002808284376000920191909152509295949360208101935035915050640100000000811115610aef57600080fd5b820183602082011115610b0157600080fd5b80359060200191846020830284011164010000000083111715610b2357600080fd5b9190808060200260200160405190810160405280939291908181526020018383602002808284376000920191909152509295949360208101935035915050640100000000811115610b7357600080fd5b820183602082011115610b8557600080fd5b80359060200191846020830284011164010000000083111715610ba757600080fd5b919080806020026020016040519081016040528093929190818152602001838360200280828437600092019190915250929567ffffffffffffffff85351695602086013595919450925060608101915060400135640100000000811115610c0d57600080fd5b820183602082011115610c1f57600080fd5b80359060200191846001830284011164010000000083111715610c4157600080fd5b91908080601f016020809104026020016040519081016040528093929190818152602001838380828437600092019190915250929550612386945050505050565b348015610c8e57600080fd5b5061013a60048036036101a0811015610ca657600080fd5b810190808060a00190600580602002604051908101604052809291908260056020028082843760009201919091525050604080518082018252929563ffffffff853516959094909360608201935091602090910190600290839083908082843760009201919091525091949392602081019250359050640100000000811115610d2e57600080fd5b820183602082011115610d4057600080fd5b80359060200191846020830284011164010000000083111715610d6257600080fd5b9190808060200260200160405190810160405280939291908181526020018383602002808284376000920191909152509295949360208101935035915050640100000000811115610db257600080fd5b820183602082011115610dc457600080fd5b80359060200191846020830284011164010000000083111715610de657600080fd5b9190808060200260200160405190810160405280939291908181526020018383602002808284376000920191909152509295949360208101935035915050640100000000811115610e3657600080fd5b820183602082011115610e4857600080fd5b80359060200191846020830284011164010000000083111715610e6a57600080fd5b9190808060200260200160405190810160405280939291908181526020018383602002808284376000920191909152509295949360208101935035915050640100000000811115610eba57600080fd5b820183602082011115610ecc57600080fd5b80359060200191846020830284011164010000000083111715610eee57600080fd5b9190808060200260200160405190810160405280939291908181526020018383602002808284376000920191909152509295949360208101935035915050640100000000811115610f3e57600080fd5b820183602082011115610f5057600080fd5b80359060200191846020830284011164010000000083111715610f7257600080fd5b919080806020026020016040519081016040528093929190818152602001838360200280828437600092019190915250929550612c16945050505050565b348015610fbc57600080fd5b5061013a6004803603610180811015610fd457600080fd5b60408051808201825283359360208101359383820135939082019260a0830191606084019060029083908390808284376000920191909152509194939260208101925035905064010000000081111561102c57600080fd5b82018360208201111561103e57600080fd5b8035906020019184602083028401116401000000008311171561106057600080fd5b91908080602002602001604051908101604052809392919081815260200183836020028082843760009201919091525092959493602081019350359150506401000000008111156110b057600080fd5b8201836020820111156110c257600080fd5b803590602001918460018302840111640100000000831117156110e457600080fd5b91908080601f016020809104026020016040519081016040528093929190818152602001838380828437600092019190915250929594936020810193503591505064010000000081111561113757600080fd5b82018360208201111561114957600080fd5b8035906020019184602083028401116401000000008311171561116b57600080fd5b91908080602002602001604051908101604052809392919081815260200183836020028082843760009201919091525092959493602081019350359150506401000000008111156111bb57600080fd5b8201836020820111156111cd57600080fd5b803590602001918460208302840111640100000000831117156111ef57600080fd5b919080806020026020016040519081016040528093929190818152602001838360200280828437600092019190915250929594936020810193503591505064010000000081111561123f57600080fd5b82018360208201111561125157600080fd5b8035906020019184602083028401116401000000008311171561127357600080fd5b919080806020026020016040519081016040528093929190818152602001838360200280828437600092019190915250929584359590949093506040810192506020013590506401000000008111156112cb57600080fd5b8201836020820111156112dd57600080fd5b803590602001918460018302840111640100000000831117156112ff57600080fd5b91908080601f016020809104026020016040519081016040528093929190818152602001838380828437600092019190915250929550612c9b945050505050565b34801561134c57600080fd5b5061013a6004803603602081101561136357600080fd5b5035600160a060020a0316612cfd565b61013a6004803603604081101561138957600080fd5b813591908101906040810160208201356401000000008111156113ab57600080fd5b8201836020820111156113bd57600080fd5b803590602001918460018302840111640100000000831117156113df57600080fd5b91908080601f016020809104026020016040519081016040528093929190818152602001838380828437600092019190915250929550612d1c945050505050565b34801561142c57600080fd5b5061013a6004803603602081101561144357600080fd5b5035612db2565b34801561145657600080fd5b5061013a6004803603604081101561146d57600080fd5b5080359060200135612e2d565b611482612375565b151561148d57600080fd5b6001805480820182556000919091527fb10e2d527612073b26eecdfd717e6a320cf44b4afac2b0732d9fcbe2b7fa0cf601805473ffffffffffffffffffffffffffffffffffffffff1916600160a060020a0392909216919091179055565b6114f884848433856131fa565b50505050565b805160009067ffffffffffffffff16431080159061152a5750602082015167ffffffffffffffff164311155b92915050565b6000838152600360205260409020600b8101546001805490916a0100000000000000000000900461ffff1690811061156457fe5b600091825260209091200154600160a060020a0316331461158457600080fd5b600b8101546d0100000000000000000000000000900460ff1615156115a857600080fd5b600b810180546dff00000000000000000000000000191690556116156001608060020a03833516600c8301600086815b6020020135600160a060020a0316600160a060020a0316600160a060020a03168152602001908152602001600020546133ba90919063ffffffff16565b8335600160a060020a03166000908152600c83016020818152604083209390935561164f928501356001608060020a0316918660016115d8565b600160a060020a03602094850135166000908152600c9290920190935260409020919091555050565b6116cd610140604051908101604052808c81526020018b81526020018a81526020018963ffffffff168152602001888152602001878152602001868152602001858152602001848152602001838152506133d3565b50505050505050505050565b6116e1612375565b15156116ec57600080fd5b60008054604051600160a060020a03909116907f8be0079c531659141344cd1fd0a4f28419497f9722a3daafe3b4186f6b6457e0908390a36000805473ffffffffffffffffffffffffffffffffffffffff19169055565b60008881526003602052604090206002600b820154606060020a900460ff16600281111561176d57fe5b1461177757600080fd5b600a810154608060020a900467ffffffffffffffff16431161179857600080fd5b858484898b89876040516020018085815260200184815260200183805190602001908083835b602083106117dd5780518252601f1990920191602091820191016117be565b51815160209384036101000a60001901801990921691161790528551919093019285810192500280838360005b8381101561182257818101518382015260200161180a565b505050509050019450505050506040516020818303038152906040528051906020012060405160200180858051906020019060200280838360005b8381101561187557818101518382015260200161185d565b50505050905001848051906020019060200280838360005b838110156118a557818101518382015260200161188d565b50505050905001838051906020019060200280838360005b838110156118d55781810151838201526020016118bd565b5050505090500182815260200194505050505060405160208183030381529060405280519060200120816001015414151561190f57600080fd5b6002810187905561192589898888888888613ab6565b600a8101546040805167ffffffffffffffff60c060020a909304929092168252518a917fd23ef3a25058f2acee4ca7aee5cc78a587b9fc76d2875098af1ffdfc2bcc74c9919081900360200190a2505050505050505050565b600054600160a060020a031690565b8051620100009060419004106119ed576040805160e560020a62461bcd02815260206004820152601360248201527f546f6f206d616e792076616c696461746f727300000000000000000000000000604482015290519081900360640190fd5b87516bffffffffffffffffffffffff1981161415611a55576040805160e560020a62461bcd02815260206004820152600c60248201527f496e76616c696420766d49640000000000000000000000000000000000000000604482015290519081900360640190fd5b60015461ffff861610611ab2576040805160e560020a62461bcd02815260206004820152601d60248201527f496e76616c6964206368616c6c656e6765206d616e61676572206e756d000000604482015290519081900360640190fd5b60006001608060020a03851611611ac857600080fd5b600160a060020a03831660009081526004602052604090205460ff161515611b245760405160e560020a62461bcd0281526004018080602001828103825260298152602001806156936029913960400191505060405180910390fd5b60408089015181517ff0c8e969000000000000000000000000000000000000000000000000000000008152600481018281526024820193845284516044830152845160609473__ArbProtocol___________________________9463f0c8e969949093889390929160640190602085019080838360005b83811015611bb3578181015183820152602001611b9b565b50505050905090810190601f168015611be05780820380516001836020036101000a031916815260200191505b50935050505060006040518083038186803b158015611bfe57600080fd5b505af4158015611c12573d6000803e3d6000fd5b505050506040513d6000823e601f3d908101601f191682016040526020811015611c3b57600080fd5b810190808051640100000000811115611c5357600080fd5b82016020810184811115611c6657600080fd5b8151856020820283011164010000000082111715611c8357600080fd5b509094508b93508892508791508a90508c600160200201518a8887604051602001808963ffffffff1663ffffffff1660e060020a028152600401886001608060020a03166001608060020a0316608060020a02815260100187600160a060020a0316600160a060020a0316606060020a0281526014018663ffffffff1663ffffffff1660e060020a0281526004018581526020018461ffff1661ffff167e0100000000000000000000000000000000000000000000000000000000000002815260020183600160a060020a0316600160a060020a0316606060020a028152601401828051906020019060200280838360005b83811015611d8d578181015183820152602001611d75565b505050509050019850505050505050505060405160208183030381529060405280519060200120896002600381101515611dc357fe5b602002015114611e1d576040805160e560020a62461bcd02815260206004820152601560248201527f437265617465206461746120696e636f72726563740000000000000000000000604482015290519081900360640190fd5b60005b8151811015611ef3576002548251600160a060020a039091169063b8569ccd90849084908110611e4c57fe5b90602001906020020151606060020a026bffffffffffffffffffffffff191687896040518463ffffffff1660e060020a0281526004018084815260200183600160a060020a0316600160a060020a03168152602001826001608060020a031681526020019350505050600060405180830381600087803b158015611ecf57600080fd5b505af1158015611ee3573d6000803e3d6000fd5b505060019092019150611e209050565b50885160009081526003602052604090208960016020020151816000018190555073__ArbValue______________________________63364df2776040518163ffffffff1660e060020a02815260040160206040518083038186803b158015611f5b57600080fd5b505af4158015611f6f573d6000803e3d6000fd5b505050506040513d6020811015611f8557600080fd5b50516002820155604080517f364df277000000000000000000000000000000000000000000000000000000008152905173__ArbValue______________________________9163364df277916004808301926020929190829003018186803b158015611ff057600080fd5b505af4158015612004573d6000803e3d6000fd5b505050506040513d602081101561201a57600080fd5b50516003820155600b810180546bffff0000000000000000000019166a010000000000000000000061ffff8a1602176cff000000000000000000000000191690556000600182018190556040517f6a2dda6700000000000000000000000000000000000000000000000000000000815260206004820181815285516024840152855173__MerkleLib_____________________________94636a2dda67948894849360449092019286820192909102908190849084905b838110156120e95781810151838201526020016120d1565b505050509050019250505060206040518083038186803b15801561210c57600080fd5b505af4158015612120573d6000803e3d6000fd5b505050506040513d602081101561213657600080fd5b505160048201558151600b82018054600a840180546fffffffffffffffffffffffffffffffff19166001608060020a038b1617905560098401805473ffffffffffffffffffffffffffffffffffffffff19908116600160a060020a038b81169190911790925560078601805490911691891691909117905569ffff000000000000000019166801000000000000000061ffff909316929092029190911763ffffffff191663ffffffff8b81169190911767ffffffff000000001916640100000000918b169190910217905560005b825181101561225657866001608060020a031682600c016000858481518110151561222b57fe5b6020908102909101810151600160a060020a0316825281019190915260400160002055600101612204565b5089600060200201517f4b2401fcd345e80785cf05556c9dc50bc985a521241d1e3037b4ad86c77f62418a88888c8f600160200201518d8b8a604051808963ffffffff1663ffffffff168152602001886001608060020a03166001608060020a0316815260200187600160a060020a0316600160a060020a031681526020018663ffffffff1663ffffffff1681526020018581526020018461ffff1661ffff16815260200183600160a060020a0316600160a060020a0316815260200180602001828103825283818151815260200191508051906020019060200280838360005b8381101561234f578181015183820152602001612337565b50505050905001995050505050505050505060405180910390a250505050505050505050565b600054600160a060020a0316331490565b600089815260036020526040902061239d886114fe565b15156123dd5760405160e560020a62461bcd0281526004018080602001828103825260248152602001806157026024913960400191505060405180910390fd5b805415156123ea57600080fd5b60008a8a8a846000015485600201548c8c8c8c6040516020018089815260200188600260200280838360005b8381101561242e578181015183820152602001612416565b50505050905001878152602001868152602001858051906020019060200280838360005b8381101561246a578181015183820152602001612452565b50505050905001848051906020019060200280838360005b8381101561249a578181015183820152602001612482565b50505050905001838051906020019060200280838360005b838110156124ca5781810151838201526020016124b2565b505050509050018267ffffffffffffffff1667ffffffffffffffff1660c060020a028152600801985050505050505050506040516020818303038152906040528051906020012085604051602001808481526020018381526020018281526020019350505050604051602081830303815290604052805190602001209050816004015473__MerkleLib_____________________________636a2dda6773__ArbProtocol___________________________63f0c8e96985886040518363ffffffff1660e060020a0281526004018083815260200180602001828103825283818151815260200191508051906020019080838360005b838110156125d85781810151838201526020016125c0565b50505050905090810190601f1680156126055780820380516001836020036101000a031916815260200191505b50935050505060006040518083038186803b15801561262357600080fd5b505af4158015612637573d6000803e3d6000fd5b505050506040513d6000823e601f3d908101601f19168201604052602081101561266057600080fd5b81019080805164010000000081111561267857600080fd5b8201602081018481111561268b57600080fd5b81518560208202830111640100000000821117156126a857600080fd5b505060405160e060020a63ffffffff87160281526020600482018181528351602484015283519396509450849350604490910191818601910280838360005b838110156126ff5781810151838201526020016126e7565b505050509050019250505060206040518083038186803b15801561272257600080fd5b505af4158015612736573d6000803e3d6000fd5b505050506040513d602081101561274c57600080fd5b5051146127a3576040805160e560020a62461bcd02815260206004820181905260248201527f56616c696461746f72207369676e61747572657320646f6e2774206d61746368604482015290519081900360640190fd5b6002600b830154606060020a900460ff1660028111156127bf57fe5b14156127ea57600a82015467ffffffffffffffff60c060020a9091048116908616116127ea57600080fd5b600260009054906101000a9004600160a060020a0316600160a060020a031663c24651068c8a73__ArbProtocol___________________________630f89fbff8d8d8d6040518463ffffffff1660e060020a02815260040180806020018060200180602001848103845287818151815260200191508051906020019060200280838360005b8381101561288757818101518382015260200161286f565b50505050905001848103835286818151815260200191508051906020019060200280838360005b838110156128c65781810151838201526020016128ae565b50505050905001848103825285818151815260200191508051906020019060200280838360005b838110156129055781810151838201526020016128ed565b50505050905001965050505050505060006040518083038186803b15801561292c57600080fd5b505af4158015612940573d6000803e3d6000fd5b505050506040513d6000823e601f3d908101601f19168201604052602081101561296957600080fd5b81019080805164010000000081111561298157600080fd5b8201602081018481111561299457600080fd5b81518560208202830111640100000000821117156129b157600080fd5b50509291905050506040518463ffffffff1660e060020a028152600401808481526020018060200180602001838103835285818151815260200191508051906020019060200280838360005b83811015612a155781810151838201526020016129fd565b50505050905001838103825284818151815260200191508051906020019060200280838360005b83811015612a54578181015183820152602001612a3c565b5050505090500195505050505050600060405180830381600087803b158015612a7c57600080fd5b505af1158015612a90573d6000803e3d6000fd5b50505050612a9d82613e89565b612aa682613f4c565b600b820180546cff00000000000000000000000019166c02000000000000000000000000179055600a8201805477ffffffffffffffffffffffffffffffffffffffffffffffff1660c060020a67ffffffffffffffff88160217905560405188518991899189918e916020918201918291818801910280838360005b83811015612b39578181015183820152602001612b21565b50505050905001848051906020019060200280838360005b83811015612b69578181015183820152602001612b51565b50505050905001838051906020019060200280838360005b83811015612b99578181015183820152602001612b81565b50505050919091019283525050604080518083038152602080840180845282519290910191909120600189015586905267ffffffffffffffff8a1681830152518f94507f2147b50aa60f106b4862803c213873094d4a6495020f15f436027600a58b1fff9350908190036060019150a25050505050505050505050565b6040805161018081018252895181526020808b01519082015289820151918101919091526060808a0151908201526080808a01519082015263ffffffff881660a082015260c0810187905260e081018690526101008101859052610120810184905261014081018390526101608101829052612c9190613f98565b5050505050505050565b612cf0610160604051908101604052808d81526020018c81526020018b81526020018a815260200189815260200188815260200187815260200186815260200185815260200184815260200183815250614c1c565b5050505050505050505050565b612d05612375565b1515612d1057600080fd5b612d198161518a565b50565b600254604080517fda63d7b6000000000000000000000000000000000000000000000000000000008152600481018590529051600160a060020a039092169163da63d7b6913491602480830192600092919082900301818588803b158015612d8357600080fd5b505af1158015612d97573d6000803e3d6000fd5b50612dae9350859250600091503490503385615207565b5050565b60008181526003602052604090206007810154600160a060020a03163314612e24576040805160e560020a62461bcd02815260206004820152601e60248201527f4f6e6c79206f776e65722063616e2073687574646f776e2074686520564d0000604482015290519081900360640190fd5b612dae82615559565b60008281526003602052604090206008810154600160a060020a0316331415612e8a5760405160e560020a62461bcd0281526004018080602001828103825260218152602001806157266021913960400191505060405180910390fd5b600a810154608060020a900467ffffffffffffffff16431115612ee15760405160e560020a62461bcd0281526004018080602001828103825260268152602001806157b76026913960400191505060405180910390fd5b6001600b820154606060020a900460ff166002811115612efd57fe5b14612f3c5760405160e560020a62461bcd02815260040180806020018281038252602f815260200180615664602f913960400191505060405180910390fd5b336000908152600c82016020526040902054600a8201546001608060020a03161115612f9c5760405160e560020a62461bcd0281526004018080602001828103825260278152602001806156046027913960400191505060405180910390fd5b60018101548214612fe15760405160e560020a62461bcd02815260040180806020018281038252603981526020018061562b6039913960400191505060405180910390fd5b600a810154336000908152600c83016020526040902054613010916001608060020a031663ffffffff6155ee16565b336000908152600c83016020526040812091909155600180830191909155600b820180546d01000000000000000000000000006dffff00000000000000000000000019909116179081905581546a010000000000000000000090910461ffff1690811061307957fe5b60009182526020808320909101546040805180820182526008860154600160a060020a039081168252338286015282518084018452600a8801546001608060020a031680825295810195909552600b87015483517f2b50d42b000000000000000000000000000000000000000000000000000000008152600481018b81529290951696632b50d42b968b969495909463ffffffff909316938b93909260249091019187918190849084905b8381101561313c578181015183820152602001613124565b5050505090500184600260200280838360005b8381101561316757818101518382015260200161314f565b505050509050018363ffffffff1663ffffffff16815260200182815260200195505050505050600060405180830381600087803b1580156131a757600080fd5b505af11580156131bb573d6000803e3d6000fd5b50506040805133815290518693507fb8d6a904566965067cb7e3e946d2a494a4b1f955ffec3e72e1e6ebe4e8e52c7292509081900360200190a2505050565b8360141a7f0100000000000000000000000000000000000000000000000000000000000000027effffffffffffffffffffffffffffffffffffffffffffffffffffffffffffff191660017f010000000000000000000000000000000000000000000000000000000000000002141561330b57600254604080517fcdf25dc10000000000000000000000000000000000000000000000000000000081526004810185905260248101889052600160a060020a03606060020a880481166044830152606482018790529151919092169163cdf25dc191608480830192600092919082900301818387803b1580156132ee57600080fd5b505af1158015613302573d6000803e3d6000fd5b505050506133a6565b600254604080517f1240117b0000000000000000000000000000000000000000000000000000000081526004810185905260248101889052600160a060020a03606060020a8804811660448301526064820187905291519190921691631240117b91608480830192600092919082900301818387803b15801561338d57600080fd5b505af11580156133a1573d6000803e3d6000fd5b505050505b6133b38585858585615207565b5050505050565b6000828201838110156133cc57600080fd5b9392505050565b805160009081526003602052604090206001600b820154606060020a900460ff1660028111156133ff57fe5b1461343e5760405160e560020a62461bcd0281526004018080602001828103825260228152602001806156e06022913960400191505060405180910390fd5b600a810154608060020a900467ffffffffffffffff1643116134945760405160e560020a62461bcd0281526004018080602001828103825260248152602001806156bc6024913960400191505060405180910390fd5b8060010154826020015173__ArbProtocol___________________________632090372185604001518660600151600073__ArbProtocol___________________________63252001608a608001518b60a001518c60c001518d60e001518e61010001516040518663ffffffff1660e060020a02815260040180806020018060200180602001806020018060200186810386528b818151815260200191508051906020019060200280838360005b8381101561355a578181015183820152602001613542565b5050505090500186810385528a818151815260200191508051906020019080838360005b8381101561359657818101518382015260200161357e565b50505050905090810190601f1680156135c35780820380516001836020036101000a031916815260200191505b508681038452895181528951602091820191808c01910280838360005b838110156135f85781810151838201526020016135e0565b50505050905001868103835288818151815260200191508051906020019060200280838360005b8381101561363757818101518382015260200161361f565b50505050905001868103825287818151815260200191508051906020019060200280838360005b8381101561367657818101518382015260200161365e565b505050509050019a505050505050505050505060206040518083038186803b1580156136a157600080fd5b505af41580156136b5573d6000803e3d6000fd5b505050506040513d60208110156136cb57600080fd5b810190808051906020019092919050505060008a610120015173__ArbProtocol___________________________630f89fbff8d608001518e60c001518f60e001516040518463ffffffff1660e060020a02815260040180806020018060200180602001848103845287818151815260200191508051906020019060200280838360005b8381101561376757818101518382015260200161374f565b50505050905001848103835286818151815260200191508051906020019060200280838360005b838110156137a657818101518382015260200161378e565b50505050905001848103825285818151815260200191508051906020019060200280838360005b838110156137e55781810151838201526020016137cd565b50505050905001965050505050505060006040518083038186803b15801561380c57600080fd5b505af4158015613820573d6000803e3d6000fd5b505050506040513d6000823e601f3d908101601f19168201604052602081101561384957600080fd5b81019080805164010000000081111561386157600080fd5b8201602081018481111561387457600080fd5b815185602082028301116401000000008211171561389157600080fd5b50509291905050506040518863ffffffff1660e060020a028152600401808881526020018763ffffffff1663ffffffff16815260200186600102815260200185815260200184600102815260200183815260200180602001828103825283818151815260200191508051906020019060200280838360005b83811015613921578181015183820152602001613909565b505050509050019850505050505050505060206040518083038186803b15801561394a57600080fd5b505af415801561395e573d6000803e3d6000fd5b505050506040513d602081101561397457600080fd5b50516040805160208181019490945280820192909252805180830382018152606090920190528051910120146139de5760405160e560020a62461bcd02815260040180806020018281038252603981526020018061562b6039913960400191505060405180910390fd5b600a8101546008820154600160a060020a03166000908152600c83016020526040902054613a1a916001608060020a031663ffffffff6133ba16565b6008820154600160a060020a03166000908152600c830160205260409081902091909155825190830151608084015160a085015160c086015160e0870151610100880151613a6d96959493929190613ab6565b81516040808401516101208501518251918252602082015281517f9116ee6e53cceb1cd0f4ba7dafd4076656846670da45f42fc6dde02c9ebb8cc9929181900390910190a25050565b6000878152600360205260408120606090825b8551811015613c9a5773__ArbValue______________________________634d00ef7a89866040518363ffffffff1660e060020a0281526004018080602001838152602001828103825284818151815260200191508051906020019080838360005b83811015613b43578181015183820152602001613b2b565b50505050905090810190601f168015613b705780820380516001836020036101000a031916815260200191505b50935050505060006040518083038186803b158015613b8e57600080fd5b505af4158015613ba2573d6000803e3d6000fd5b505050506040513d6000823e601f3d908101601f191682016040908152811015613bcb57600080fd5b815160208301805191939283019291640100000000811115613bec57600080fd5b82016020810184811115613bff57600080fd5b8151640100000000811182820187101715613c1957600080fd5b505089519498509650613c929389935085925082109050613c3657fe5b906020019060200201518a8984815181101515613c4f57fe5b9060200190602002015161ffff16815181101515613c6957fe5b906020019060200201518884815181101515613c8157fe5b906020019060200201518e876131fa565b600101613ac9565b50888155600b810180546cff00000000000000000000000019169055604080517f364df277000000000000000000000000000000000000000000000000000000008152905173__ArbValue______________________________9163364df277916004808301926020929190829003018186803b158015613d1a57600080fd5b505af4158015613d2e573d6000803e3d6000fd5b505050506040513d6020811015613d4457600080fd5b5051600382015414613e795773__ArbProtocol___________________________63f11fcc26826002015483600301546040518363ffffffff1660e060020a028152600401808381526020018281526020019250505060206040518083038186803b158015613db257600080fd5b505af4158015613dc6573d6000803e3d6000fd5b505050506040513d6020811015613ddc57600080fd5b50516002820155604080517f364df277000000000000000000000000000000000000000000000000000000008152905173__ArbValue______________________________9163364df277916004808301926020929190829003018186803b158015613e4757600080fd5b505af4158015613e5b573d6000803e3d6000fd5b505050506040513d6020811015613e7157600080fd5b505160038201555b8815156116cd576116cd8a615559565b6000600b820154606060020a900460ff166002811115613ea557fe5b14613ecc57600a810154608060020a900467ffffffffffffffff16431115613ecc57600080fd5b6001600b820154606060020a900460ff166002811115613ee857fe5b1415612d1957600a8101546008820154600160a060020a03166000908152600c83016020526040902054613f2a916001608060020a031663ffffffff6133ba16565b6008820154600160a060020a03166000908152600c8301602052604090205550565b600b810154600a909101805477ffffffffffffffff000000000000000000000000000000001916608060020a63ffffffff909316430167ffffffffffffffff1692909202919091179055565b8051600090815260036020526040812090600b820154606060020a900460ff166002811115613fc357fe5b146140025760405160e560020a62461bcd02815260040180806020018281038252602d8152602001806157dd602d913960400191505060405180910390fd5b80541580159061401457508054600114155b151561401f57600080fd5b600b8101546d0100000000000000000000000000900460ff161561404257600080fd5b336000908152600c82016020526040902054600a8201546001608060020a031611156140a25760405160e560020a62461bcd0281526004018080602001828103825260278152602001806157696027913960400191505060405180910390fd5b600b81015460a083015163ffffffff640100000000909204821691161115614114576040805160e560020a62461bcd02815260206004820152601f60248201527f547269656420746f206578656375746520746f6f206d616e7920737465707300604482015290519081900360640190fd5b6141218260c001516114fe565b15156141615760405160e560020a62461bcd0281526004018080602001828103825260248152602001806157026024913960400191505060405180910390fd5b80546020830151146141a75760405160e560020a62461bcd0281526004018080602001828103825260278152602001806157906027913960400191505060405180910390fd5b80600201548260400151148061424d575073__ArbProtocol___________________________63f11fcc26826002015483600301546040518363ffffffff1660e060020a028152600401808381526020018281526020019250505060206040518083038186803b15801561421a57600080fd5b505af415801561422e573d6000803e3d6000fd5b505050506040513d602081101561424457600080fd5b50516040830151145b151561428d5760405160e560020a62461bcd0281526004018080602001828103825260228152602001806157476022913960400191505060405180910390fd5b606073__ArbProtocol___________________________630f89fbff8460e001518561012001518661014001516040518463ffffffff1660e060020a02815260040180806020018060200180602001848103845287818151815260200191508051906020019060200280838360005b838110156143145781810151838201526020016142fc565b50505050905001848103835286818151815260200191508051906020019060200280838360005b8381101561435357818101518382015260200161433b565b50505050905001848103825285818151815260200191508051906020019060200280838360005b8381101561439257818101518382015260200161437a565b50505050905001965050505050505060006040518083038186803b1580156143b957600080fd5b505af41580156143cd573d6000803e3d6000fd5b505050506040513d6000823e601f3d908101601f1916820160405260208110156143f657600080fd5b81019080805164010000000081111561440e57600080fd5b8201602081018481111561442157600080fd5b815185602082028301116401000000008211171561443e57600080fd5b5050600254875160e08901516040517fc246510600000000000000000000000000000000000000000000000000000000815260048101838152606060248301908152835160648401528351969a50600160a060020a03909516985063c24651069750929550909388939160448101916084909101906020808801910280838360005b838110156144d85781810151838201526020016144c0565b50505050905001838103825284818151815260200191508051906020019060200280838360005b838110156145175781810151838201526020016144ff565b5050505090500195505050505050600060405180830381600087803b15801561453f57600080fd5b505af1158015614553573d6000803e3d6000fd5b5050505061456082613f4c565b600073__ArbProtocol___________________________63b32774958560e001518661010001518761012001518861014001518961016001516040518663ffffffff1660e060020a02815260040180806020018060200180602001806020018060200186810386528b818151815260200191508051906020019060200280838360005b838110156145fb5781810151838201526020016145e3565b5050505090500186810385528a818151815260200191508051906020019060200280838360005b8381101561463a578181015183820152602001614622565b50505050905001868103845289818151815260200191508051906020019060200280838360005b83811015614679578181015183820152602001614661565b50505050905001868103835288818151815260200191508051906020019060200280838360005b838110156146b85781810151838201526020016146a0565b50505050905001868103825287818151815260200191508051906020019060200280838360005b838110156146f75781810151838201526020016146df565b505050509050019a505050505050505050505060206040518083038186803b15801561472257600080fd5b505af4158015614736573d6000803e3d6000fd5b505050506040513d602081101561474c57600080fd5b5051602085015160c086015160408088015160e089015182517f3e2855980000000000000000000000000000000000000000000000000000000081526004810186815296975073__ArbProtocol___________________________96633e2855989695948a9260240190869080838360005b838110156147d65781810151838201526020016147be565b505050509050018481526020018060200180602001838103835285818151815260200191508051906020019060200280838360005b8381101561482357818101518382015260200161480b565b50505050905001838103825284818151815260200191508051906020019060200280838360005b8381101561486257818101518382015260200161484a565b5050505090500197505050505050505060206040518083038186803b15801561488a57600080fd5b505af415801561489e573d6000803e3d6000fd5b505050506040513d60208110156148b457600080fd5b5051606085015160a086015160808701516040517f209037210000000000000000000000000000000000000000000000000000000081526004810184815263ffffffff84166024830152600060448301819052606483018890526084830181905260a4830184905260e060c48401908152895160e4850152895173__ArbProtocol___________________________976320903721979096909593948b94869492938e93916101040190602085810191028083838a5b8381101561498257818101518382015260200161496a565b505050509050019850505050505050505060206040518083038186803b1580156149ab57600080fd5b505af41580156149bf573d6000803e3d6000fd5b505050506040513d60208110156149d557600080fd5b50516040805160208181019490945280820192909252805180830382018152606090920181528151918301919091206001860155600a850154336000908152600c8701909352912054614a36916001608060020a031663ffffffff6155ee16565b336000818152600c8601602052604090209190915560088401805473ffffffffffffffffffffffffffffffffffffffff19169091179055600b83018054600191906cff0000000000000000000000001916606060020a83021790555083600001517f8466b2589a76ab0ff96670e87c3100a0a418647ac17a93ecbde4d036590aa34460606040519081016040528087602001518152602001876040015181526020018760600151815250338760c001518860e001518960a00151878b608001518a6040518089600360200280838360005b83811015614b1f578181015183820152602001614b07565b50505050600160a060020a038b1692019182525060200187604080838360005b83811015614b57578181015183820152602001614b3f565b50505050905001806020018663ffffffff1663ffffffff16815260200185815260200184815260200180602001838103835288818151815260200191508051906020019060200280838360005b83811015614bbc578181015183820152602001614ba4565b50505050905001838103825284818151815260200191508051906020019060200280838360005b83811015614bfb578181015183820152602001614be3565b505050509050019a505050505050505050505060405180910390a250505050565b8051600090815260036020526040902080541515614c3957600080fd5b614c4682606001516114fe565b1515614c865760405160e560020a62461bcd0281526004018080602001828103825260248152602001806157026024913960400191505060405180910390fd5b60008260000151836040015184602001518560a001518661010001516040516020018085815260200184815260200183805190602001908083835b60208310614ce05780518252601f199092019160209182019101614cc1565b51815160209384036101000a60001901801990921691161790528551919093019285810192500280838360005b83811015614d25578181015183820152602001614d0d565b505050509050019450505050506040516020818303038152906040528051906020012084606001518460000154856002015487608001518860c001518960e001516040516020018088815260200187600260200280838360005b83811015614d97578181015183820152602001614d7f565b50505050905001868152602001858152602001848051906020019060200280838360005b83811015614dd3578181015183820152602001614dbb565b50505050905001838051906020019060200280838360005b83811015614e03578181015183820152602001614deb565b50505050905001828051906020019060200280838360005b83811015614e33578181015183820152602001614e1b565b5050505090500197505050505050505060405160208183030381529060405280519060200120846101200151604051602001808481526020018381526020018281526020019350505050604051602081830303815290604052805190602001209050816004015473__MerkleLib_____________________________636a2dda6773__ArbProtocol___________________________63f0c8e969858861014001516040518363ffffffff1660e060020a0281526004018083815260200180602001828103825283818151815260200191508051906020019080838360005b83811015614f2a578181015183820152602001614f12565b50505050905090810190601f168015614f575780820380516001836020036101000a031916815260200191505b50935050505060006040518083038186803b158015614f7557600080fd5b505af4158015614f89573d6000803e3d6000fd5b505050506040513d6000823e601f3d908101601f191682016040526020811015614fb257600080fd5b810190808051640100000000811115614fca57600080fd5b82016020810184811115614fdd57600080fd5b8151856020820283011164010000000082111715614ffa57600080fd5b505060405160e060020a63ffffffff87160281526020600482018181528351602484015283519396509450849350604490910191818601910280838360005b83811015615051578181015183820152602001615039565b505050509050019250505060206040518083038186803b15801561507457600080fd5b505af4158015615088573d6000803e3d6000fd5b505050506040513d602081101561509e57600080fd5b5051146150f5576040805160e560020a62461bcd02815260206004820181905260248201527f56616c696461746f72207369676e61747572657320646f6e2774206d61746368604482015290519081900360640190fd5b6150fe82613e89565b600b820180546cff000000000000000000000000191690556040830151600283015582516020840151608085015160a086015160c087015160e088015161010089015161515096959493929190613ab6565b82516040805183815290517f7349e5fdd7efd858059f6107d3f1309d322a1a495dc102e112296badf7742a869181900360200190a2505050565b600160a060020a038116151561519f57600080fd5b60008054604051600160a060020a03808516939216917f8be0079c531659141344cd1fd0a4f28419497f9722a3daafe3b4186f6b6457e091a36000805473ffffffffffffffffffffffffffffffffffffffff1916600160a060020a0392909216919091179055565b6bffffffffffffffffffffffff198516851461548457600085815260036020908152604080832090517f92516ac70000000000000000000000000000000000000000000000000000000081526004810183815285516024830152855192949373__ArbProtocol___________________________93632a0500d8938c9373__ArbValue______________________________936392516ac7938b938392604490910191908501908083838e5b838110156152cb5781810151838201526020016152b3565b50505050905090810190601f1680156152f85780820380516001836020036101000a031916815260200191505b509250505060206040518083038186803b15801561531557600080fd5b505af4158015615329573d6000803e3d6000fd5b505050506040513d602081101561533f57600080fd5b50516040805160e060020a63ffffffff8616028152600481019390935260248301919091526affffffffffffffffffffff198a16604483015260648201899052608482018890525160a4808301926020929190829003018186803b1580156153a657600080fd5b505af41580156153ba573d6000803e3d6000fd5b505050506040513d60208110156153d057600080fd5b50516003830154604080517fd78d18ea0000000000000000000000000000000000000000000000000000000081526004810192909252602482018390525191925073__ArbProtocol___________________________9163d78d18ea91604480820192602092909190829003018186803b15801561544d57600080fd5b505af4158015615461573d6000803e3d6000fd5b505050506040513d602081101561547757600080fd5b5051600390920191909155505b847f983eec3b16cf85cbe329d288a7863b78dc7d1c9a0d690b21434d4cc1f73539e58386868560405180858152602001846affffffffffffffffffffff19166affffffffffffffffffffff1916815260200183815260200180602001828103825283818151815260200191508051906020019080838360005b838110156155155781810151838201526020016154fd565b50505050905090810190601f1680156155425780820380516001836020036101000a031916815260200191505b509550505050505060405180910390a25050505050565b60009081526003602081905260408220828155600181018390556002810183905590810182905560048101829055600581018290556006810182905560078101805473ffffffffffffffffffffffffffffffffffffffff19908116909155600882018054821690556009820180549091169055600a810191909155600b0180546dffffffffffffffffffffffffffff19169055565b6000828211156155fd57600080fd5b5090039056fe4368616c6c656e67657220646964206e6f74206861766520656e6f75676820657363726f776564507265636f6e646974696f6e20616e6420617373657274696f6e20646f206e6f74206d617463682070656e64696e6720617373657274696f6e417373657274696f6e206d7573742062652070656e64696e6720746f20696e697469617465206368616c6c656e676553656c65637465642063757272656e6379206973206e6f7420616e2061636365707465642074797065417373657274696f6e206973207374696c6c2070656e64696e67206368616c6c656e6765564d20646f6573206e6f74206861766520617373657274696f6e2070656e64696e67507265636f6e646974696f6e3a206e6f742077697468696e2074696d6520626f756e64734368616c6c656e6765207761732063726561746564206279206173736572746572507265636f6e646974696f6e3a20696e626f7820646f6573206e6f74206d6174636856616c696461746f7220646f6573206e6f74206861766520726571756972656420657363726f77507265636f6e646974696f6e3a207374617465206861736820646f6573206e6f74206d617463684368616c6c656e676520646964206e6f7420636f6d65206265666f726520646561646c696e6543616e206f6e6c792064697370757461626c65206173736572742066726f6d2077616974696e67207374617465a165627a7a72305820742d9a6e77b4e623b36a8d3f053b102fc6f6aae2ca78393eeb3ae8ead72b5ba30029",
  "source": "/*\n * Copyright 2019, Offchain Labs, Inc.\n *\n * Licensed under the Apache License, Version 2.0 (the \"License\");\n * you may not use this file except in compliance with the License.\n * You may obtain a copy of the License at\n *\n *    http://www.apache.org/licenses/LICENSE-2.0\n *\n * Unless required by applicable law or agreed to in writing, software\n * distributed under the License is distributed on an \"AS IS\" BASIS,\n * WITHOUT WARRANTIES OR CONDITIONS OF ANY KIND, either express or implied.\n * See the License for the specific language governing permissions and\n * limitations under the License.\n */\n\npragma solidity ^0.5.3;\n\nimport \"./ArbProtocol.sol\";\nimport \"./ArbValue.sol\";\nimport \"./IChallengeManager.sol\";\nimport \"./ArbBalanceTracker.sol\";\nimport \"./MerkleLib.sol\";\n\nimport \"openzeppelin-solidity/contracts/ownership/Ownable.sol\";\n\ncontract VMTracker is Ownable {\n\tusing SafeMath for uint256;\n    using BytesLib for bytes;\n\n    event MessageDelivered(\n        bytes32 indexed vmId,\n        bytes32 destination,\n        bytes21 tokenType,\n        uint256 value,\n        bytes data\n    );\n\n    event VMCreated(\n        bytes32 indexed vmId,\n        uint32 _gracePeriod,\n        uint128 _escrowRequired,\n        address _escrowCurrency,\n        uint32 _maxExecutionSteps,\n        bytes32 _vmState,\n        uint16 _challengeManagerNum,\n        address _owner,\n        address[] validators\n    );\n\n    event PendingUnanimousAssertion (\n        bytes32 indexed vmId,\n        bytes32 unanHash,\n        uint64 sequenceNum\n    );\n\n    event ConfirmedUnanimousAssertion (\n        bytes32 indexed vmId,\n        uint64 sequenceNum\n    );\n\n    event FinalizedUnanimousAssertion(\n        bytes32 indexed vmId,\n        bytes32 unanHash\n    );\n\n    // fields:\n    // beforeHash\n    // beforeInbox\n    // afterHash\n\n    event PendingDisputableAssertion (\n        bytes32 indexed vmId,\n        bytes32[3] fields,\n        address asserter,\n        uint64[2] timeBounds,\n        bytes21[] tokenTypes,\n        uint32 numSteps,\n        bytes32 lastMessageHash,\n        bytes32 logsAccHash,\n        uint256[] amounts\n    );\n\n    event ConfirmedDisputableAssertion(\n        bytes32 indexed vmId,\n        bytes32 newState,\n        bytes32 logsAccHash\n    );\n\n    enum VMState {\n        Waiting,\n        PendingAssertion,\n        PendingUnanimous\n    }\n\n    struct VM {\n        bytes32 machineHash;\n        bytes32 pendingHash; // Lock pending and confirm asserts together\n        bytes32 inboxHash;\n        bytes32 pendingMessages;\n        bytes32 validatorRoot;\n        bytes32 exitAddress;\n        bytes32 terminateAddress;\n        address owner;\n        address disputableAsserter;\n        address currencyType;\n        uint128 escrowRequired;\n        uint64 deadline;\n        uint64 sequenceNum;\n        uint32 gracePeriod;\n        uint32 maxExecutionSteps;\n        uint16 validatorCount;\n        uint16 challengeManagersNum;\n        VMState state;\n        bool inChallenge;\n        mapping(address => uint256) validatorBalances;\n    }\n\n    bytes32 constant MACHINE_HALT_HASH = bytes32(0);\n    bytes32 constant MACHINE_ERROR_HASH = bytes32(uint(1));\n\n    IChallengeManager[] challengeManagers;\n    ArbBalanceTracker arbBalanceTracker;\n    mapping(bytes32 => VM) vms;\n    mapping(address => bool) acceptedCurrencies;\n\n    constructor(address _balanceTrackerAddress) public {\n        arbBalanceTracker = ArbBalanceTracker(_balanceTrackerAddress);\n\n        acceptedCurrencies[address(0)] = true;\n    }\n\n    function addChallengeManager(IChallengeManager _challengeManager) onlyOwner public {\n        challengeManagers.push(_challengeManager);\n    }\n\n    function withinTimeBounds(uint64[2] memory _timeBounds) public view returns (bool) {\n        return block.number >= _timeBounds[0] && block.number <= _timeBounds[1];\n    }\n\n    function _resetDeadline(VM storage _vm) internal {\n        _vm.deadline = uint64(block.number) + _vm.gracePeriod;\n    }\n\n    function _acceptAssertion(\n        bytes32 _vmId,\n        bytes32 _afterHash,\n        bytes21[] memory _tokenTypes,\n        bytes memory _messageData,\n        uint16[] memory _tokenTypeNum,\n        uint256[] memory _amounts,\n        bytes32[] memory _destinations\n    ) internal {\n        uint offset = 0;\n        bytes memory msgData;\n        VM storage vm = vms[_vmId];\n        for (uint i = 0; i < _amounts.length; i++) {\n            (offset, msgData) = ArbValue.get_next_valid_value(_messageData, offset);\n            _sendUnpaidMessage(\n                _destinations[i],\n                _tokenTypes[_tokenTypeNum[i]],\n                _amounts[i],\n                _vmId,\n                msgData\n            );\n        }\n\n        vm.machineHash = _afterHash;\n        vm.state = VMState.Waiting;\n\n        if (vm.pendingMessages != ArbValue.hashEmptyTuple()) {\n            vm.inboxHash = ArbProtocol.appendInboxMessages(vm.inboxHash, vm.pendingMessages);\n            vm.pendingMessages = ArbValue.hashEmptyTuple();\n        }\n\n        if (_afterHash == MACHINE_HALT_HASH) {\n            _shutdownVM(_vmId);\n        }\n    }\n\n\n\n    // fields\n    // _vmId\n    // _vmState\n    // _createHash\n\n    function createVm(\n        bytes32[3] memory _fields,\n        uint32 _gracePeriod,\n        uint32 _maxExecutionSteps,\n        uint16 _challengeManagerNum,\n        uint128 _escrowRequired,\n        address _escrowCurrency,\n        address _owner,\n        bytes memory _signatures\n    ) public {\n        require(_signatures.length / 65 < 2 ** 16, \"Too many validators\");\n        require(bytes32(bytes20(_fields[0])) != _fields[0], \"Invalid vmId\");\n        require(_challengeManagerNum < challengeManagers.length, \"Invalid challenge manager num\");\n        require(_escrowRequired > 0);\n        require(acceptedCurrencies[_escrowCurrency], \"Selected currency is not an accepted type\");\n\n        address[] memory assertKeys = ArbProtocol.recoverAddresses(_fields[2], _signatures);\n        require(_fields[2] == keccak256(abi.encodePacked(\n            _gracePeriod,\n            _escrowRequired,\n            _escrowCurrency,\n            _maxExecutionSteps,\n            _fields[1],\n            _challengeManagerNum,\n            _owner,\n            assertKeys\n        )), \"Create data incorrect\");\n\n        for (uint i = 0; i < assertKeys.length; i++) {\n            arbBalanceTracker.ownerRemoveToken(\n                bytes32(bytes20(assertKeys[i])),\n                _escrowCurrency,\n                _escrowRequired\n            );\n        }\n\n        VM storage vm = vms[_fields[0]];\n\n        // Machine state\n        vm.machineHash = _fields[1];\n        vm.inboxHash = ArbValue.hashEmptyTuple();\n        vm.pendingMessages = ArbValue.hashEmptyTuple();\n        vm.challengeManagersNum = _challengeManagerNum;\n        vm.state = VMState.Waiting;\n        vm.pendingHash = 0;\n\n        // Validator options\n        vm.validatorRoot = MerkleLib.generateAddressRoot(assertKeys);\n        vm.validatorCount = uint16(assertKeys.length);\n        vm.escrowRequired = _escrowRequired;\n        vm.currencyType = _escrowCurrency;\n        vm.owner = _owner;\n        vm.gracePeriod = _gracePeriod;\n        vm.maxExecutionSteps = _maxExecutionSteps;\n\n        for (uint i = 0; i < assertKeys.length; i++) {\n            vm.validatorBalances[assertKeys[i]] = _escrowRequired;\n        }\n\n        emit VMCreated(\n            _fields[0],\n            _gracePeriod,\n            _escrowRequired,\n            _escrowCurrency,\n            _maxExecutionSteps,\n            _fields[1],\n            _challengeManagerNum,\n            _owner,\n            assertKeys\n        );\n    }\n\n    function _shutdownVM(bytes32 _vmId) private {\n        // TODO: transfer all owned funds to halt address\n        delete vms[_vmId];\n    }\n\n    function ownerShutdown(bytes32 _vmId) external {\n        VM storage vm = vms[_vmId];\n        require(msg.sender == vm.owner, \"Only owner can shutdown the VM\");\n        _shutdownVM(_vmId);\n    }\n\n    function sendMessage(bytes32 _destination, bytes21 _tokenType, uint256 _amount, bytes memory _data) public {\n        _sendUnpaidMessage(\n            _destination,\n            _tokenType,\n            _amount,\n            bytes32(uint256(uint160(msg.sender))),\n            _data\n        );\n    }\n\n    function sendEthMessage(bytes32 _destination, bytes memory _data) public payable {\n        arbBalanceTracker.depositEth.value(msg.value)(_destination);\n        _deliverMessage(\n            _destination,\n            bytes21(0),\n            msg.value,\n            bytes32(uint256(uint160(msg.sender))),\n            _data\n        );\n    }\n\n    function _sendUnpaidMessage(bytes32 _destination, bytes21 _tokenType, uint256 _value, bytes32 _sender, bytes memory _data) internal {\n        if(_tokenType[20] == 0x01) {\n            arbBalanceTracker.transferNFT(_sender, _destination, address(bytes20(_tokenType)), _value);\n        } else {\n            arbBalanceTracker.transferToken(_sender, _destination, address(bytes20(_tokenType)), _value);\n        }\n        _deliverMessage(_destination, _tokenType, _value, _sender, _data);\n    }\n\n    function _deliverMessage(bytes32 _destination, bytes21 _tokenType, uint256 _value, bytes32 _sender, bytes memory _data) internal {\n        if (bytes32(bytes20(_destination)) != _destination) {\n            VM storage vm = vms[_destination];\n            bytes32 messageHash = ArbProtocol.generateSentMessageHash(\n                _destination,\n                ArbValue.deserialize_value_hash(_data),\n                _tokenType,\n                _value,\n                _sender\n            );\n            vm.pendingMessages = ArbProtocol.appendInboxPendingMessage(\n                vm.pendingMessages,\n                messageHash\n            );\n        }\n\n        emit MessageDelivered(\n            _destination,\n            _sender,\n            _tokenType,\n            _value,\n            _data\n        );\n    }\n\n    function _cancelCurrentState(VM storage vm) internal {\n        if (vm.state != VMState.Waiting) {\n            require(block.number <= vm.deadline);\n        }\n\n        if (vm.state == VMState.PendingAssertion) {\n            // If there is a pending disputable assertion, cancel it\n            vm.validatorBalances[vm.disputableAsserter] = vm.validatorBalances[vm.disputableAsserter].add(vm.escrowRequired);\n        }\n    }\n\n    struct finalizedUnanimousAssertData {\n        bytes32 vmId;\n        bytes32 afterHash;\n        bytes32 newInbox;\n        uint64[2] timeBounds;\n        bytes21[] tokenTypes;\n        bytes messageData;\n        uint16[] messageTokenNum;\n        uint256[] messageAmount;\n        bytes32[] messageDestination;\n        bytes32 logsAccHash;\n        bytes signatures;\n    }\n\n    function finalizedUnanimousAssert(\n        bytes32 _vmId,\n        bytes32 _afterHash,\n        bytes32 _newInbox,\n        uint64[2] memory _timeBounds,\n        bytes21[] memory _tokenTypes,\n        bytes memory _messageData,\n        uint16[] memory _messageTokenNum,\n        uint256[] memory _messageAmount,\n        bytes32[] memory _messageDestination,\n        bytes32 _logsAccHash,\n        bytes memory _signatures\n    ) public {\n        _finalizedUnanimousAssert(finalizedUnanimousAssertData(\n            _vmId,\n            _afterHash,\n            _newInbox,\n            _timeBounds,\n            _tokenTypes,\n            _messageData,\n            _messageTokenNum,\n            _messageAmount,\n            _messageDestination,\n            _logsAccHash,\n            _signatures\n        ));\n    }\n\n    function _finalizedUnanimousAssert(finalizedUnanimousAssertData memory data) internal {\n        VM storage vm = vms[data.vmId];\n        require(vm.machineHash != MACHINE_HALT_HASH);\n        require(withinTimeBounds(data.timeBounds), \"Precondition: not within time bounds\");\n        bytes32 unanHash = keccak256(abi.encodePacked(\n            data.vmId,\n            keccak256(abi.encodePacked(\n                keccak256(abi.encodePacked(\n                    data.newInbox,\n                    data.afterHash,\n                    data.messageData,\n                    data.messageDestination\n                )),\n                data.timeBounds,\n                vm.machineHash,\n                vm.inboxHash,\n                data.tokenTypes,\n                data.messageTokenNum,\n                data.messageAmount\n            )),\n            data.logsAccHash\n        ));\n        require(MerkleLib.generateAddressRoot(\n            ArbProtocol.recoverAddresses(unanHash, data.signatures)\n        ) == vm.validatorRoot, \"Validator signatures don't match\");\n\n        _cancelCurrentState(vm);\n        vm.state = VMState.Waiting;\n        vm.inboxHash = data.newInbox;\n        _acceptAssertion(\n            data.vmId,\n            data.afterHash,\n            data.tokenTypes,\n            data.messageData,\n            data.messageTokenNum,\n            data.messageAmount,\n            data.messageDestination\n        );\n\n        emit FinalizedUnanimousAssertion(\n            data.vmId,\n            unanHash\n        );\n    }\n\n    function pendingUnanimousAssert(\n        bytes32 _vmId,\n        bytes32 _unanRest,\n        uint64[2] memory _timeBounds,\n        bytes21[] memory _tokenTypes,\n        uint16[] memory _messageTokenNum,\n        uint256[] memory _messageAmount,\n        uint64 _sequenceNum,\n        bytes32 _logsAccHash,\n        bytes memory _signatures\n    ) public {\n        VM storage vm = vms[_vmId];\n        require(withinTimeBounds(_timeBounds), \"Precondition: not within time bounds\");\n        require(vm.machineHash != MACHINE_HALT_HASH);\n        bytes32 unanHash = keccak256(abi.encodePacked(\n            _vmId,\n            keccak256(abi.encodePacked(\n                _unanRest,\n                _timeBounds,\n                vm.machineHash,\n                vm.inboxHash,\n                _tokenTypes,\n                _messageTokenNum,\n                _messageAmount,\n                _sequenceNum\n            )),\n            _logsAccHash\n        ));\n        require(MerkleLib.generateAddressRoot(\n            ArbProtocol.recoverAddresses(unanHash, _signatures)\n        ) == vm.validatorRoot, \"Validator signatures don't match\");\n\n        if (vm.state == VMState.PendingUnanimous) {\n            require(_sequenceNum > vm.sequenceNum);\n        }\n\n        arbBalanceTracker.hasFunds(\n            _vmId,\n            _tokenTypes,\n            ArbProtocol.calculateBeforeValues(\n                _tokenTypes,\n                _messageTokenNum,\n                _messageAmount\n            )\n        );\n\n        _cancelCurrentState(vm);\n        _resetDeadline(vm);\n\n        vm.state = VMState.PendingUnanimous;\n        vm.sequenceNum = _sequenceNum;\n        vm.pendingHash = keccak256(abi.encodePacked(\n            _tokenTypes,\n            _messageTokenNum,\n            _messageAmount,\n            _unanRest\n        ));\n\n        emit PendingUnanimousAssertion(\n            _vmId,\n            unanHash,\n            _sequenceNum\n        );\n    }\n\n    function ConfirmUnanimousAsserted(\n        bytes32 _vmId,\n        bytes32 _afterHash,\n        bytes32 _newInbox,\n        bytes21[] memory _tokenTypes,\n        bytes memory _messageData,\n        uint16[] memory _messageTokenNum,\n        uint256[] memory _messageAmount,\n        bytes32[] memory _messageDestination\n    ) public {\n        VM storage vm = vms[_vmId];\n        require(vm.state == VMState.PendingUnanimous);\n        require(block.number > vm.deadline);\n        require(vm.pendingHash == keccak256(abi.encodePacked(\n            _tokenTypes,\n            _messageTokenNum,\n            _messageAmount,\n            keccak256(abi.encodePacked(\n                _newInbox,\n                _afterHash,\n                _messageData,\n                _messageDestination\n            ))\n        )));\n\n        vm.inboxHash = _newInbox;\n        _acceptAssertion(\n            _vmId,\n            _afterHash,\n            _tokenTypes,\n            _messageData,\n            _messageTokenNum,\n            _messageAmount,\n            _messageDestination\n        );\n\n        emit ConfirmedUnanimousAssertion(\n            _vmId,\n            vm.sequenceNum\n        );\n    }\n\n    struct PendingDisputableAssertData {\n        bytes32 vmId;\n        bytes32 beforeHash;\n        bytes32 beforeInbox;\n        bytes32 afterHash;\n        bytes32 logsAccHash;\n        uint32 numSteps;\n        uint64[2] timeBounds;\n        bytes21[] tokenTypes;\n        bytes32[] messageDataHash;\n        uint16[] messageTokenNum;\n        uint256[] msgAmount;\n        bytes32[] msgDestination;\n    }\n\n    // fields:\n    // _vmId\n    // _beforeHash\n    // _beforeInbox\n    // _afterHash\n    // _logsAccHash\n\n    function pendingDisputableAssert(\n        bytes32[5] memory _fields,\n        uint32 _numSteps,\n        uint64[2] memory timeBounds,\n        bytes21[] memory _tokenTypes,\n        bytes32[] memory _messageDataHash,\n        uint16[] memory _messageTokenNum,\n        uint256[] memory _msgAmount,\n        bytes32[] memory _msgDestination\n    ) public {\n        return _pendingDisputableAssert(PendingDisputableAssertData(\n            _fields[0],\n            _fields[1],\n            _fields[2],\n            _fields[3],\n            _fields[4],\n            _numSteps,\n            timeBounds,\n            _tokenTypes,\n            _messageDataHash,\n            _messageTokenNum,\n            _msgAmount,\n            _msgDestination\n        ));\n    }\n\n    function _pendingDisputableAssert(PendingDisputableAssertData memory _data) internal {\n        VM storage vm = vms[_data.vmId];\n        require(vm.state == VMState.Waiting, \"Can only disputable assert from waiting state\");\n        require(vm.machineHash != MACHINE_HALT_HASH && vm.machineHash != MACHINE_ERROR_HASH);\n        require(!vm.inChallenge);\n        require(vm.escrowRequired <= vm.validatorBalances[msg.sender], \"Validator does not have required escrow\");\n        require(_data.numSteps <= vm.maxExecutionSteps, \"Tried to execute too many steps\");\n        require(withinTimeBounds(_data.timeBounds), \"Precondition: not within time bounds\");\n        require(_data.beforeHash == vm.machineHash, \"Precondition: state hash does not match\");\n        require(\n            _data.beforeInbox == vm.inboxHash ||\n            _data.beforeInbox == ArbProtocol.appendInboxMessages(vm.inboxHash, vm.pendingMessages)\n        , \"Precondition: inbox does not match\");\n\n        uint256[] memory beforeBalances = ArbProtocol.calculateBeforeValues(\n            _data.tokenTypes,\n            _data.messageTokenNum,\n            _data.msgAmount\n        );\n\n        arbBalanceTracker.hasFunds(\n            _data.vmId,\n            _data.tokenTypes,\n            beforeBalances\n        );\n        _resetDeadline(vm);\n\n        bytes32 lastMessageHash = ArbProtocol.generateLastMessageHashStub(\n            _data.tokenTypes,\n            _data.messageDataHash,\n            _data.messageTokenNum,\n            _data.msgAmount,\n            _data.msgDestination\n        );\n\n        vm.pendingHash = keccak256(abi.encodePacked(\n            ArbProtocol.generatePreconditionHash(\n                _data.beforeHash,\n                _data.timeBounds,\n                _data.beforeInbox,\n                _data.tokenTypes,\n                beforeBalances\n            ),\n            ArbProtocol.generateAssertionHash(\n                _data.afterHash,\n                _data.numSteps,\n                0x00,\n                lastMessageHash,\n                0x00,\n                _data.logsAccHash,\n                beforeBalances\n            )\n        ));\n        vm.validatorBalances[msg.sender] = vm.validatorBalances[msg.sender].sub(vm.escrowRequired);\n        vm.disputableAsserter = msg.sender;\n        vm.state = VMState.PendingAssertion;\n\n        emit PendingDisputableAssertion(\n            _data.vmId,\n            [_data.beforeHash, _data.beforeInbox, _data.afterHash],\n            msg.sender,\n            _data.timeBounds,\n            _data.tokenTypes,\n            _data.numSteps,\n            lastMessageHash,\n            _data.logsAccHash,\n            beforeBalances\n        );\n    }\n\n    // fields:\n    // _vmId\n    // _preconditionHash\n    // _afterHash\n    // _logsAccHash\n\n    struct confirmDisputableAssertedData{\n        bytes32 vmId;\n        bytes32 preconditionHash;\n        bytes32 afterHash;\n        uint32  numSteps;\n        bytes21[] tokenTypes;\n        bytes messageData;\n        uint16[] messageTokenNums;\n        uint256[] messageAmounts;\n        bytes32[] messageDestination;\n        bytes32 logsAccHash;\n    }\n\n    function confirmDisputableAsserted(\n        bytes32 _vmId,\n        bytes32 _preconditionHash,\n        bytes32 _afterHash,\n        uint32 _numSteps,\n        bytes21[] memory _tokenTypes,\n        bytes memory _messageData,\n        uint16[] memory _messageTokenNums,\n        uint256[] memory _messageAmounts,\n        bytes32[] memory _messageDestination,\n        bytes32 _logsAccHash\n    ) public {\n        return _confirmDisputableAsserted(confirmDisputableAssertedData(\n            _vmId,\n            _preconditionHash,\n            _afterHash,\n            _numSteps,\n            _tokenTypes,\n            _messageData,\n            _messageTokenNums,\n            _messageAmounts,\n            _messageDestination,\n            _logsAccHash\n        ));\n    }\n\n    function _confirmDisputableAsserted(confirmDisputableAssertedData memory _data) internal {\n        VM storage vm = vms[_data.vmId];\n        require(vm.state == VMState.PendingAssertion, \"VM does not have assertion pending\");\n        require(block.number > vm.deadline, \"Assertion is still pending challenge\");\n        require(\n            keccak256(abi.encodePacked(\n                _data.preconditionHash,\n                ArbProtocol.generateAssertionHash(\n                    _data.afterHash,\n                    _data.numSteps,\n                    0x00,\n                    ArbProtocol.generateLastMessageHash(\n                        _data.tokenTypes,\n                        _data.messageData,\n                        _data.messageTokenNums,\n                        _data.messageAmounts,\n                        _data.messageDestination\n                    ),\n                    0x00,\n                    _data.logsAccHash,\n                    ArbProtocol.calculateBeforeValues(\n                        _data.tokenTypes,\n                        _data.messageTokenNums,\n                        _data.messageAmounts\n                    )\n                )\n            )) == vm.pendingHash,\n            \"Precondition and assertion do not match pending assertion\"\n        );\n        vm.validatorBalances[vm.disputableAsserter] = vm.validatorBalances[vm.disputableAsserter].add(vm.escrowRequired);\n        _acceptAssertion(\n            _data.vmId,\n            _data.afterHash,\n            _data.tokenTypes,\n            _data.messageData,\n            _data.messageTokenNums,\n            _data.messageAmounts,\n            _data.messageDestination\n        );\n\n        emit ConfirmedDisputableAssertion(\n            _data.vmId,\n            _data.afterHash,\n            _data.logsAccHash\n        );\n    }\n\n    event InitiatedChallenge(\n        bytes32 indexed vmId,\n        address challenger\n    );\n\n    // fields\n    // _vmId\n    // _assertionHash\n\n    function initiateChallenge(\n        bytes32 _vmId,\n        bytes32 _assertPreHash\n    ) public {\n        VM storage vm = vms[_vmId];\n        require(msg.sender != vm.disputableAsserter, \"Challenge was created by asserter\");\n        require(block.number <= vm.deadline, \"Challenge did not come before deadline\");\n        require(vm.state == VMState.PendingAssertion, \"Assertion must be pending to initiate challenge\");\n        require(vm.escrowRequired <= vm.validatorBalances[msg.sender], \"Challenger did not have enough escrowed\");\n\n        require(\n            _assertPreHash\n            == vm.pendingHash,\n            \"Precondition and assertion do not match pending assertion\"\n        );\n\n        vm.validatorBalances[msg.sender] = vm.validatorBalances[msg.sender].sub(vm.escrowRequired);\n        vm.pendingHash = 0;\n        vm.state = VMState.Waiting;\n        vm.inChallenge = true;\n\n        challengeManagers[vm.challengeManagersNum].initiateChallenge(\n            _vmId,\n            [vm.disputableAsserter, msg.sender],\n            [vm.escrowRequired, vm.escrowRequired],\n            vm.gracePeriod,\n            _assertPreHash\n        );\n        emit InitiatedChallenge(\n            _vmId,\n            msg.sender\n        );\n    }\n\n\n    function completeChallenge(bytes32 _vmId, address[2] calldata _players, uint128[2] calldata _rewards) external {\n        VM storage vm = vms[_vmId];\n        require(msg.sender == address(challengeManagers[vm.challengeManagersNum]));\n        require(vm.inChallenge);\n\n        vm.inChallenge = false;\n        vm.validatorBalances[_players[0]] = vm.validatorBalances[_players[0]].add(_rewards[0]);\n        vm.validatorBalances[_players[1]] = vm.validatorBalances[_players[1]].add(_rewards[1]);\n    }\n}\n",
  "sourcePath": "/Users/ughe/workspace/prs/psbk/compose/arb-ethbridge/contracts/VMTracker.sol",
  "compiler": {
    "name": "solc",
    "version": "0.5.3+commit.10d17f24.Emscripten.clang"
  },
  "schemaVersion": "3.0.11",
  "updatedAt": "2019-07-30T18:24:10.044Z",
  "devdoc": {
    "methods": {
      "isOwner()": {
        "return": "true if `msg.sender` is the owner of the contract."
      },
      "owner()": {
        "return": "the address of the owner."
      },
      "renounceOwnership()": {
        "details": "Allows the current owner to relinquish control of the contract. It will not be possible to call the functions with the `onlyOwner` modifier anymore."
      },
      "transferOwnership(address)": {
        "details": "Allows the current owner to transfer control of the contract to a newOwner.",
        "params": {
          "newOwner": "The address to transfer ownership to."
        }
      }
    }
  },
  "userdoc": {
    "methods": {
      "renounceOwnership()": {
        "notice": "Renouncing ownership will leave the contract without an owner, thereby removing any functionality that is only available to the owner."
      }
    }
  }
}