{
  "contractName": "VMTracker",
  "abi": [
    {
      "constant": false,
      "inputs": [],
      "name": "renounceOwnership",
      "outputs": [],
      "payable": false,
      "stateMutability": "nonpayable",
      "type": "function"
    },
    {
      "constant": true,
      "inputs": [],
      "name": "owner",
      "outputs": [
        {
          "name": "",
          "type": "address"
        }
      ],
      "payable": false,
      "stateMutability": "view",
      "type": "function"
    },
    {
      "constant": true,
      "inputs": [],
      "name": "isOwner",
      "outputs": [
        {
          "name": "",
          "type": "bool"
        }
      ],
      "payable": false,
      "stateMutability": "view",
      "type": "function"
    },
    {
      "constant": false,
      "inputs": [
        {
          "name": "newOwner",
          "type": "address"
        }
      ],
      "name": "transferOwnership",
      "outputs": [],
      "payable": false,
      "stateMutability": "nonpayable",
      "type": "function"
    },
    {
      "inputs": [
        {
          "name": "_balanceTrackerAddress",
          "type": "address"
        }
      ],
      "payable": false,
      "stateMutability": "nonpayable",
      "type": "constructor"
    },
    {
      "anonymous": false,
      "inputs": [
        {
          "indexed": true,
          "name": "vmId",
          "type": "bytes32"
        },
        {
          "indexed": false,
          "name": "destination",
          "type": "bytes32"
        },
        {
          "indexed": false,
          "name": "tokenType",
          "type": "bytes21"
        },
        {
          "indexed": false,
          "name": "value",
          "type": "uint256"
        },
        {
          "indexed": false,
          "name": "data",
          "type": "bytes"
        }
      ],
      "name": "MessageDelivered",
      "type": "event"
    },
    {
      "anonymous": false,
      "inputs": [
        {
          "indexed": false,
          "name": "_gracePeriod",
          "type": "uint32"
        },
        {
          "indexed": false,
          "name": "_escrowRequired",
          "type": "uint128"
        },
        {
          "indexed": false,
          "name": "_maxExecutionSteps",
          "type": "uint32"
        },
        {
          "indexed": false,
          "name": "_vmId",
          "type": "bytes32"
        },
        {
          "indexed": false,
          "name": "_vmState",
          "type": "bytes32"
        },
        {
          "indexed": false,
          "name": "_challengeManagerNum",
          "type": "uint16"
        },
        {
          "indexed": false,
          "name": "managers",
          "type": "address[]"
        }
      ],
      "name": "VMCreated",
      "type": "event"
    },
    {
      "anonymous": false,
      "inputs": [
        {
          "indexed": true,
          "name": "vmId",
          "type": "bytes32"
        },
        {
          "indexed": false,
          "name": "unanHash",
          "type": "bytes32"
        },
        {
          "indexed": false,
          "name": "sequenceNum",
          "type": "uint64"
        }
      ],
      "name": "ProposedUnanimousAssertion",
      "type": "event"
    },
    {
      "anonymous": false,
      "inputs": [
        {
          "indexed": true,
          "name": "vmId",
          "type": "bytes32"
        },
        {
          "indexed": false,
          "name": "sequenceNum",
          "type": "uint64"
        }
      ],
      "name": "ConfirmedUnanimousAssertion",
      "type": "event"
    },
    {
      "anonymous": false,
      "inputs": [
        {
          "indexed": true,
          "name": "vmId",
          "type": "bytes32"
        },
        {
          "indexed": false,
          "name": "unanHash",
          "type": "bytes32"
        }
      ],
      "name": "FinalUnanimousAssertion",
      "type": "event"
    },
    {
      "anonymous": false,
      "inputs": [
        {
          "indexed": true,
          "name": "vmId",
          "type": "bytes32"
        },
        {
          "indexed": false,
          "name": "fields",
          "type": "bytes32[3]"
        },
        {
          "indexed": false,
          "name": "asserter",
          "type": "address"
        },
        {
          "indexed": false,
          "name": "timeBounds",
          "type": "uint64[2]"
        },
        {
          "indexed": false,
          "name": "tokenTypes",
          "type": "bytes21[]"
        },
        {
          "indexed": false,
          "name": "numSteps",
          "type": "uint32"
        },
        {
          "indexed": false,
          "name": "lastMessageHash",
          "type": "bytes32"
        },
        {
          "indexed": false,
          "name": "logsHash",
          "type": "bytes32"
        },
        {
          "indexed": false,
          "name": "amounts",
          "type": "uint256[]"
        }
      ],
      "name": "DisputableAssertion",
      "type": "event"
    },
    {
      "anonymous": false,
      "inputs": [
        {
          "indexed": true,
          "name": "vmId",
          "type": "bytes32"
        },
        {
          "indexed": false,
          "name": "newState",
          "type": "bytes32"
        }
      ],
      "name": "ConfirmedAssertion",
      "type": "event"
    },
    {
      "anonymous": false,
      "inputs": [
        {
          "indexed": true,
          "name": "vmId",
          "type": "bytes32"
        },
        {
          "indexed": false,
          "name": "challenger",
          "type": "address"
        }
      ],
      "name": "InitiatedChallenge",
      "type": "event"
    },
    {
      "anonymous": false,
      "inputs": [
        {
          "indexed": true,
          "name": "previousOwner",
          "type": "address"
        },
        {
          "indexed": true,
          "name": "newOwner",
          "type": "address"
        }
      ],
      "name": "OwnershipTransferred",
      "type": "event"
    },
    {
      "constant": false,
      "inputs": [
        {
          "name": "_challengeManager",
          "type": "address"
        }
      ],
      "name": "addChallengeManager",
      "outputs": [],
      "payable": false,
      "stateMutability": "nonpayable",
      "type": "function"
    },
    {
      "constant": true,
      "inputs": [
        {
          "name": "_timeBounds",
          "type": "uint64[2]"
        }
      ],
      "name": "withinTimeBounds",
      "outputs": [
        {
          "name": "",
          "type": "bool"
        }
      ],
      "payable": false,
      "stateMutability": "view",
      "type": "function"
    },
    {
      "constant": false,
      "inputs": [
        {
          "name": "_vmId",
          "type": "bytes32"
        },
        {
          "name": "_vmState",
          "type": "bytes32"
        },
        {
          "name": "_createHash",
          "type": "bytes32"
        },
        {
          "name": "_gracePeriod",
          "type": "uint32"
        },
        {
          "name": "_maxExecutionSteps",
          "type": "uint32"
        },
        {
          "name": "_challengeManagerNum",
          "type": "uint16"
        },
        {
          "name": "_escrowRequired",
          "type": "uint128"
        },
        {
          "name": "_signatures",
          "type": "bytes"
        }
      ],
      "name": "createVm",
      "outputs": [],
      "payable": false,
      "stateMutability": "nonpayable",
      "type": "function"
    },
    {
      "constant": false,
      "inputs": [
        {
          "name": "_destination",
          "type": "bytes32"
        },
        {
          "name": "_tokenType",
          "type": "bytes21"
        },
        {
          "name": "_amount",
          "type": "uint256"
        },
        {
          "name": "_data",
          "type": "bytes"
        }
      ],
      "name": "sendMessage",
      "outputs": [],
      "payable": false,
      "stateMutability": "nonpayable",
      "type": "function"
    },
    {
      "constant": false,
      "inputs": [
        {
          "name": "_destination",
          "type": "bytes32"
        },
        {
          "name": "_data",
          "type": "bytes"
        }
      ],
      "name": "sendEthMessage",
      "outputs": [],
      "payable": true,
      "stateMutability": "payable",
      "type": "function"
    },
    {
      "constant": false,
      "inputs": [
        {
          "name": "_vmId",
          "type": "bytes32"
        },
        {
          "name": "_afterHash",
          "type": "bytes32"
        },
        {
          "name": "_newInbox",
          "type": "bytes32"
        },
        {
          "name": "_logsHash",
          "type": "bytes32"
        },
        {
          "name": "_timeBounds",
          "type": "uint64[2]"
        },
        {
          "name": "_tokenTypes",
          "type": "bytes21[]"
        },
        {
          "name": "_messageData",
          "type": "bytes"
        },
        {
          "name": "_messageTokenNum",
          "type": "uint16[]"
        },
        {
          "name": "_messageAmount",
          "type": "uint256[]"
        },
        {
          "name": "_messageDestination",
          "type": "bytes32[]"
        },
        {
          "name": "_signatures",
          "type": "bytes"
        }
      ],
      "name": "unanimousAssert",
      "outputs": [],
      "payable": false,
      "stateMutability": "nonpayable",
      "type": "function"
    },
    {
      "constant": false,
      "inputs": [
        {
          "name": "_vmId",
          "type": "bytes32"
        },
        {
          "name": "_unanRest",
          "type": "bytes32"
        },
        {
          "name": "_sequenceNum",
          "type": "uint64"
        },
        {
          "name": "_timeBounds",
          "type": "uint64[2]"
        },
        {
          "name": "_tokenTypes",
          "type": "bytes21[]"
        },
        {
          "name": "_messageTokenNum",
          "type": "uint16[]"
        },
        {
          "name": "_messageAmount",
          "type": "uint256[]"
        },
        {
          "name": "_signatures",
          "type": "bytes"
        }
      ],
      "name": "proposeUnanimousAssert",
      "outputs": [],
      "payable": false,
      "stateMutability": "nonpayable",
      "type": "function"
    },
    {
      "constant": false,
      "inputs": [
        {
          "name": "_vmId",
          "type": "bytes32"
        },
        {
          "name": "_afterHash",
          "type": "bytes32"
        },
        {
          "name": "_logsHash",
          "type": "bytes32"
        },
        {
          "name": "_newInbox",
          "type": "bytes32"
        },
        {
          "name": "_tokenTypes",
          "type": "bytes21[]"
        },
        {
          "name": "_messageData",
          "type": "bytes"
        },
        {
          "name": "_messageTokenNum",
          "type": "uint16[]"
        },
        {
          "name": "_messageAmount",
          "type": "uint256[]"
        },
        {
          "name": "_messageDestination",
          "type": "bytes32[]"
        }
      ],
      "name": "ConfirmUnanimousAsserted",
      "outputs": [],
      "payable": false,
      "stateMutability": "nonpayable",
      "type": "function"
    },
    {
      "constant": false,
      "inputs": [
        {
          "name": "_fields",
          "type": "bytes32[5]"
        },
        {
          "name": "_asserterNum",
          "type": "uint16"
        },
        {
          "name": "_numSteps",
          "type": "uint32"
        },
        {
          "name": "timeBounds",
          "type": "uint64[2]"
        },
        {
          "name": "_asserterProof",
          "type": "bytes"
        },
        {
          "name": "_tokenTypes",
          "type": "bytes21[]"
        },
        {
          "name": "_messageDataHash",
          "type": "bytes32[]"
        },
        {
          "name": "_messageTokenNum",
          "type": "uint16[]"
        },
        {
          "name": "_msgAmount",
          "type": "uint256[]"
        },
        {
          "name": "_msgDestination",
          "type": "bytes32[]"
        }
      ],
      "name": "disputableAssert",
      "outputs": [],
      "payable": false,
      "stateMutability": "nonpayable",
      "type": "function"
    },
    {
      "constant": false,
      "inputs": [
        {
          "name": "_vmId",
          "type": "bytes32"
        },
        {
          "name": "_preconditionHash",
          "type": "bytes32"
        },
        {
          "name": "_afterHash",
          "type": "bytes32"
        },
        {
          "name": "_logsHash",
          "type": "bytes32"
        },
        {
          "name": "_asserterKey",
          "type": "address"
        },
        {
          "name": "_numSteps",
          "type": "uint32"
        },
        {
          "name": "_tokenTypes",
          "type": "bytes21[]"
        },
        {
          "name": "_messageData",
          "type": "bytes"
        },
        {
          "name": "_messageTokenNums",
          "type": "uint16[]"
        },
        {
          "name": "_messageAmounts",
          "type": "uint256[]"
        },
        {
          "name": "_messageDestination",
          "type": "bytes32[]"
        }
      ],
      "name": "confirmAsserted",
      "outputs": [],
      "payable": false,
      "stateMutability": "nonpayable",
      "type": "function"
    },
    {
      "constant": false,
      "inputs": [
        {
          "name": "_vmId",
          "type": "bytes32"
        },
        {
          "name": "_assertPreHash",
          "type": "bytes32"
        },
        {
          "name": "_asserterKey",
          "type": "address"
        },
        {
          "name": "_challengerNum",
          "type": "uint16"
        },
        {
          "name": "_challengerProof",
          "type": "bytes"
        }
      ],
      "name": "initiateChallenge",
      "outputs": [],
      "payable": false,
      "stateMutability": "nonpayable",
      "type": "function"
    },
    {
      "constant": false,
      "inputs": [
        {
          "name": "_vmId",
          "type": "bytes32"
        },
        {
          "name": "_playerNums",
          "type": "uint16[2]"
        },
        {
          "name": "_rewards",
          "type": "uint128[2]"
        }
      ],
      "name": "completeChallenge",
      "outputs": [],
      "payable": false,
      "stateMutability": "nonpayable",
      "type": "function"
    }
  ],
  "bytecode": "0x60806040523480156200001157600080fd5b5060405160208062005aba833981018060405260208110156200003357600080fd5b505160008054600160a060020a0319163317808255604051600160a060020a039190911691907f8be0079c531659141344cd1fd0a4f28419497f9722a3daafe3b4186f6b6457e0908290a360028054600160a060020a031916600160a060020a0392909216919091179055615a0c80620000ae6000396000f3fe6080604052600436106100f75760003560e060020a900480638da5cb5b1161008e578063c2482a971161005d578063c2482a9714611074578063d0b41b6c14611169578063f2fde38b1461143b578063fa3eebe61461146e576100f7565b80638da5cb5b14610f245780638f32d59b14610f555780639ce2fa8814610f6a578063a8932f7d14611040576100f7565b80634562238f116100ca5780634562238f1461055c5780636c94603a1461090d578063715018a614610c905780637d5d7b7714610ca5576100f7565b80632e6bf2e6146100fc57806334fc706e146101315780633cd8a3221461041e57806342c0787e146104f0575b600080fd5b34801561010857600080fd5b5061012f6004803603602081101561011f57600080fd5b5035600160a060020a0316611519565b005b34801561013d57600080fd5b5061012f600480360361016081101561015557600080fd5b813591602081013591604082013591606081013591600160a060020a036080830135169163ffffffff60a0820135169181019060e0810160c0820135602060020a8111156101a257600080fd5b8201836020820111156101b457600080fd5b803590602001918460208302840111602060020a831117156101d557600080fd5b9190808060200260200160405190810160405280939291908181526020018383602002808284376000920191909152509295949360208101935035915050602060020a81111561022457600080fd5b82018360208201111561023657600080fd5b803590602001918460018302840111602060020a8311171561025757600080fd5b91908080601f0160208091040260200160405190810160405280939291908181526020018383808284376000920191909152509295949360208101935035915050602060020a8111156102a957600080fd5b8201836020820111156102bb57600080fd5b803590602001918460208302840111602060020a831117156102dc57600080fd5b9190808060200260200160405190810160405280939291908181526020018383602002808284376000920191909152509295949360208101935035915050602060020a81111561032b57600080fd5b82018360208201111561033d57600080fd5b803590602001918460208302840111602060020a8311171561035e57600080fd5b9190808060200260200160405190810160405280939291908181526020018383602002808284376000920191909152509295949360208101935035915050602060020a8111156103ad57600080fd5b8201836020820111156103bf57600080fd5b803590602001918460208302840111602060020a831117156103e057600080fd5b91908080602002602001604051908101604052809392919081815260200183836020028082843760009201919091525092955061158a945050505050565b34801561042a57600080fd5b5061012f6004803603608081101561044157600080fd5b8135916affffffffffffffffffffff196020820135169160408201359190810190608081016060820135602060020a81111561047c57600080fd5b82018360208201111561048e57600080fd5b803590602001918460018302840111602060020a831117156104af57600080fd5b91908080601f0160208091040260200160405190810160405280939291908181526020018383808284376000920191909152509295506115fb945050505050565b3480156104fc57600080fd5b506105486004803603604081101561051357600080fd5b604080518082018252918301929181830191839060029083908390808284376000920191909152509194506116239350505050565b604080519115158252519081900360200190f35b34801561056857600080fd5b5061012f60048036036101e081101561058057600080fd5b810190808060a00190600580602002604051908101604052809291908260056020028082843760009201919091525050604080518082018252929561ffff8535169563ffffffff60208701351695919490935060808201929091810190600290839083908082843760009201919091525091949392602081019250359050602060020a81111561060f57600080fd5b82018360208201111561062157600080fd5b803590602001918460018302840111602060020a8311171561064257600080fd5b91908080601f0160208091040260200160405190810160405280939291908181526020018383808284376000920191909152509295949360208101935035915050602060020a81111561069457600080fd5b8201836020820111156106a657600080fd5b803590602001918460208302840111602060020a831117156106c757600080fd5b9190808060200260200160405190810160405280939291908181526020018383602002808284376000920191909152509295949360208101935035915050602060020a81111561071657600080fd5b82018360208201111561072857600080fd5b803590602001918460208302840111602060020a8311171561074957600080fd5b9190808060200260200160405190810160405280939291908181526020018383602002808284376000920191909152509295949360208101935035915050602060020a81111561079857600080fd5b8201836020820111156107aa57600080fd5b803590602001918460208302840111602060020a831117156107cb57600080fd5b9190808060200260200160405190810160405280939291908181526020018383602002808284376000920191909152509295949360208101935035915050602060020a81111561081a57600080fd5b82018360208201111561082c57600080fd5b803590602001918460208302840111602060020a8311171561084d57600080fd5b9190808060200260200160405190810160405280939291908181526020018383602002808284376000920191909152509295949360208101935035915050602060020a81111561089c57600080fd5b8201836020820111156108ae57600080fd5b803590602001918460208302840111602060020a831117156108cf57600080fd5b919080806020026020016040519081016040528093929190818152602001838360200280828437600092019190915250929550611655945050505050565b34801561091957600080fd5b5061012f600480360361018081101561093157600080fd5b6040805180820182528335936020810135938382013593606083013593918301929160c08301916080840190600290839083908082843760009201919091525091949392602081019250359050602060020a81111561098f57600080fd5b8201836020820111156109a157600080fd5b803590602001918460208302840111602060020a831117156109c257600080fd5b9190808060200260200160405190810160405280939291908181526020018383602002808284376000920191909152509295949360208101935035915050602060020a811115610a1157600080fd5b820183602082011115610a2357600080fd5b803590602001918460018302840111602060020a83111715610a4457600080fd5b91908080601f0160208091040260200160405190810160405280939291908181526020018383808284376000920191909152509295949360208101935035915050602060020a811115610a9657600080fd5b820183602082011115610aa857600080fd5b803590602001918460208302840111602060020a83111715610ac957600080fd5b9190808060200260200160405190810160405280939291908181526020018383602002808284376000920191909152509295949360208101935035915050602060020a811115610b1857600080fd5b820183602082011115610b2a57600080fd5b803590602001918460208302840111602060020a83111715610b4b57600080fd5b9190808060200260200160405190810160405280939291908181526020018383602002808284376000920191909152509295949360208101935035915050602060020a811115610b9a57600080fd5b820183602082011115610bac57600080fd5b803590602001918460208302840111602060020a83111715610bcd57600080fd5b9190808060200260200160405190810160405280939291908181526020018383602002808284376000920191909152509295949360208101935035915050602060020a811115610c1c57600080fd5b820183602082011115610c2e57600080fd5b803590602001918460018302840111602060020a83111715610c4f57600080fd5b91908080601f0160208091040260200160405190810160405280939291908181526020018383808284376000920191909152509295506116ef945050505050565b348015610c9c57600080fd5b5061012f611744565b348015610cb157600080fd5b5061012f6004803603610120811015610cc957600080fd5b60408051808201825283359360208101359367ffffffffffffffff8483013516939082019260a08301916060840190600290839083908082843760009201919091525091949392602081019250359050602060020a811115610d2a57600080fd5b820183602082011115610d3c57600080fd5b803590602001918460208302840111602060020a83111715610d5d57600080fd5b9190808060200260200160405190810160405280939291908181526020018383602002808284376000920191909152509295949360208101935035915050602060020a811115610dac57600080fd5b820183602082011115610dbe57600080fd5b803590602001918460208302840111602060020a83111715610ddf57600080fd5b9190808060200260200160405190810160405280939291908181526020018383602002808284376000920191909152509295949360208101935035915050602060020a811115610e2e57600080fd5b820183602082011115610e4057600080fd5b803590602001918460208302840111602060020a83111715610e6157600080fd5b9190808060200260200160405190810160405280939291908181526020018383602002808284376000920191909152509295949360208101935035915050602060020a811115610eb057600080fd5b820183602082011115610ec257600080fd5b803590602001918460018302840111602060020a83111715610ee357600080fd5b91908080601f0160208091040260200160405190810160405280939291908181526020018383808284376000920191909152509295506117ae945050505050565b348015610f3057600080fd5b50610f3961200a565b60408051600160a060020a039092168252519081900360200190f35b348015610f6157600080fd5b50610548612019565b348015610f7657600080fd5b5061012f600480360360a0811015610f8d57600080fd5b813591602081013591600160a060020a036040830135169161ffff6060820135169181019060a081016080820135602060020a811115610fcc57600080fd5b820183602082011115610fde57600080fd5b803590602001918460018302840111602060020a83111715610fff57600080fd5b91908080601f01602080910402602001604051908101604052809392919081815260200183838082843760009201919091525092955061202a945050505050565b34801561104c57600080fd5b5061012f600480360360a081101561106357600080fd5b508035906020810190606001612650565b34801561108057600080fd5b5061012f600480360361010081101561109857600080fd5b81359160208101359160408201359163ffffffff606082013581169260808301359091169161ffff60a082013516916001608060020a0360c0830135169190810190610100810160e0820135602060020a8111156110f557600080fd5b82018360208201111561110757600080fd5b803590602001918460018302840111602060020a8311171561112857600080fd5b91908080601f01602080910402602001604051908101604052809392919081815260200183838082843760009201919091525092955061277b945050505050565b34801561117557600080fd5b5061012f600480360361012081101561118d57600080fd5b81359160208101359160408201359160608101359181019060a081016080820135602060020a8111156111bf57600080fd5b8201836020820111156111d157600080fd5b803590602001918460208302840111602060020a831117156111f257600080fd5b9190808060200260200160405190810160405280939291908181526020018383602002808284376000920191909152509295949360208101935035915050602060020a81111561124157600080fd5b82018360208201111561125357600080fd5b803590602001918460018302840111602060020a8311171561127457600080fd5b91908080601f0160208091040260200160405190810160405280939291908181526020018383808284376000920191909152509295949360208101935035915050602060020a8111156112c657600080fd5b8201836020820111156112d857600080fd5b803590602001918460208302840111602060020a831117156112f957600080fd5b9190808060200260200160405190810160405280939291908181526020018383602002808284376000920191909152509295949360208101935035915050602060020a81111561134857600080fd5b82018360208201111561135a57600080fd5b803590602001918460208302840111602060020a8311171561137b57600080fd5b9190808060200260200160405190810160405280939291908181526020018383602002808284376000920191909152509295949360208101935035915050602060020a8111156113ca57600080fd5b8201836020820111156113dc57600080fd5b803590602001918460208302840111602060020a831117156113fd57600080fd5b919080806020026020016040519081016040528093929190818152602001838360200280828437600092019190915250929550612f2e945050505050565b34801561144757600080fd5b5061012f6004803603602081101561145e57600080fd5b5035600160a060020a031661317f565b61012f6004803603604081101561148457600080fd5b81359190810190604081016020820135602060020a8111156114a557600080fd5b8201836020820111156114b757600080fd5b803590602001918460018302840111602060020a831117156114d857600080fd5b91908080601f01602080910402602001604051908101604052809392919081815260200183838082843760009201919091525092955061319e945050505050565b611521612019565b151561152c57600080fd5b6001805480820182556000919091527fb10e2d527612073b26eecdfd717e6a320cf44b4afac2b0732d9fcbe2b7fa0cf601805473ffffffffffffffffffffffffffffffffffffffff1916600160a060020a0392909216919091179055565b6115ee610160604051908101604052808d81526020018c81526020018b81526020018a815260200189600160a060020a031681526020018863ffffffff16815260200187815260200186815260200185815260200184815260200183815250613253565b5050505050505050505050565b61161d8484846bffffffffffffffffffffffff19606060020a3302168561397c565b50505050565b805160009067ffffffffffffffff16431080159061164f5750602082015167ffffffffffffffff164311155b92915050565b604080516101c0810182528b5181526020808d0151908201528b820151918101919091526060808c0151908201526080808c01519082015261ffff8a1660a082015263ffffffff891660c082015260e08101889052610100810187905261012081018690526101408101859052610160810184905261018081018390526101a081018290526116e390613b3c565b50505050505050505050565b6115ee610160604051908101604052808d81526020018c81526020018a81526020018b8152602001898152602001888152602001878152602001868152602001858152602001848152602001838152506149f4565b61174c612019565b151561175757600080fd5b60008054604051600160a060020a03909116907f8be0079c531659141344cd1fd0a4f28419497f9722a3daafe3b4186f6b6457e0908390a36000805473ffffffffffffffffffffffffffffffffffffffff19169055565b60008881526003602052604090206117c586611623565b15156118055760405160e560020a62461bcd0281526004018080602001828103825260248152602001806159006024913960400191505060405180910390fd5b600089898989856000015486600201548b8b8b604051602001808a81526020018981526020018867ffffffffffffffff1667ffffffffffffffff1660c060020a02815260080187600260200280838360005b8381101561186f578181015183820152602001611857565b50505050905001868152602001858152602001848051906020019060200280838360005b838110156118ab578181015183820152602001611893565b50505050905001838051906020019060200280838360005b838110156118db5781810151838201526020016118c3565b50505050905001828051906020019060200280838360005b8381101561190b5781810151838201526020016118f3565b505050509050019950505050505050505050604051602081830303815290604052805190602001209050816004015473__MerkleLib_____________________________636a2dda6773__ArbProtocol___________________________63f0c8e96985886040518363ffffffff1660e060020a0281526004018083815260200180602001828103825283818151815260200191508051906020019080838360005b838110156119c55781810151838201526020016119ad565b50505050905090810190601f1680156119f25780820380516001836020036101000a031916815260200191505b50935050505060006040518083038186803b158015611a1057600080fd5b505af4158015611a24573d6000803e3d6000fd5b505050506040513d6000823e601f3d908101601f191682016040526020811015611a4d57600080fd5b810190808051602060020a811115611a6457600080fd5b82016020810184811115611a7757600080fd5b81518560208202830111602060020a82111715611a9357600080fd5b505060405160e060020a63ffffffff87160281526020600482018181528351602484015283519396509450849350604490910191818601910280838360005b83811015611aea578181015183820152602001611ad2565b505050509050019250505060206040518083038186803b158015611b0d57600080fd5b505af4158015611b21573d6000803e3d6000fd5b505050506040513d6020811015611b3757600080fd5b505114611b8e576040805160e560020a62461bcd02815260206004820152601e60248201527f4d616e61676572207369676e61747572657320646f6e2774206d617463680000604482015290519081900360640190fd5b6002600b830154606060020a900460ff166002811115611baa57fe5b1415611bd557600a82015467ffffffffffffffff60c060020a909104811690891611611bd557600080fd5b6002546040517f0f89fbff000000000000000000000000000000000000000000000000000000008152606060048201908152885160648301528851600160a060020a039093169263c2465106928e928b9273__ArbProtocol___________________________92630f89fbff9285928e928e9291829160248101916044820191608401906020808a01910280838360005b83811015611c7e578181015183820152602001611c66565b50505050905001848103835286818151815260200191508051906020019060200280838360005b83811015611cbd578181015183820152602001611ca5565b50505050905001848103825285818151815260200191508051906020019060200280838360005b83811015611cfc578181015183820152602001611ce4565b50505050905001965050505050505060006040518083038186803b158015611d2357600080fd5b505af4158015611d37573d6000803e3d6000fd5b505050506040513d6000823e601f3d908101601f191682016040526020811015611d6057600080fd5b810190808051602060020a811115611d7757600080fd5b82016020810184811115611d8a57600080fd5b81518560208202830111602060020a82111715611da657600080fd5b50509291905050506040518463ffffffff1660e060020a028152600401808481526020018060200180602001838103835285818151815260200191508051906020019060200280838360005b83811015611e0a578181015183820152602001611df2565b50505050905001838103825284818151815260200191508051906020019060200280838360005b83811015611e49578181015183820152602001611e31565b5050505090500195505050505050600060405180830381600087803b158015611e7157600080fd5b505af1158015611e85573d6000803e3d6000fd5b50505050611e9282614f09565b611e9b82614fe5565b600b820180546cff00000000000000000000000019166c02000000000000000000000000179055600a8201805477ffffffffffffffffffffffffffffffffffffffffffffffff1660c060020a67ffffffffffffffff8b160217905560405186518791879187918d916020918201918291818801910280838360005b83811015611f2e578181015183820152602001611f16565b50505050905001848051906020019060200280838360005b83811015611f5e578181015183820152602001611f46565b50505050905001838051906020019060200280838360005b83811015611f8e578181015183820152602001611f76565b50505050919091019283525050604080518083038152602080840180845282519290910191909120600189015586905267ffffffffffffffff8d1681830152518e94507fa1d1249870ac5b939cf041991350480912abf0af99cf0337b13e440e1e150b969350908190036060019150a250505050505050505050565b600054600160a060020a031690565b600054600160a060020a0316331490565b33600160a060020a03841614156120755760405160e560020a62461bcd0281526004018080602001828103825260218152602001806159246021913960400191505060405180910390fd5b6000858152600360205260409020600a810154700100000000000000000000000000000000900467ffffffffffffffff164311156120e75760405160e560020a62461bcd02815260040180806020018281038252602681526020018061598e6026913960400191505060405180910390fd5b6001600b820154606060020a900460ff16600281111561210357fe5b146121425760405160e560020a62461bcd02815260040180806020018281038252602f81526020018061583c602f913960400191505060405180910390fd5b600b81015461ffff6801000000000000000090910481169084161061219b5760405160e560020a62461bcd02815260040180806020018281038252602a81526020018061586b602a913960400191505060405180910390fd5b73__MerkleLib_____________________________63b792d76783836004015433606060020a026bffffffffffffffffffffffff1916876001016040518563ffffffff1660e060020a02815260040180806020018581526020018481526020018361ffff168152602001828103825286818151815260200191508051906020019080838360005b8381101561223a578181015183820152602001612222565b50505050905090810190601f1680156122675780820380516001836020036101000a031916815260200191505b509550505050505060206040518083038186803b15801561228757600080fd5b505af415801561229b573d6000803e3d6000fd5b505050506040513d60208110156122b157600080fd5b50511515612309576040805160e560020a62461bcd02815260206004820152601560248201527f496e76616c6964206d616e616765722070726f6f660000000000000000000000604482015290519081900360640190fd5b61ffff83166000908152600c82016020526040902054600a8201546001608060020a0316111561236d5760405160e560020a62461bcd0281526004018080602001828103825260278152602001806157dc6027913960400191505060405180910390fd5b6001810154604080516020808201899052606060020a600160a060020a03891602828401528251603481840301815260549092019092528051910120146123e85760405160e560020a62461bcd0281526004018080602001828103825260398152602001806158036039913960400191505060405180910390fd5b600a81015461ffff84166000908152600c8301602052604090205461241b916001608060020a031663ffffffff61503e16565b61ffff8481166000908152600c84016020526040812092909255600180840192909255600b830180546dffff00000000000000000000000019166d0100000000000000000000000000179081905582546a010000000000000000000090910490911690811061248657fe5b6000918252602080832090910154604080518082018252600160a060020a038981168252338286015282518084018452600a88015461ffff60c060020a8204811683528b1682880152845180860186526001608060020a0390911680825296810196909652600b88015484517fe979d359000000000000000000000000000000000000000000000000000000008152600481018f8152939096169763e979d359978f9795969395909463ffffffff909316938f93926024909201918891908190849084905b8381101561256357818101518382015260200161254b565b5050505090500185600260200280838360005b8381101561258e578181015183820152602001612576565b5050505090500184600260200280838360005b838110156125b95781810151838201526020016125a1565b505050509050018363ffffffff1663ffffffff1681526020018281526020019650505050505050600060405180830381600087803b1580156125fa57600080fd5b505af115801561260e573d6000803e3d6000fd5b50506040805133815290518993507fb8d6a904566965067cb7e3e946d2a494a4b1f955ffec3e72e1e6ebe4e8e52c7292509081900360200190a2505050505050565b6000838152600360205260409020600b8101546001805490916a0100000000000000000000900461ffff1690811061268457fe5b600091825260209091200154600160a060020a031633146126a457600080fd5b600b8101546d0100000000000000000000000000900460ff1615156126c857600080fd5b600b810180546dff00000000000000000000000000191690556127226001608060020a03833516600c8301600086815b602002013561ffff1661ffff1681526020019081526020016000205461505390919063ffffffff16565b833561ffff166000908152600c830160208181526040832093909355612757928501356001608060020a0316918660016126f8565b61ffff602094850135166000908152600c9290920190935260409020919091555050565b8051620100009060419004106127db576040805160e560020a62461bcd02815260206004820152601160248201527f546f6f206d616e79206d616e6167657273000000000000000000000000000000604482015290519081900360640190fd5b6bffffffffffffffffffffffff198816881415612842576040805160e560020a62461bcd02815260206004820152600c60248201527f496e76616c696420766d49640000000000000000000000000000000000000000604482015290519081900360640190fd5b60015461ffff84161061289f576040805160e560020a62461bcd02815260206004820152601d60248201527f496e76616c6964206368616c6c656e6765206d616e61676572206e756d000000604482015290519081900360640190fd5b604080517ff0c8e969000000000000000000000000000000000000000000000000000000008152600481018881526024820192835283516044830152835160609373__ArbProtocol___________________________9363f0c8e969938c938893919260640190602085019080838360005b83811015612929578181015183820152602001612911565b50505050905090810190601f1680156129565780820380516001836020036101000a031916815260200191505b50935050505060006040518083038186803b15801561297457600080fd5b505af4158015612988573d6000803e3d6000fd5b505050506040513d6000823e601f3d908101601f1916820160405260208110156129b157600080fd5b810190808051602060020a8111156129c857600080fd5b820160208101848111156129db57600080fd5b81518560208202830111602060020a821117156129f757600080fd5b5050929190505050905073__ArbProtocol___________________________63e440673b8785888c89876040518763ffffffff1660e060020a028152600401808763ffffffff1663ffffffff168152602001866001608060020a03166001608060020a031681526020018563ffffffff1663ffffffff1681526020018481526020018361ffff1661ffff16815260200180602001828103825283818151815260200191508051906020019060200280838360005b83811015612ac3578181015183820152602001612aab565b5050505090500197505050505050505060206040518083038186803b158015612aeb57600080fd5b505af4158015612aff573d6000803e3d6000fd5b505050506040513d6020811015612b1557600080fd5b50518714612b6d576040805160e560020a62461bcd02815260206004820152601560248201527f437265617465206461746120696e636f72726563740000000000000000000000604482015290519081900360640190fd5b60008981526003602090815260408083208b81556001810193909355805160e060020a63364df277028152905173__ArbValue______________________________9263364df2779260048082019391829003018186803b158015612bd157600080fd5b505af4158015612be5573d6000803e3d6000fd5b505050506040513d6020811015612bfb57600080fd5b505160028201556040805160e060020a63364df277028152905173__ArbValue______________________________9163364df277916004808301926020929190829003018186803b158015612c5057600080fd5b505af4158015612c64573d6000803e3d6000fd5b505050506040513d6020811015612c7a57600080fd5b505160038201556040517f6a2dda6700000000000000000000000000000000000000000000000000000000815260206004820181815284516024840152845173__MerkleLib_____________________________93636a2dda6793879392839260440191858101910280838360005b83811015612d01578181015183820152602001612ce9565b505050509050019250505060206040518083038186803b158015612d2457600080fd5b505af4158015612d38573d6000803e3d6000fd5b505050506040513d6020811015612d4e57600080fd5b50516004820155436007820155600a810180546fffffffffffffffffffffffffffffffff19166001608060020a038616179055600b81018054835163ffffffff1990911663ffffffff8a81169190911767ffffffff000000001916602060020a918a16919091021769ffff000000000000000019166801000000000000000061ffff92831602176bffff0000000000000000000019166a01000000000000000000009188169190910217808255600091906cff0000000000000000000000001916606060020a83021790555060005b8251811015612e4a576000818152600c8301602052604090206001608060020a0386169055600101612e1d565b507fcceee324f3da34d4a41aa8189dbcbe12e83cb3c3b448ae9097645e8356698bdf8785888d8d8a88604051808863ffffffff1663ffffffff168152602001876001608060020a03166001608060020a031681526020018663ffffffff1663ffffffff1681526020018581526020018481526020018361ffff1661ffff16815260200180602001828103825283818151815260200191508051906020019060200280838360005b83811015612f09578181015183820152602001612ef1565b505050509050019850505050505050505060405180910390a150505050505050505050565b60008981526003602052604090206002600b820154606060020a900460ff166002811115612f5857fe5b14612f6257600080fd5b600a810154700100000000000000000000000000000000900467ffffffffffffffff164311612f9057600080fd5b858484898c8c8a886040516020018086815260200185815260200184815260200183805190602001908083835b60208310612fdc5780518252601f199092019160209182019101612fbd565b51815160209384036101000a60001901801990921691161790528551919093019285810192500280838360005b83811015613021578181015183820152602001613009565b50505050905001955050505050506040516020818303038152906040528051906020012060405160200180858051906020019060200280838360005b8381101561307557818101518382015260200161305d565b50505050905001848051906020019060200280838360005b838110156130a557818101518382015260200161308d565b50505050905001838051906020019060200280838360005b838110156130d55781810151838201526020016130bd565b5050505090500182815260200194505050505060405160208183030381529060405280519060200120816001015414151561310f57600080fd5b600281018790556131258a8a888888888861506c565b600a8101546040805167ffffffffffffffff60c060020a909304929092168252518b917fd23ef3a25058f2acee4ca7aee5cc78a587b9fc76d2875098af1ffdfc2bcc74c9919081900360200190a250505050505050505050565b613187612019565b151561319257600080fd5b61319b8161540c565b50565b600254604080517fda63d7b6000000000000000000000000000000000000000000000000000000008152600481018590529051600160a060020a039092169163da63d7b6913491602480830192600092919082900301818588803b15801561320557600080fd5b505af1158015613219573d6000803e3d6000fd5b505050505061324f8260006b010000000000000000000000023433606060020a026bffffffffffffffffffffffff191685615489565b5050565b805160009081526003602052604090206001600b820154606060020a900460ff16600281111561327f57fe5b146132be5760405160e560020a62461bcd0281526004018080602001828103825260228152602001806158b96022913960400191505060405180910390fd5b600a810154700100000000000000000000000000000000900467ffffffffffffffff1643116133215760405160e560020a62461bcd0281526004018080602001828103825260248152602001806158956024913960400191505060405180910390fd5b8060010154826020015173__ArbProtocol___________________________632090372185604001518660a00151600073__ArbProtocol___________________________63252001608a60c001518b60e001518c61010001518d61012001518e61014001516040518663ffffffff1660e060020a02815260040180806020018060200180602001806020018060200186810386528b818151815260200191508051906020019060200280838360005b838110156133e95781810151838201526020016133d1565b5050505090500186810385528a818151815260200191508051906020019080838360005b8381101561342557818101518382015260200161340d565b50505050905090810190601f1680156134525780820380516001836020036101000a031916815260200191505b508681038452895181528951602091820191808c01910280838360005b8381101561348757818101518382015260200161346f565b50505050905001868103835288818151815260200191508051906020019060200280838360005b838110156134c65781810151838201526020016134ae565b50505050905001868103825287818151815260200191508051906020019060200280838360005b838110156135055781810151838201526020016134ed565b505050509050019a505050505050505050505060206040518083038186803b15801561353057600080fd5b505af4158015613544573d6000803e3d6000fd5b505050506040513d602081101561355a57600080fd5b810190808051906020019092919050505060008a6060015173__ArbProtocol___________________________630f89fbff8d60c001518e61010001518f61012001516040518463ffffffff1660e060020a02815260040180806020018060200180602001848103845287818151815260200191508051906020019060200280838360005b838110156135f75781810151838201526020016135df565b50505050905001848103835286818151815260200191508051906020019060200280838360005b8381101561363657818101518382015260200161361e565b50505050905001848103825285818151815260200191508051906020019060200280838360005b8381101561367557818101518382015260200161365d565b50505050905001965050505050505060006040518083038186803b15801561369c57600080fd5b505af41580156136b0573d6000803e3d6000fd5b505050506040513d6000823e601f3d908101601f1916820160405260208110156136d957600080fd5b810190808051602060020a8111156136f057600080fd5b8201602081018481111561370357600080fd5b81518560208202830111602060020a8211171561371f57600080fd5b50509291905050506040518863ffffffff1660e060020a028152600401808881526020018763ffffffff1663ffffffff16815260200186600102815260200185815260200184600102815260200183815260200180602001828103825283818151815260200191508051906020019060200280838360005b838110156137af578181015183820152602001613797565b505050509050019850505050505050505060206040518083038186803b1580156137d857600080fd5b505af41580156137ec573d6000803e3d6000fd5b505050506040513d602081101561380257600080fd5b5051604080516020808201949094528082019290925280518083038201815260608301825280519084012060808781015190840191909152600160a060020a0316606060020a0260a08301528051808303609401815260b490920190528051910120146138a35760405160e560020a62461bcd0281526004018080602001828103825260398152602001806158036039913960400191505060405180910390fd5b600a81015467ffffffffffffffff60c060020a8204166000908152600c830160205260409020546138e2916001608060020a031663ffffffff61505316565b600a82015460c060020a900467ffffffffffffffff166000908152600c83016020526040908190209190915582519083015160c084015160e085015161010086015161012087015161014088015161393f9695949392919061506c565b8151604080840151815190815290517f8bf82ba359336cefa1c284ed9d3864f99aa1cd41dddf9330afd656bcb9dd7a7b9181900360200190a25050565b8360141a7f0100000000000000000000000000000000000000000000000000000000000000027effffffffffffffffffffffffffffffffffffffffffffffffffffffffffffff191660017f0100000000000000000000000000000000000000000000000000000000000000021415613a8d57600254604080517fcdf25dc10000000000000000000000000000000000000000000000000000000081526004810185905260248101889052600160a060020a03606060020a880481166044830152606482018790529151919092169163cdf25dc191608480830192600092919082900301818387803b158015613a7057600080fd5b505af1158015613a84573d6000803e3d6000fd5b50505050613b28565b600254604080517f1240117b0000000000000000000000000000000000000000000000000000000081526004810185905260248101889052600160a060020a03606060020a8804811660448301526064820187905291519190921691631240117b91608480830192600092919082900301818387803b158015613b0f57600080fd5b505af1158015613b23573d6000803e3d6000fd5b505050505b613b358585858585615489565b5050505050565b8051600090815260036020526040812090600b820154606060020a900460ff166002811115613b6757fe5b14613ba65760405160e560020a62461bcd02815260040180806020018281038252602d8152602001806159b4602d913960400191505060405180910390fd5b600b8101546d0100000000000000000000000000900460ff1615613bc957600080fd5b60a082015161ffff166000908152600c82016020526040902054600a8201546001608060020a03161115613c315760405160e560020a62461bcd0281526004018080602001828103825260258152602001806158db6025913960400191505060405180910390fd5b600b81015460a083015161ffff680100000000000000009092048216911610613ca4576040805160e560020a62461bcd02815260206004820152601360248201527f496e76616c6964206d616e61676572206e756d00000000000000000000000000604482015290519081900360640190fd5b73__MerkleLib_____________________________63b792d767836101000151836004015433606060020a026bffffffffffffffffffffffff19168660a001516001016040518563ffffffff1660e060020a02815260040180806020018581526020018481526020018361ffff168152602001828103825286818151815260200191508051906020019080838360005b83811015613d4c578181015183820152602001613d34565b50505050905090810190601f168015613d795780820380516001836020036101000a031916815260200191505b509550505050505060206040518083038186803b158015613d9957600080fd5b505af4158015613dad573d6000803e3d6000fd5b505050506040513d6020811015613dc357600080fd5b50511515613e1b576040805160e560020a62461bcd02815260206004820152601b60248201527f496e636f7272656374206d616e61676572206b65792070726f6f660000000000604482015290519081900360640190fd5b600b81015460c083015163ffffffff602060020a909204821691161115613e8c576040805160e560020a62461bcd02815260206004820152601f60248201527f547269656420746f206578656375746520746f6f206d616e7920737465707300604482015290519081900360640190fd5b613e998260e00151611623565b1515613ed95760405160e560020a62461bcd0281526004018080602001828103825260248152602001806159006024913960400191505060405180910390fd5b8054602083015114613f1f5760405160e560020a62461bcd0281526004018080602001828103825260278152602001806159676027913960400191505060405180910390fd5b806002015482604001511480613fc5575073__ArbProtocol___________________________63f11fcc26826002015483600301546040518363ffffffff1660e060020a028152600401808381526020018281526020019250505060206040518083038186803b158015613f9257600080fd5b505af4158015613fa6573d6000803e3d6000fd5b505050506040513d6020811015613fbc57600080fd5b50516040830151145b15156140055760405160e560020a62461bcd0281526004018080602001828103825260228152602001806159456022913960400191505060405180910390fd5b606073__ArbProtocol___________________________630f89fbff8461012001518561016001518661018001516040518463ffffffff1660e060020a02815260040180806020018060200180602001848103845287818151815260200191508051906020019060200280838360005b8381101561408d578181015183820152602001614075565b50505050905001848103835286818151815260200191508051906020019060200280838360005b838110156140cc5781810151838201526020016140b4565b50505050905001848103825285818151815260200191508051906020019060200280838360005b8381101561410b5781810151838201526020016140f3565b50505050905001965050505050505060006040518083038186803b15801561413257600080fd5b505af4158015614146573d6000803e3d6000fd5b505050506040513d6000823e601f3d908101601f19168201604052602081101561416f57600080fd5b810190808051602060020a81111561418657600080fd5b8201602081018481111561419957600080fd5b81518560208202830111602060020a821117156141b557600080fd5b505060025487516101208901516040517fc246510600000000000000000000000000000000000000000000000000000000815260048101838152606060248301908152835160648401528351969a50600160a060020a03909516985063c24651069750929550909388939160448101916084909101906020808801910280838360005b83811015614250578181015183820152602001614238565b50505050905001838103825284818151815260200191508051906020019060200280838360005b8381101561428f578181015183820152602001614277565b5050505090500195505050505050600060405180830381600087803b1580156142b757600080fd5b505af11580156142cb573d6000803e3d6000fd5b505050506142d882614fe5565b600073__ArbProtocol___________________________63b3277495856101200151866101400151876101600151886101800151896101a001516040518663ffffffff1660e060020a02815260040180806020018060200180602001806020018060200186810386528b818151815260200191508051906020019060200280838360005b8381101561437457818101518382015260200161435c565b5050505090500186810385528a818151815260200191508051906020019060200280838360005b838110156143b357818101518382015260200161439b565b50505050905001868103845289818151815260200191508051906020019060200280838360005b838110156143f25781810151838201526020016143da565b50505050905001868103835288818151815260200191508051906020019060200280838360005b83811015614431578181015183820152602001614419565b50505050905001868103825287818151815260200191508051906020019060200280838360005b83811015614470578181015183820152602001614458565b505050509050019a505050505050505050505060206040518083038186803b15801561449b57600080fd5b505af41580156144af573d6000803e3d6000fd5b505050506040513d60208110156144c557600080fd5b5051602085015160e086015160408088015161012089015182517f3e2855980000000000000000000000000000000000000000000000000000000081526004810186815296975073__ArbProtocol___________________________96633e2855989695948a9260240190869080838360005b83811015614550578181015183820152602001614538565b505050509050018481526020018060200180602001838103835285818151815260200191508051906020019060200280838360005b8381101561459d578181015183820152602001614585565b50505050905001838103825284818151815260200191508051906020019060200280838360005b838110156145dc5781810151838201526020016145c4565b5050505090500197505050505050505060206040518083038186803b15801561460457600080fd5b505af4158015614618573d6000803e3d6000fd5b505050506040513d602081101561462e57600080fd5b5051606085015160c086015160808701516040517f209037210000000000000000000000000000000000000000000000000000000081526004810184815263ffffffff84166024830152600060448301819052606483018890526084830181905260a4830184905260e060c48401908152895160e4850152895173__ArbProtocol___________________________976320903721979096909593948b94869492938e93916101040190602085810191028083838a5b838110156146fc5781810151838201526020016146e4565b505050509050019850505050505050505060206040518083038186803b15801561472557600080fd5b505af4158015614739573d6000803e3d6000fd5b505050506040513d602081101561474f57600080fd5b505160408051602081810194909452808201929092528051808303820181526060830182528051908401206080830152606060020a330260a08301528051609481840301815260b490920181528151918301919091206001860155600a85015467ffffffffffffffff60c060020a8204166000908152600c87019093529120546147e7916001608060020a031663ffffffff61503e16565b600a8401805460c060020a9081900467ffffffffffffffff166000908152600c8701602052604090209290925560a0860151815477ffffffffffffffffffffffffffffffffffffffffffffffff1661ffff909116909202919091179055600b83018054600191906cff0000000000000000000000001916606060020a83021790555083600001517fe3457847513bb99aa86c769d9800b4a4c1f0758755234d78d40c406de93935d160606040519081016040528087602001518152602001876040015181526020018760600151815250338760e001518861012001518960c00151878b608001518a6040518089600360200280838360005b838110156148f75781810151838201526020016148df565b50505050600160a060020a038b1692019182525060200187604080838360005b8381101561492f578181015183820152602001614917565b50505050905001806020018663ffffffff1663ffffffff16815260200185815260200184815260200180602001838103835288818151815260200191508051906020019060200280838360005b8381101561499457818101518382015260200161497c565b50505050905001838103825284818151815260200191508051906020019060200280838360005b838110156149d35781810151838201526020016149bb565b505050509050019a505050505050505050505060405180910390a250505050565b805160009081526003602052604090206080820151614a1290611623565b1515614a525760405160e560020a62461bcd0281526004018080602001828103825260248152602001806159006024913960400191505060405180910390fd5b600082600001518260000154836002015485602001518660400151876060015188608001518960a001518a60c001518b60e001518c61010001518d6101200151604051602001808d81526020018c81526020018b81526020018a815260200189815260200188815260200187600260200280838360005b83811015614ae1578181015183820152602001614ac9565b50505050905001868051906020019060200280838360005b83811015614b11578181015183820152602001614af9565b5050505090500185805190602001908083835b60208310614b435780518252601f199092019160209182019101614b24565b51815160209384036101000a60001901801990921691161790528751919093019287810192500280838360005b83811015614b88578181015183820152602001614b70565b50505050905001838051906020019060200280838360005b83811015614bb8578181015183820152602001614ba0565b50505050905001828051906020019060200280838360005b83811015614be8578181015183820152602001614bd0565b505050509050019c50505050505050505050505050604051602081830303815290604052805190602001209050816004015473__MerkleLib_____________________________636a2dda6773__ArbProtocol___________________________63f0c8e969858861014001516040518363ffffffff1660e060020a0281526004018083815260200180602001828103825283818151815260200191508051906020019080838360005b83811015614caa578181015183820152602001614c92565b50505050905090810190601f168015614cd75780820380516001836020036101000a031916815260200191505b50935050505060006040518083038186803b158015614cf557600080fd5b505af4158015614d09573d6000803e3d6000fd5b505050506040513d6000823e601f3d908101601f191682016040526020811015614d3257600080fd5b810190808051602060020a811115614d4957600080fd5b82016020810184811115614d5c57600080fd5b81518560208202830111602060020a82111715614d7857600080fd5b505060405160e060020a63ffffffff87160281526020600482018181528351602484015283519396509450849350604490910191818601910280838360005b83811015614dcf578181015183820152602001614db7565b505050509050019250505060206040518083038186803b158015614df257600080fd5b505af4158015614e06573d6000803e3d6000fd5b505050506040513d6020811015614e1c57600080fd5b505114614e73576040805160e560020a62461bcd02815260206004820152601e60248201527f4d616e61676572207369676e61747572657320646f6e2774206d617463680000604482015290519081900360640190fd5b614e7c82614f09565b600b820180546cff00000000000000000000000019169055606083015160028301558251602084015160a085015160c086015160e0870151610100880151610120890151614ecf9695949392919061506c565b82516040805183815290517fd13341838a6e5e2972e2b8638f8d2652f77945f3755d3a2829ec5076b51470679181900360200190a2505050565b6000600b820154606060020a900460ff166002811115614f2557fe5b14614f5957600a810154700100000000000000000000000000000000900467ffffffffffffffff16431115614f5957600080fd5b6001600b820154606060020a900460ff166002811115614f7557fe5b141561319b57600a81015467ffffffffffffffff60c060020a8204166000908152600c83016020526040902054614fba916001608060020a031663ffffffff61505316565b600a82015467ffffffffffffffff60c060020a909104166000908152600c8301602052604090205550565b600b810154600a909101805477ffffffffffffffff00000000000000000000000000000000191670010000000000000000000000000000000063ffffffff909316430167ffffffffffffffff1692909202919091179055565b60008282111561504d57600080fd5b50900390565b60008282018381101561506557600080fd5b9392505050565b6000878152600360205260408120606090825b855181101561524e5773__ArbValue______________________________634d00ef7a89866040518363ffffffff1660e060020a0281526004018080602001838152602001828103825284818151815260200191508051906020019080838360005b838110156150f95781810151838201526020016150e1565b50505050905090810190601f1680156151265780820380516001836020036101000a031916815260200191505b50935050505060006040518083038186803b15801561514457600080fd5b505af4158015615158573d6000803e3d6000fd5b505050506040513d6000823e601f3d908101601f19168201604090815281101561518157600080fd5b815160208301805191939283019291602060020a8111156151a157600080fd5b820160208101848111156151b457600080fd5b8151602060020a8111828201871017156151cd57600080fd5b50508951949850965061524693899350859250821090506151ea57fe5b906020019060200201518a898481518110151561520357fe5b9060200190602002015161ffff1681518110151561521d57fe5b90602001906020020151888481518110151561523557fe5b906020019060200201518e8761397c565b60010161507f565b50888155600b810180546cff000000000000000000000000191690556040805160e060020a63364df277028152905173__ArbValue______________________________9163364df277916004808301926020929190829003018186803b1580156152b857600080fd5b505af41580156152cc573d6000803e3d6000fd5b505050506040513d60208110156152e257600080fd5b50516003820154146116e35773__ArbProtocol___________________________63f11fcc26826002015483600301546040518363ffffffff1660e060020a028152600401808381526020018281526020019250505060206040518083038186803b15801561535057600080fd5b505af4158015615364573d6000803e3d6000fd5b505050506040513d602081101561537a57600080fd5b505160028201556040805160e060020a63364df277028152905173__ArbValue______________________________9163364df277916004808301926020929190829003018186803b1580156153cf57600080fd5b505af41580156153e3573d6000803e3d6000fd5b505050506040513d60208110156153f957600080fd5b5051600382015550505050505050505050565b600160a060020a038116151561542157600080fd5b60008054604051600160a060020a03808516939216917f8be0079c531659141344cd1fd0a4f28419497f9722a3daafe3b4186f6b6457e091a36000805473ffffffffffffffffffffffffffffffffffffffff1916600160a060020a0392909216919091179055565b6bffffffffffffffffffffffff198516851461570657600085815260036020908152604080832090517f92516ac70000000000000000000000000000000000000000000000000000000081526004810183815285516024830152855192949373__ArbProtocol___________________________93632a0500d8938c9373__ArbValue______________________________936392516ac7938b938392604490910191908501908083838e5b8381101561554d578181015183820152602001615535565b50505050905090810190601f16801561557a5780820380516001836020036101000a031916815260200191505b509250505060206040518083038186803b15801561559757600080fd5b505af41580156155ab573d6000803e3d6000fd5b505050506040513d60208110156155c157600080fd5b50516040805160e060020a63ffffffff8616028152600481019390935260248301919091526affffffffffffffffffffff198a16604483015260648201899052608482018890525160a4808301926020929190829003018186803b15801561562857600080fd5b505af415801561563c573d6000803e3d6000fd5b505050506040513d602081101561565257600080fd5b50516003830154604080517fd78d18ea0000000000000000000000000000000000000000000000000000000081526004810192909252602482018390525191925073__ArbProtocol___________________________9163d78d18ea91604480820192602092909190829003018186803b1580156156cf57600080fd5b505af41580156156e3573d6000803e3d6000fd5b505050506040513d60208110156156f957600080fd5b5051600390920191909155505b847f983eec3b16cf85cbe329d288a7863b78dc7d1c9a0d690b21434d4cc1f73539e58386868560405180858152602001846affffffffffffffffffffff19166affffffffffffffffffffff1916815260200183815260200180602001828103825283818151815260200191508051906020019080838360005b8381101561579757818101518382015260200161577f565b50505050905090810190601f1680156157c45780820380516001836020036101000a031916815260200191505b509550505050505060405180910390a2505050505056fe4368616c6c656e67657220646964206e6f74206861766520656e6f75676820657363726f776564507265636f6e646974696f6e20616e6420617373657274696f6e20646f206e6f74206d617463682070656e64696e6720617373657274696f6e417373657274696f6e206d7573742062652070656e64696e6720746f20696e697469617465206368616c6c656e67654368616c6c656e676572206e756d206d75737420626520666f7220612076616c6964206d616e61676572417373657274696f6e206973207374696c6c2070656e64696e67206368616c6c656e6765564d20646f6573206e6f74206861766520617373657274696f6e2070656e64696e674d616e6167657220646f6573206e6f74206861766520726571756972656420657363726f77507265636f6e646974696f6e3a206e6f742077697468696e2074696d6520626f756e64734368616c6c656e6765207761732063726561746564206279206173736572746572507265636f6e646974696f6e3a20696e626f7820646f6573206e6f74206d61746368507265636f6e646974696f6e3a207374617465206861736820646f6573206e6f74206d617463684368616c6c656e676520646964206e6f7420636f6d65206265666f726520646561646c696e6543616e206f6e6c792064697370757461626c65206173736572742066726f6d2077616974696e67207374617465a165627a7a7230582058f077cdee6a7e865ef4882b6ea67410820c05c84df05b13fbcbd0e4ae577dd70029",
  "source": "pragma solidity ^0.5.3;\n\nimport \"./ArbProtocol.sol\";\nimport \"./ArbValue.sol\";\nimport \"./IChallengeManager.sol\";\nimport \"./ArbBalanceTracker.sol\";\nimport \"./MerkleLib.sol\";\n\nimport \"openzeppelin-solidity/contracts/ownership/Ownable.sol\";\n\ncontract VMTracker is Ownable {\n\tusing SafeMath for uint256;\n    using BytesLib for bytes;\n\n    event MessageDelivered(\n        bytes32 indexed vmId,\n        bytes32 destination,\n        bytes21 tokenType,\n        uint256 value,\n        bytes data\n    );\n\n    event VMCreated(\n        uint32 _gracePeriod, \n        uint128 _escrowRequired, \n        uint32 _maxExecutionSteps,\n        bytes32 _vmId, \n        bytes32 _vmState,\n        uint16 _challengeManagerNum,\n        address[] managers\n    );\n\n    event ProposedUnanimousAssertion (\n        bytes32 indexed vmId,\n        bytes32 unanHash,\n        uint64 sequenceNum\n    );\n\n    event ConfirmedUnanimousAssertion (\n        bytes32 indexed vmId,\n        uint64 sequenceNum\n    );\n\n    event FinalUnanimousAssertion(\n        bytes32 indexed vmId,\n        bytes32 unanHash\n    );\n\n    // fields:\n    // beforeHash\n    // beforeInbox\n    // afterHash\n    //\n\n    event DisputableAssertion (\n        bytes32 indexed vmId,\n        bytes32[3] fields,\n        address asserter,\n        uint64[2] timeBounds,\n        bytes21[] tokenTypes,\n        uint32 numSteps,\n        bytes32 lastMessageHash,\n        bytes32 logsHash,\n        uint256[] amounts\n    );\n\n    event ConfirmedAssertion(\n        bytes32 indexed vmId,\n        bytes32 newState\n    );\n\n    enum VMState {\n        Waiting,\n        PendingAssertion,\n        PendingUnanimous\n    }\n\n    struct VM {\n        bytes32 machineHash;\n        bytes32 disputableHash; // Disputable assert only\n        bytes32 inboxHash;\n        bytes32 pendingMessages;\n        bytes32 managerRoot;\n        bytes32 exitAddress;\n        bytes32 terminateAddress;\n        uint256 lastPaidHeight;\n        uint256 validatorFee;\n        uint256 funding; \n        uint128 escrowRequired;\n        uint64 deadline;\n        uint64 sequenceOrAsserterNum;\n        uint32 gracePeriod;\n        uint32 maxExecutionSteps;\n        uint16 managerCount;\n        uint16 challengeManagersNum;\n        VMState state;\n        bool inChallenge;\n        mapping(uint => uint256) managerBalances;\n    }\n\n    IChallengeManager[] challengeManagers;\n    ArbBalanceTracker arbBalanceTracker;\n    mapping(bytes32 => VM) vms;\n    uint feePerBlock;\n\n    constructor(address _balanceTrackerAddress) public {\n        arbBalanceTracker = ArbBalanceTracker(_balanceTrackerAddress);\n    }\n\n    function _paymentPerBlock(VM storage _vm) internal view returns (uint) {\n        return _vm.escrowRequired / (feePerBlock + _vm.validatorFee * _vm.managerCount);\n    }\n\n    function _paymentRequired(VM storage _vm) internal view returns (uint) {\n        return (block.number - _vm.lastPaidHeight) * _paymentPerBlock(_vm);\n    }\n\n    function addChallengeManager(IChallengeManager _challengeManager) onlyOwner public {\n        challengeManagers.push(_challengeManager);\n    }\n\n    function withinTimeBounds(uint64[2] memory _timeBounds) public view returns (bool) {\n        return block.number >= _timeBounds[0] && block.number <= _timeBounds[1];\n    }\n\n    function _resetDeadline(VM storage _vm) internal {\n        _vm.deadline = uint64(block.number) + _vm.gracePeriod;\n    }\n\n    function _acceptAssertion(\n        bytes32 _vmId,\n        bytes32 _afterHash,\n        bytes21[] memory _tokenTypes,\n        bytes memory _messageData,\n        uint16[] memory _tokenTypeNum,\n        uint256[] memory _amounts,\n        bytes32[] memory _destinations\n    ) internal {\n        uint offset = 0;\n        bytes memory msgData;\n        VM storage vm = vms[_vmId];\n        for (uint i = 0; i < _amounts.length; i++) {\n            (offset, msgData) = ArbValue.get_next_valid_value(_messageData, offset);\n            _sendUnpaidMessage(\n                _destinations[i],\n                _tokenTypes[_tokenTypeNum[i]],\n                _amounts[i],\n                _vmId,\n                msgData\n            );\n        }\n\n        vm.machineHash = _afterHash;\n        vm.state = VMState.Waiting;\n\n        if (vm.pendingMessages != ArbValue.hashEmptyTuple()) {\n            vm.inboxHash = ArbProtocol.appendInboxMessages(vm.inboxHash, vm.pendingMessages);\n            vm.pendingMessages = ArbValue.hashEmptyTuple();\n        }\n    }\n\n\n\n    // fields2\n    // _gracePeriod\n    // _maxExecutionSteps\n    // _challengeManagerNum\n\n    function createVm(\n        bytes32 _vmId,\n        bytes32 _vmState,\n        bytes32 _createHash,\n        uint32 _gracePeriod,\n        uint32 _maxExecutionSteps,\n        uint16 _challengeManagerNum,\n        uint128 _escrowRequired,\n        bytes memory _signatures\n    ) public {\n        require(_signatures.length / 65 < 2 ** 16, \"Too many managers\");\n        require(bytes32(bytes20(_vmId)) != _vmId, \"Invalid vmId\");\n        require(_challengeManagerNum < challengeManagers.length, \"Invalid challenge manager num\");\n\n        address[] memory assertKeys = ArbProtocol.recoverAddresses(_createHash, _signatures);\n        require(_createHash == ArbProtocol.createVMHash(\n            _gracePeriod,\n            _escrowRequired,\n            _maxExecutionSteps,\n            _vmState,\n            _challengeManagerNum,\n            assertKeys\n        ), \"Create data incorrect\");\n\n        // for (uint i = 0; i < assertKeys.length; i++) {\n        //     arbBalanceTracker.removeToken(\n        //         bytes32(bytes20(assertKeys[i])),\n        //         address(arbBalanceTracker),\n        //         _escrowRequired\n        //     );\n        // }\n        VM storage vm = vms[_vmId];\n        vm.machineHash = _vmState;\n        vm.disputableHash = 0;\n        vm.inboxHash = ArbValue.hashEmptyTuple();\n        vm.pendingMessages = ArbValue.hashEmptyTuple();\n        vm.managerRoot = MerkleLib.generateAddressRoot(assertKeys);\n        vm.lastPaidHeight = block.number;\n        vm.escrowRequired = _escrowRequired;\n        vm.gracePeriod = _gracePeriod;\n        vm.maxExecutionSteps = _maxExecutionSteps;\n        vm.managerCount = uint16(assertKeys.length);\n        vm.challengeManagersNum = _challengeManagerNum;\n        vm.state = VMState.Waiting;\n\n        for (uint i = 0; i < assertKeys.length; i++) {\n            vm.managerBalances[i] = _escrowRequired;\n        }\n\n        emit VMCreated(\n            _gracePeriod,\n            _escrowRequired,\n            _maxExecutionSteps,\n            _vmId,\n            _vmState,\n            _challengeManagerNum,\n            assertKeys\n        );\n    }\n\n    function sendMessage(bytes32 _destination, bytes21 _tokenType, uint256 _amount, bytes memory _data) public {\n        _sendUnpaidMessage(\n            _destination,\n            _tokenType,\n            _amount,\n            bytes32(bytes20(msg.sender)),\n            _data\n        );\n    }\n\n    function sendEthMessage(bytes32 _destination, bytes memory _data) public payable {\n        arbBalanceTracker.depositEth.value(msg.value)(_destination);\n        _deliverMessage(\n            _destination,\n            bytes21(0),\n            msg.value,\n            bytes32(bytes20(msg.sender)),\n            _data\n        );\n    }\n\n    function _sendUnpaidMessage(bytes32 _destination, bytes21 _tokenType, uint256 _value, bytes32 _sender, bytes memory _data) internal {\n        if(_tokenType[20] == 0x01) {\n            arbBalanceTracker.transferNFT(_sender, _destination, address(bytes20(_tokenType)), _value);\n        } else {\n            arbBalanceTracker.transferToken(_sender, _destination, address(bytes20(_tokenType)), _value);\n        }\n        _deliverMessage(_destination, _tokenType, _value, _sender, _data);\n    }\n\n    function _deliverMessage(bytes32 _destination, bytes21 _tokenType, uint256 _value, bytes32 _sender, bytes memory _data) internal {\n        if (bytes32(bytes20(_destination)) != _destination) {\n            VM storage vm = vms[_destination];\n            bytes32 messageHash = ArbProtocol.generateSentMessageHash(\n                _destination,\n                ArbValue.deserialize_value_hash(_data),\n                _tokenType,\n                _value,\n                _sender\n            );\n            vm.pendingMessages = ArbProtocol.appendInboxPendingMessage(\n                vm.pendingMessages,\n                messageHash\n            );\n        }\n\n        emit MessageDelivered(\n            _destination,\n            _sender,\n            _tokenType,\n            _value,\n            _data\n        );\n    }\n\n    function _cancelCurrentState(VM storage vm) internal {\n        if (vm.state != VMState.Waiting) {\n            require(block.number <= vm.deadline);\n        }\n\n        if (vm.state == VMState.PendingAssertion) {\n            // If there is a pending disputable assertion, cancel it\n            vm.managerBalances[vm.sequenceOrAsserterNum] = vm.managerBalances[vm.sequenceOrAsserterNum].add(vm.escrowRequired);\n        }\n    }\n\n    struct unanimousAssertData {\n        bytes32 vmId;\n        bytes32 afterHash;\n        bytes32 logsHash;\n        bytes32 newInbox;\n        uint64[2] timeBounds;\n        bytes21[] tokenTypes;\n        bytes messageData;\n        uint16[] messageTokenNum;\n        uint256[] messageAmount;\n        bytes32[] messageDestination;\n        bytes signatures;\n    }\n\n    function unanimousAssert(\n        bytes32 _vmId,\n        bytes32 _afterHash,\n        bytes32 _newInbox,\n        bytes32 _logsHash,\n        uint64[2] memory _timeBounds,\n        bytes21[] memory _tokenTypes,\n        bytes memory _messageData,\n        uint16[] memory _messageTokenNum,\n        uint256[] memory _messageAmount,\n        bytes32[] memory _messageDestination,\n        bytes memory _signatures\n    ) public {\n        unanimousAssertImpl(unanimousAssertData(\n            _vmId,\n            _afterHash,\n            _logsHash,\n            _newInbox,\n            _timeBounds,\n            _tokenTypes,\n            _messageData,\n            _messageTokenNum,\n            _messageAmount,\n            _messageDestination,\n            _signatures\n        ));\n    }\n\n    function unanimousAssertImpl(unanimousAssertData memory data) internal {\n        VM storage vm = vms[data.vmId];\n        require(withinTimeBounds(data.timeBounds), \"Precondition: not within time bounds\");\n        bytes32 unanHash = keccak256(abi.encodePacked(\n            data.vmId,\n            vm.machineHash,\n            vm.inboxHash,\n            data.afterHash,\n            data.logsHash,\n            data.newInbox,\n            data.timeBounds,\n            data.tokenTypes,\n            data.messageData,\n            data.messageTokenNum,\n            data.messageAmount,\n            data.messageDestination\n        ));\n        require(MerkleLib.generateAddressRoot(\n            ArbProtocol.recoverAddresses(unanHash, data.signatures)\n        ) == vm.managerRoot, \"Manager signatures don't match\");\n\n        _cancelCurrentState(vm);\n        vm.state = VMState.Waiting;\n        vm.inboxHash = data.newInbox;\n        _acceptAssertion(\n            data.vmId,\n            data.afterHash,\n            data.tokenTypes,\n            data.messageData,\n            data.messageTokenNum,\n            data.messageAmount,\n            data.messageDestination\n        );\n\n        emit FinalUnanimousAssertion(\n            data.vmId,\n            unanHash\n        );\n    }\n\n    function proposeUnanimousAssert(\n        bytes32 _vmId,\n        bytes32 _unanRest,\n        uint64 _sequenceNum,\n        uint64[2] memory _timeBounds,\n        bytes21[] memory _tokenTypes,\n        uint16[] memory _messageTokenNum,\n        uint256[] memory _messageAmount,\n        bytes memory _signatures\n    ) public {\n        VM storage vm = vms[_vmId];\n        require(withinTimeBounds(_timeBounds), \"Precondition: not within time bounds\");\n        bytes32 unanHash = keccak256(abi.encodePacked(\n            _vmId,\n            _unanRest,\n            _sequenceNum,\n            _timeBounds,\n            vm.machineHash,\n            vm.inboxHash,\n            _tokenTypes,\n            _messageTokenNum,\n            _messageAmount\n        ));\n        require(MerkleLib.generateAddressRoot(\n            ArbProtocol.recoverAddresses(unanHash, _signatures)\n        ) == vm.managerRoot, \"Manager signatures don't match\");\n        \n        if (vm.state == VMState.PendingUnanimous) {\n            require(_sequenceNum > vm.sequenceOrAsserterNum);\n        }\n\n        arbBalanceTracker.hasFunds(\n            _vmId,\n            _tokenTypes,\n            ArbProtocol.calculateBeforeValues(\n                _tokenTypes,\n                _messageTokenNum,\n                _messageAmount\n            )\n        );\n\n        _cancelCurrentState(vm);\n        _resetDeadline(vm);\n        \n        vm.state = VMState.PendingUnanimous;\n        vm.sequenceOrAsserterNum = _sequenceNum;\n        vm.disputableHash = keccak256(abi.encodePacked(\n            _tokenTypes,\n            _messageTokenNum,\n            _messageAmount,\n            _unanRest\n        ));\n\n        emit ProposedUnanimousAssertion(\n            _vmId,\n            unanHash,\n            _sequenceNum\n        );\n    }\n\n    function ConfirmUnanimousAsserted(\n        bytes32 _vmId,\n        bytes32 _afterHash,\n        bytes32 _logsHash,\n        bytes32 _newInbox,\n        bytes21[] memory _tokenTypes,\n        bytes memory _messageData,\n        uint16[] memory _messageTokenNum,\n        uint256[] memory _messageAmount,\n        bytes32[] memory _messageDestination\n    ) public {\n        VM storage vm = vms[_vmId];\n        require(vm.state == VMState.PendingUnanimous);\n        require(block.number > vm.deadline);\n        require(vm.disputableHash == keccak256(abi.encodePacked(\n            _tokenTypes,\n            _messageTokenNum,\n            _messageAmount,\n            keccak256(abi.encodePacked(\n                _newInbox,\n                _afterHash,\n                _logsHash,\n                _messageData,\n                _messageDestination\n            ))\n        )));\n        \n        vm.inboxHash = _newInbox;\n        _acceptAssertion(\n            _vmId,\n            _afterHash,\n            _tokenTypes,\n            _messageData,\n            _messageTokenNum,\n            _messageAmount,\n            _messageDestination\n        );\n\n        emit ConfirmedUnanimousAssertion(\n            _vmId,\n            vm.sequenceOrAsserterNum\n        );\n    }\n\n\n\n    // fields:\n    // _vmId\n    // _beforeHash\n    // _beforeInbox\n    // _afterHash\n    // _logsHash\n\n    function disputableAssert(\n        bytes32[5] memory _fields,\n        uint16 _asserterNum,\n        uint32 _numSteps,\n        uint64[2] memory timeBounds,\n        bytes memory _asserterProof,\n        bytes21[] memory _tokenTypes,\n        bytes32[] memory _messageDataHash,\n        uint16[] memory _messageTokenNum,\n        uint256[] memory _msgAmount,\n        bytes32[] memory _msgDestination\n    ) public {\n        return disputableAssertImpl(DisputableAssertData(\n            _fields[0],\n            _fields[1],\n            _fields[2],\n            _fields[3],\n            _fields[4],\n            _asserterNum,\n            _numSteps,\n            timeBounds,\n            _asserterProof,\n            _tokenTypes,\n            _messageDataHash,\n            _messageTokenNum,\n            _msgAmount,\n            _msgDestination\n        ));\n    }\n\n    struct DisputableAssertData {\n        bytes32 vmId;\n        bytes32 beforeHash;\n        bytes32 beforeInbox;\n        bytes32 afterHash;\n        bytes32 logsHash;\n        uint16 asserterNum;\n        uint32 numSteps;\n        uint64[2] timeBounds;\n        bytes asserterProof;\n        bytes21[] tokenTypes;\n        bytes32[] messageDataHash;\n        uint16[] messageTokenNum;\n        uint256[] msgAmount;\n        bytes32[] msgDestination;\n    }\n\n    function disputableAssertImpl(DisputableAssertData memory _data) internal {\n        VM storage vm = vms[_data.vmId];\n        \n        require(vm.state == VMState.Waiting, \"Can only disputable assert from waiting state\");\n        require(!vm.inChallenge);\n        require(vm.escrowRequired <= vm.managerBalances[_data.asserterNum], \"Manager does not have required escrow\");\n        require(_data.asserterNum < vm.managerCount, \"Invalid manager num\");\n        require(MerkleLib.verifyProof(\n            _data.asserterProof,\n            vm.managerRoot,\n            bytes32(bytes20(msg.sender)),\n            _data.asserterNum + 1\n        ), \"Incorrect manager key proof\");\n        require(_data.numSteps <= vm.maxExecutionSteps, \"Tried to execute too many steps\");\n        require(withinTimeBounds(_data.timeBounds), \"Precondition: not within time bounds\");\n        require(_data.beforeHash == vm.machineHash, \"Precondition: state hash does not match\");\n        require(\n            _data.beforeInbox == vm.inboxHash ||\n            _data.beforeInbox == ArbProtocol.appendInboxMessages(vm.inboxHash, vm.pendingMessages)\n        , \"Precondition: inbox does not match\");\n\n        uint256[] memory beforeBalances = ArbProtocol.calculateBeforeValues(\n            _data.tokenTypes,\n            _data.messageTokenNum,\n            _data.msgAmount\n        );\n\n        arbBalanceTracker.hasFunds(\n            _data.vmId,\n            _data.tokenTypes,\n            beforeBalances\n        );\n        _resetDeadline(vm);\n\n        bytes32 lastMessageHash = ArbProtocol.generateLastMessageHashStub(\n            _data.tokenTypes,\n            _data.messageDataHash,\n            _data.messageTokenNum,\n            _data.msgAmount,\n            _data.msgDestination\n        );\n\n        vm.disputableHash = keccak256(abi.encodePacked(\n            keccak256(abi.encodePacked(\n                ArbProtocol.generatePreconditionHash(\n                    _data.beforeHash,\n                    _data.timeBounds,\n                    _data.beforeInbox,\n                    _data.tokenTypes,\n                    beforeBalances\n                ),\n                ArbProtocol.generateAssertionHash(\n                    _data.afterHash,\n                    _data.numSteps,\n                    0x00,\n                    lastMessageHash,\n                    0x00,\n                    _data.logsHash,\n                    beforeBalances\n                )\n            )),\n            msg.sender\n        ));\n        vm.managerBalances[vm.sequenceOrAsserterNum] = vm.managerBalances[vm.sequenceOrAsserterNum].sub(vm.escrowRequired);\n        vm.sequenceOrAsserterNum = uint64(_data.asserterNum);\n        vm.state = VMState.PendingAssertion;\n\n        emit DisputableAssertion(\n            _data.vmId,\n            [_data.beforeHash, _data.beforeInbox, _data.afterHash],\n            msg.sender,\n            _data.timeBounds,\n            _data.tokenTypes,\n            _data.numSteps,\n            lastMessageHash,\n            _data.logsHash,\n            beforeBalances\n        );\n    }\n\n    // fields:\n    // _vmId\n    // _preconditionHash\n    // _afterHash\n    // _logsHash\n\n    struct confirmAssertedData{\n        bytes32 vmId;\n        bytes32 preconditionHash;\n        bytes32 afterHash;\n        bytes32 logsHash;\n        address asserterKey;\n        uint32  numSteps;\n        bytes21[] tokenTypes;\n        bytes messageData;\n        uint16[] messageTokenNums;\n        uint256[] messageAmounts;\n        bytes32[] messageDestination;\n    }\n\n    function confirmAsserted(\n        bytes32 _vmId,\n        bytes32 _preconditionHash,\n        bytes32 _afterHash,\n        bytes32 _logsHash,\n        address _asserterKey,\n        uint32 _numSteps,\n        bytes21[] memory _tokenTypes,\n        bytes memory _messageData,\n        uint16[] memory _messageTokenNums,\n        uint256[] memory _messageAmounts,\n        bytes32[] memory _messageDestination\n    ) public {\n        return confirmAssertedImpl(confirmAssertedData(\n            _vmId,\n            _preconditionHash,\n            _afterHash,\n            _logsHash,\n            _asserterKey,\n            _numSteps,\n            _tokenTypes,\n            _messageData,\n            _messageTokenNums,\n            _messageAmounts,\n            _messageDestination\n        ));\n    }\n\n    function confirmAssertedImpl(confirmAssertedData memory _data) internal {\n        VM storage vm = vms[_data.vmId];\n        require(vm.state == VMState.PendingAssertion, \"VM does not have assertion pending\");\n        require(block.number > vm.deadline, \"Assertion is still pending challenge\");\n        require(\n            keccak256(abi.encodePacked(\n                keccak256(abi.encodePacked(\n                    _data.preconditionHash,\n                    ArbProtocol.generateAssertionHash(\n                        _data.afterHash,\n                        _data.numSteps,\n                        0x00,\n                        ArbProtocol.generateLastMessageHash(\n                            _data.tokenTypes,\n                            _data.messageData,\n                            _data.messageTokenNums,\n                            _data.messageAmounts,\n                            _data.messageDestination\n                        ),\n                        0x00,\n                        _data.logsHash,\n                        ArbProtocol.calculateBeforeValues(\n                            _data.tokenTypes,\n                            _data.messageTokenNums,\n                            _data.messageAmounts\n                        )\n                    )\n                )),\n                _data.asserterKey\n            )) == vm.disputableHash,\n            \"Precondition and assertion do not match pending assertion\"\n        );\n        vm.managerBalances[vm.sequenceOrAsserterNum] = vm.managerBalances[vm.sequenceOrAsserterNum].add(vm.escrowRequired);\n        _acceptAssertion(\n            _data.vmId,\n            _data.afterHash,\n            _data.tokenTypes,\n            _data.messageData,\n            _data.messageTokenNums,\n            _data.messageAmounts,\n            _data.messageDestination\n        );\n\n        emit ConfirmedAssertion(\n            _data.vmId,\n            _data.afterHash\n        );\n    }\n\n    event InitiatedChallenge(\n        bytes32 indexed vmId,\n        address challenger\n    );\n\n    // fields\n    // _vmId\n    // _assertionHash\n\n    function initiateChallenge(\n        bytes32 _vmId,\n        bytes32 _assertPreHash,\n        address _asserterKey,\n        uint16 _challengerNum,\n        bytes memory _challengerProof\n    ) public {\n        require(msg.sender != _asserterKey, \"Challenge was created by asserter\");\n\n        VM storage vm = vms[_vmId];\n        require(block.number <= vm.deadline, \"Challenge did not come before deadline\");\n        require(vm.state == VMState.PendingAssertion, \"Assertion must be pending to initiate challenge\");\n        require(_challengerNum < vm.managerCount, \"Challenger num must be for a valid manager\");\n        require(MerkleLib.verifyProof(\n            _challengerProof,\n            vm.managerRoot,\n            bytes32(bytes20(msg.sender)),\n            _challengerNum + 1\n        ), \"Invalid manager proof\");\n        require(vm.escrowRequired <= vm.managerBalances[_challengerNum], \"Challenger did not have enough escrowed\");\n\n        require(\n            keccak256(abi.encodePacked(_assertPreHash, _asserterKey))\n            == vm.disputableHash,\n            \"Precondition and assertion do not match pending assertion\"\n        );\n        \n        vm.managerBalances[_challengerNum] = vm.managerBalances[_challengerNum].sub(vm.escrowRequired);\n        vm.disputableHash = 0;\n        vm.state = VMState.Waiting;\n        vm.inChallenge = true;\n\n        challengeManagers[vm.challengeManagersNum].initiateChallenge(\n            _vmId,\n            [_asserterKey, msg.sender],\n            [uint16(vm.sequenceOrAsserterNum), _challengerNum],\n            [vm.escrowRequired, vm.escrowRequired],\n            vm.gracePeriod,\n            _assertPreHash\n        );\n        emit InitiatedChallenge(\n            _vmId,\n            msg.sender\n        );\n    }\n\n\n    function completeChallenge(bytes32 _vmId, uint16[2] calldata _playerNums, uint128[2] calldata _rewards) external {\n        VM storage vm = vms[_vmId];\n        require(msg.sender == address(challengeManagers[vm.challengeManagersNum]));\n        require(vm.inChallenge);\n\n        vm.inChallenge = false;\n        vm.managerBalances[_playerNums[0]] = vm.managerBalances[_playerNums[0]].add(_rewards[0]);\n        vm.managerBalances[_playerNums[1]] = vm.managerBalances[_playerNums[1]].add(_rewards[1]);\n    }\n}",
  "sourcePath": "/Users/hkalodner/Documents/OffchainLabs/Github/arb-ethbridge/contracts/VMTracker.sol",
  "compiler": {
    "name": "solc",
    "version": "0.5.3+commit.10d17f24.Emscripten.clang"
  },
  "schemaVersion": "3.0.9",
  "updatedAt": "2019-05-31T01:36:26.156Z",
  "devdoc": {
    "methods": {
      "isOwner()": {
        "return": "true if `msg.sender` is the owner of the contract."
      },
      "owner()": {
        "return": "the address of the owner."
      },
      "renounceOwnership()": {
        "details": "Allows the current owner to relinquish control of the contract."
      },
      "transferOwnership(address)": {
        "details": "Allows the current owner to transfer control of the contract to a newOwner.",
        "params": {
          "newOwner": "The address to transfer ownership to."
        }
      }
    }
  },
  "userdoc": {
    "methods": {
      "renounceOwnership()": {
        "notice": "Renouncing to ownership will leave the contract without an owner. It will not be possible to call the functions with the `onlyOwner` modifier anymore."
      }
    }
  }
}