{
  "contractName": "VMTracker",
  "abi": [
    {
      "constant": false,
      "inputs": [],
      "name": "renounceOwnership",
      "outputs": [],
      "payable": false,
      "stateMutability": "nonpayable",
      "type": "function"
    },
    {
      "constant": true,
      "inputs": [],
      "name": "owner",
      "outputs": [
        {
          "name": "",
          "type": "address"
        }
      ],
      "payable": false,
      "stateMutability": "view",
      "type": "function"
    },
    {
      "constant": true,
      "inputs": [],
      "name": "isOwner",
      "outputs": [
        {
          "name": "",
          "type": "bool"
        }
      ],
      "payable": false,
      "stateMutability": "view",
      "type": "function"
    },
    {
      "constant": false,
      "inputs": [
        {
          "name": "newOwner",
          "type": "address"
        }
      ],
      "name": "transferOwnership",
      "outputs": [],
      "payable": false,
      "stateMutability": "nonpayable",
      "type": "function"
    },
    {
      "inputs": [
        {
          "name": "_balanceTrackerAddress",
          "type": "address"
        }
      ],
      "payable": false,
      "stateMutability": "nonpayable",
      "type": "constructor"
    },
    {
      "anonymous": false,
      "inputs": [
        {
          "indexed": true,
          "name": "vmId",
          "type": "bytes32"
        },
        {
          "indexed": false,
          "name": "destination",
          "type": "bytes32"
        },
        {
          "indexed": false,
          "name": "tokenType",
          "type": "bytes21"
        },
        {
          "indexed": false,
          "name": "value",
          "type": "uint256"
        },
        {
          "indexed": false,
          "name": "data",
          "type": "bytes"
        }
      ],
      "name": "MessageDelivered",
      "type": "event"
    },
    {
      "anonymous": false,
      "inputs": [
        {
          "indexed": true,
          "name": "vmId",
          "type": "bytes32"
        },
        {
          "indexed": false,
          "name": "_gracePeriod",
          "type": "uint32"
        },
        {
          "indexed": false,
          "name": "_escrowRequired",
          "type": "uint128"
        },
        {
          "indexed": false,
          "name": "_escrowCurrency",
          "type": "address"
        },
        {
          "indexed": false,
          "name": "_maxExecutionSteps",
          "type": "uint32"
        },
        {
          "indexed": false,
          "name": "_vmState",
          "type": "bytes32"
        },
        {
          "indexed": false,
          "name": "_challengeManagerNum",
          "type": "uint16"
        },
        {
          "indexed": false,
          "name": "_owner",
          "type": "address"
        },
        {
          "indexed": false,
          "name": "validators",
          "type": "address[]"
        }
      ],
      "name": "VMCreated",
      "type": "event"
    },
    {
      "anonymous": false,
      "inputs": [
        {
          "indexed": true,
          "name": "vmId",
          "type": "bytes32"
        },
        {
          "indexed": false,
          "name": "unanHash",
          "type": "bytes32"
        },
        {
          "indexed": false,
          "name": "sequenceNum",
          "type": "uint64"
        }
      ],
      "name": "PendingUnanimousAssertion",
      "type": "event"
    },
    {
      "anonymous": false,
      "inputs": [
        {
          "indexed": true,
          "name": "vmId",
          "type": "bytes32"
        },
        {
          "indexed": false,
          "name": "sequenceNum",
          "type": "uint64"
        }
      ],
      "name": "ConfirmedUnanimousAssertion",
      "type": "event"
    },
    {
      "anonymous": false,
      "inputs": [
        {
          "indexed": true,
          "name": "vmId",
          "type": "bytes32"
        },
        {
          "indexed": false,
          "name": "unanHash",
          "type": "bytes32"
        }
      ],
      "name": "FinalizedUnanimousAssertion",
      "type": "event"
    },
    {
      "anonymous": false,
      "inputs": [
        {
          "indexed": true,
          "name": "vmId",
          "type": "bytes32"
        },
        {
          "indexed": false,
          "name": "fields",
          "type": "bytes32[3]"
        },
        {
          "indexed": false,
          "name": "asserter",
          "type": "address"
        },
        {
          "indexed": false,
          "name": "timeBounds",
          "type": "uint64[2]"
        },
        {
          "indexed": false,
          "name": "tokenTypes",
          "type": "bytes21[]"
        },
        {
          "indexed": false,
          "name": "numSteps",
          "type": "uint32"
        },
        {
          "indexed": false,
          "name": "lastMessageHash",
          "type": "bytes32"
        },
        {
          "indexed": false,
          "name": "logsAccHash",
          "type": "bytes32"
        },
        {
          "indexed": false,
          "name": "amounts",
          "type": "uint256[]"
        }
      ],
      "name": "PendingDisputableAssertion",
      "type": "event"
    },
    {
      "anonymous": false,
      "inputs": [
        {
          "indexed": true,
          "name": "vmId",
          "type": "bytes32"
        },
        {
          "indexed": false,
          "name": "newState",
          "type": "bytes32"
        },
        {
          "indexed": false,
          "name": "logsAccHash",
          "type": "bytes32"
        }
      ],
      "name": "ConfirmedDisputableAssertion",
      "type": "event"
    },
    {
      "anonymous": false,
      "inputs": [
        {
          "indexed": true,
          "name": "vmId",
          "type": "bytes32"
        },
        {
          "indexed": false,
          "name": "challenger",
          "type": "address"
        }
      ],
      "name": "InitiatedChallenge",
      "type": "event"
    },
    {
      "anonymous": false,
      "inputs": [
        {
          "indexed": true,
          "name": "previousOwner",
          "type": "address"
        },
        {
          "indexed": true,
          "name": "newOwner",
          "type": "address"
        }
      ],
      "name": "OwnershipTransferred",
      "type": "event"
    },
    {
      "constant": false,
      "inputs": [
        {
          "name": "_challengeManager",
          "type": "address"
        }
      ],
      "name": "addChallengeManager",
      "outputs": [],
      "payable": false,
      "stateMutability": "nonpayable",
      "type": "function"
    },
    {
      "constant": true,
      "inputs": [
        {
          "name": "_timeBounds",
          "type": "uint64[2]"
        }
      ],
      "name": "withinTimeBounds",
      "outputs": [
        {
          "name": "",
          "type": "bool"
        }
      ],
      "payable": false,
      "stateMutability": "view",
      "type": "function"
    },
    {
      "constant": false,
      "inputs": [
        {
          "name": "_fields",
          "type": "bytes32[3]"
        },
        {
          "name": "_gracePeriod",
          "type": "uint32"
        },
        {
          "name": "_maxExecutionSteps",
          "type": "uint32"
        },
        {
          "name": "_challengeManagerNum",
          "type": "uint16"
        },
        {
          "name": "_escrowRequired",
          "type": "uint128"
        },
        {
          "name": "_escrowCurrency",
          "type": "address"
        },
        {
          "name": "_owner",
          "type": "address"
        },
        {
          "name": "_signatures",
          "type": "bytes"
        }
      ],
      "name": "createVm",
      "outputs": [],
      "payable": false,
      "stateMutability": "nonpayable",
      "type": "function"
    },
    {
      "constant": false,
      "inputs": [
        {
          "name": "_vmId",
          "type": "bytes32"
        }
      ],
      "name": "ownerShutdown",
      "outputs": [],
      "payable": false,
      "stateMutability": "nonpayable",
      "type": "function"
    },
    {
      "constant": false,
      "inputs": [
        {
          "name": "_destination",
          "type": "bytes32"
        },
        {
          "name": "_tokenType",
          "type": "bytes21"
        },
        {
          "name": "_amount",
          "type": "uint256"
        },
        {
          "name": "_data",
          "type": "bytes"
        }
      ],
      "name": "sendMessage",
      "outputs": [],
      "payable": false,
      "stateMutability": "nonpayable",
      "type": "function"
    },
    {
      "constant": false,
      "inputs": [
        {
          "name": "_destination",
          "type": "bytes32"
        },
        {
          "name": "_tokenType",
          "type": "bytes21"
        },
        {
          "name": "_amount",
          "type": "uint256"
        },
        {
          "name": "_data",
          "type": "bytes"
        },
        {
          "name": "_signature",
          "type": "bytes"
        }
      ],
      "name": "forwardMessage",
      "outputs": [],
      "payable": false,
      "stateMutability": "nonpayable",
      "type": "function"
    },
    {
      "constant": false,
      "inputs": [
        {
          "name": "_destination",
          "type": "bytes32"
        },
        {
          "name": "_data",
          "type": "bytes"
        }
      ],
      "name": "sendEthMessage",
      "outputs": [],
      "payable": true,
      "stateMutability": "payable",
      "type": "function"
    },
    {
      "constant": false,
      "inputs": [
        {
          "name": "_vmId",
          "type": "bytes32"
        },
        {
          "name": "_afterHash",
          "type": "bytes32"
        },
        {
          "name": "_newInbox",
          "type": "bytes32"
        },
        {
          "name": "_timeBounds",
          "type": "uint64[2]"
        },
        {
          "name": "_tokenTypes",
          "type": "bytes21[]"
        },
        {
          "name": "_messageData",
          "type": "bytes"
        },
        {
          "name": "_messageTokenNum",
          "type": "uint16[]"
        },
        {
          "name": "_messageAmount",
          "type": "uint256[]"
        },
        {
          "name": "_messageDestination",
          "type": "bytes32[]"
        },
        {
          "name": "_logsAccHash",
          "type": "bytes32"
        },
        {
          "name": "_signatures",
          "type": "bytes"
        }
      ],
      "name": "finalizedUnanimousAssert",
      "outputs": [],
      "payable": false,
      "stateMutability": "nonpayable",
      "type": "function"
    },
    {
      "constant": false,
      "inputs": [
        {
          "name": "_vmId",
          "type": "bytes32"
        },
        {
          "name": "_unanRest",
          "type": "bytes32"
        },
        {
          "name": "_timeBounds",
          "type": "uint64[2]"
        },
        {
          "name": "_tokenTypes",
          "type": "bytes21[]"
        },
        {
          "name": "_messageTokenNum",
          "type": "uint16[]"
        },
        {
          "name": "_messageAmount",
          "type": "uint256[]"
        },
        {
          "name": "_sequenceNum",
          "type": "uint64"
        },
        {
          "name": "_logsAccHash",
          "type": "bytes32"
        },
        {
          "name": "_signatures",
          "type": "bytes"
        }
      ],
      "name": "pendingUnanimousAssert",
      "outputs": [],
      "payable": false,
      "stateMutability": "nonpayable",
      "type": "function"
    },
    {
      "constant": false,
      "inputs": [
        {
          "name": "_vmId",
          "type": "bytes32"
        },
        {
          "name": "_afterHash",
          "type": "bytes32"
        },
        {
          "name": "_newInbox",
          "type": "bytes32"
        },
        {
          "name": "_tokenTypes",
          "type": "bytes21[]"
        },
        {
          "name": "_messageData",
          "type": "bytes"
        },
        {
          "name": "_messageTokenNum",
          "type": "uint16[]"
        },
        {
          "name": "_messageAmount",
          "type": "uint256[]"
        },
        {
          "name": "_messageDestination",
          "type": "bytes32[]"
        }
      ],
      "name": "ConfirmUnanimousAsserted",
      "outputs": [],
      "payable": false,
      "stateMutability": "nonpayable",
      "type": "function"
    },
    {
      "constant": false,
      "inputs": [
        {
          "name": "_fields",
          "type": "bytes32[5]"
        },
        {
          "name": "_numSteps",
          "type": "uint32"
        },
        {
          "name": "timeBounds",
          "type": "uint64[2]"
        },
        {
          "name": "_tokenTypes",
          "type": "bytes21[]"
        },
        {
          "name": "_messageDataHash",
          "type": "bytes32[]"
        },
        {
          "name": "_messageTokenNum",
          "type": "uint16[]"
        },
        {
          "name": "_msgAmount",
          "type": "uint256[]"
        },
        {
          "name": "_msgDestination",
          "type": "bytes32[]"
        }
      ],
      "name": "pendingDisputableAssert",
      "outputs": [],
      "payable": false,
      "stateMutability": "nonpayable",
      "type": "function"
    },
    {
      "constant": false,
      "inputs": [
        {
          "name": "_vmId",
          "type": "bytes32"
        },
        {
          "name": "_preconditionHash",
          "type": "bytes32"
        },
        {
          "name": "_afterHash",
          "type": "bytes32"
        },
        {
          "name": "_numSteps",
          "type": "uint32"
        },
        {
          "name": "_tokenTypes",
          "type": "bytes21[]"
        },
        {
          "name": "_messageData",
          "type": "bytes"
        },
        {
          "name": "_messageTokenNums",
          "type": "uint16[]"
        },
        {
          "name": "_messageAmounts",
          "type": "uint256[]"
        },
        {
          "name": "_messageDestination",
          "type": "bytes32[]"
        },
        {
          "name": "_logsAccHash",
          "type": "bytes32"
        }
      ],
      "name": "confirmDisputableAsserted",
      "outputs": [],
      "payable": false,
      "stateMutability": "nonpayable",
      "type": "function"
    },
    {
      "constant": false,
      "inputs": [
        {
          "name": "_vmId",
          "type": "bytes32"
        },
        {
          "name": "_assertPreHash",
          "type": "bytes32"
        }
      ],
      "name": "initiateChallenge",
      "outputs": [],
      "payable": false,
      "stateMutability": "nonpayable",
      "type": "function"
    },
    {
      "constant": false,
      "inputs": [
        {
          "name": "_vmId",
          "type": "bytes32"
        },
        {
          "name": "_players",
          "type": "address[2]"
        },
        {
          "name": "_rewards",
          "type": "uint128[2]"
        }
      ],
      "name": "completeChallenge",
      "outputs": [],
      "payable": false,
      "stateMutability": "nonpayable",
      "type": "function"
    }
  ],
  "bytecode": "0x60806040523480156200001157600080fd5b5060405160208062005c66833981018060405260208110156200003357600080fd5b505160008054600160a060020a0319163317808255604051600160a060020a039190911691907f8be0079c531659141344cd1fd0a4f28419497f9722a3daafe3b4186f6b6457e0908290a360028054600160a060020a03909216600160a060020a03199092169190911790556000805260046020527f17ef568e3e12ab5b9c7254a8d58478811de00f9e6eb34345acd53bf8fd09d3ec805460ff19166001179055615b8280620000e46000396000f3fe60806040526004361061010d5760003560e060020a900480638f32d59b11610099578063e8a8480e11610068578063e8a8480e146110e8578063f2fde38b1461146c578063fa3eebe61461149f578063fd0961b61461154a578063ffd134c9146115745761010d565b80638f32d59b146109d25780639215f1e6146109e7578063d37a1a9514610c6d578063da9f547a14610dc45761010d565b80636f0edcd5116100e05780636f0edcd5146102b9578063715018a61461059357806380a22d76146105a85780638da5cb5b146108755780638dbc44f6146108a65761010d565b80632e6bf2e6146101125780633cd8a3221461014757806342c0787e1461021957806363d8463714610285575b600080fd5b34801561011e57600080fd5b506101456004803603602081101561013557600080fd5b5035600160a060020a03166115a4565b005b34801561015357600080fd5b506101456004803603608081101561016a57600080fd5b8135916affffffffffffffffffffff196020820135169160408201359190810190608081016060820135602060020a8111156101a557600080fd5b8201836020820111156101b757600080fd5b803590602001918460018302840111602060020a831117156101d857600080fd5b91908080601f016020809104026020016040519081016040528093929190818152602001838380828437600092019190915250929550611615945050505050565b34801561022557600080fd5b506102716004803603604081101561023c57600080fd5b604080518082018252918301929181830191839060029083908390808284376000920191909152509194506116289350505050565b604080519115158252519081900360200190f35b34801561029157600080fd5b50610145600480360360a08110156102a857600080fd5b50803590602081019060600161165a565b3480156102c557600080fd5b5061014560048036036101408110156102dd57600080fd5b81359160208101359160408201359163ffffffff6060820135169181019060a081016080820135602060020a81111561031557600080fd5b82018360208201111561032757600080fd5b803590602001918460208302840111602060020a8311171561034857600080fd5b9190808060200260200160405190810160405280939291908181526020018383602002808284376000920191909152509295949360208101935035915050602060020a81111561039757600080fd5b8201836020820111156103a957600080fd5b803590602001918460018302840111602060020a831117156103ca57600080fd5b91908080601f0160208091040260200160405190810160405280939291908181526020018383808284376000920191909152509295949360208101935035915050602060020a81111561041c57600080fd5b82018360208201111561042e57600080fd5b803590602001918460208302840111602060020a8311171561044f57600080fd5b9190808060200260200160405190810160405280939291908181526020018383602002808284376000920191909152509295949360208101935035915050602060020a81111561049e57600080fd5b8201836020820111156104b057600080fd5b803590602001918460208302840111602060020a831117156104d157600080fd5b9190808060200260200160405190810160405280939291908181526020018383602002808284376000920191909152509295949360208101935035915050602060020a81111561052057600080fd5b82018360208201111561053257600080fd5b803590602001918460208302840111602060020a8311171561055357600080fd5b91908080602002602001604051908101604052809392919081815260200183836020028082843760009201919091525092955050913592506117a2915050565b34801561059f57600080fd5b50610145611803565b3480156105b457600080fd5b5061014560048036036101008110156105cc57600080fd5b81359160208101359160408201359190810190608081016060820135602060020a8111156105f957600080fd5b82018360208201111561060b57600080fd5b803590602001918460208302840111602060020a8311171561062c57600080fd5b9190808060200260200160405190810160405280939291908181526020018383602002808284376000920191909152509295949360208101935035915050602060020a81111561067b57600080fd5b82018360208201111561068d57600080fd5b803590602001918460018302840111602060020a831117156106ae57600080fd5b91908080601f0160208091040260200160405190810160405280939291908181526020018383808284376000920191909152509295949360208101935035915050602060020a81111561070057600080fd5b82018360208201111561071257600080fd5b803590602001918460208302840111602060020a8311171561073357600080fd5b9190808060200260200160405190810160405280939291908181526020018383602002808284376000920191909152509295949360208101935035915050602060020a81111561078257600080fd5b82018360208201111561079457600080fd5b803590602001918460208302840111602060020a831117156107b557600080fd5b9190808060200260200160405190810160405280939291908181526020018383602002808284376000920191909152509295949360208101935035915050602060020a81111561080457600080fd5b82018360208201111561081657600080fd5b803590602001918460208302840111602060020a8311171561083757600080fd5b91908080602002602001604051908101604052809392919081815260200183836020028082843760009201919091525092955061186d945050505050565b34801561088157600080fd5b5061088a611aa8565b60408051600160a060020a039092168252519081900360200190f35b3480156108b257600080fd5b5061014560048036036101408110156108ca57600080fd5b8101908080606001906003806020026040519081016040528092919082600360200280828437600092019190915250919463ffffffff843581169560208601359091169461ffff60408201351694506001608060020a036060820135169350600160a060020a03608082013581169360a083013590911692909160e081019060c00135602060020a81111561095e57600080fd5b82018360208201111561097057600080fd5b803590602001918460018302840111602060020a8311171561099157600080fd5b91908080601f016020809104026020016040519081016040528093929190818152602001838380828437600092019190915250929550611ab7945050505050565b3480156109de57600080fd5b5061027161249c565b3480156109f357600080fd5b506101456004803603610140811015610a0b57600080fd5b6040805180820182528335936020810135938101929091608083019180840190600290839083908082843760009201919091525091949392602081019250359050602060020a811115610a5d57600080fd5b820183602082011115610a6f57600080fd5b803590602001918460208302840111602060020a83111715610a9057600080fd5b9190808060200260200160405190810160405280939291908181526020018383602002808284376000920191909152509295949360208101935035915050602060020a811115610adf57600080fd5b820183602082011115610af157600080fd5b803590602001918460208302840111602060020a83111715610b1257600080fd5b9190808060200260200160405190810160405280939291908181526020018383602002808284376000920191909152509295949360208101935035915050602060020a811115610b6157600080fd5b820183602082011115610b7357600080fd5b803590602001918460208302840111602060020a83111715610b9457600080fd5b919080806020026020016040519081016040528093929190818152602001838360200280828437600092019190915250929567ffffffffffffffff85351695602086013595919450925060608101915060400135602060020a811115610bf957600080fd5b820183602082011115610c0b57600080fd5b803590602001918460018302840111602060020a83111715610c2c57600080fd5b91908080601f0160208091040260200160405190810160405280939291908181526020018383808284376000920191909152509295506124ad945050505050565b348015610c7957600080fd5b50610145600480360360a0811015610c9057600080fd5b8135916affffffffffffffffffffff196020820135169160408201359190810190608081016060820135602060020a811115610ccb57600080fd5b820183602082011115610cdd57600080fd5b803590602001918460018302840111602060020a83111715610cfe57600080fd5b91908080601f0160208091040260200160405190810160405280939291908181526020018383808284376000920191909152509295949360208101935035915050602060020a811115610d5057600080fd5b820183602082011115610d6257600080fd5b803590602001918460018302840111602060020a83111715610d8357600080fd5b91908080601f016020809104026020016040519081016040528093929190818152602001838380828437600092019190915250929550612d39945050505050565b348015610dd057600080fd5b5061014560048036036101a0811015610de857600080fd5b810190808060a00190600580602002604051908101604052809291908260056020028082843760009201919091525050604080518082018252929563ffffffff853516959094909360608201935091602090910190600290839083908082843760009201919091525091949392602081019250359050602060020a811115610e6f57600080fd5b820183602082011115610e8157600080fd5b803590602001918460208302840111602060020a83111715610ea257600080fd5b9190808060200260200160405190810160405280939291908181526020018383602002808284376000920191909152509295949360208101935035915050602060020a811115610ef157600080fd5b820183602082011115610f0357600080fd5b803590602001918460208302840111602060020a83111715610f2457600080fd5b9190808060200260200160405190810160405280939291908181526020018383602002808284376000920191909152509295949360208101935035915050602060020a811115610f7357600080fd5b820183602082011115610f8557600080fd5b803590602001918460208302840111602060020a83111715610fa657600080fd5b9190808060200260200160405190810160405280939291908181526020018383602002808284376000920191909152509295949360208101935035915050602060020a811115610ff557600080fd5b82018360208201111561100757600080fd5b803590602001918460208302840111602060020a8311171561102857600080fd5b9190808060200260200160405190810160405280939291908181526020018383602002808284376000920191909152509295949360208101935035915050602060020a81111561107757600080fd5b82018360208201111561108957600080fd5b803590602001918460208302840111602060020a831117156110aa57600080fd5b919080806020026020016040519081016040528093929190818152602001838360200280828437600092019190915250929550612f6c945050505050565b3480156110f457600080fd5b50610145600480360361018081101561110c57600080fd5b60408051808201825283359360208101359383820135939082019260a08301916060840190600290839083908082843760009201919091525091949392602081019250359050602060020a81111561116357600080fd5b82018360208201111561117557600080fd5b803590602001918460208302840111602060020a8311171561119657600080fd5b9190808060200260200160405190810160405280939291908181526020018383602002808284376000920191909152509295949360208101935035915050602060020a8111156111e557600080fd5b8201836020820111156111f757600080fd5b803590602001918460018302840111602060020a8311171561121857600080fd5b91908080601f0160208091040260200160405190810160405280939291908181526020018383808284376000920191909152509295949360208101935035915050602060020a81111561126a57600080fd5b82018360208201111561127c57600080fd5b803590602001918460208302840111602060020a8311171561129d57600080fd5b9190808060200260200160405190810160405280939291908181526020018383602002808284376000920191909152509295949360208101935035915050602060020a8111156112ec57600080fd5b8201836020820111156112fe57600080fd5b803590602001918460208302840111602060020a8311171561131f57600080fd5b9190808060200260200160405190810160405280939291908181526020018383602002808284376000920191909152509295949360208101935035915050602060020a81111561136e57600080fd5b82018360208201111561138057600080fd5b803590602001918460208302840111602060020a831117156113a157600080fd5b91908080602002602001604051908101604052809392919081815260200183836020028082843760009201919091525092958435959094909350604081019250602001359050602060020a8111156113f857600080fd5b82018360208201111561140a57600080fd5b803590602001918460018302840111602060020a8311171561142b57600080fd5b91908080601f016020809104026020016040519081016040528093929190818152602001838380828437600092019190915250929550612ff1945050505050565b34801561147857600080fd5b506101456004803603602081101561148f57600080fd5b5035600160a060020a0316613053565b610145600480360360408110156114b557600080fd5b81359190810190604081016020820135602060020a8111156114d657600080fd5b8201836020820111156114e857600080fd5b803590602001918460018302840111602060020a8311171561150957600080fd5b91908080601f016020809104026020016040519081016040528093929190818152602001838380828437600092019190915250929550613072945050505050565b34801561155657600080fd5b506101456004803603602081101561156d57600080fd5b5035613108565b34801561158057600080fd5b506101456004803603604081101561159757600080fd5b5080359060200135613183565b6115ac61249c565b15156115b757600080fd5b6001805480820182556000919091527fb10e2d527612073b26eecdfd717e6a320cf44b4afac2b0732d9fcbe2b7fa0cf601805473ffffffffffffffffffffffffffffffffffffffff1916600160a060020a0392909216919091179055565b6116228484843385613550565b50505050565b805160009067ffffffffffffffff1643108015906116545750602082015167ffffffffffffffff164311155b92915050565b6000838152600360205260409020600b8101546001805490916a0100000000000000000000900461ffff1690811061168e57fe5b600091825260209091200154600160a060020a031633146116ae57600080fd5b600b8101546d0100000000000000000000000000900460ff1615156116d257600080fd5b600b810180546dff000000000000000000000000001916905561173f6001608060020a03833516600c8301600086815b6020020135600160a060020a0316600160a060020a0316600160a060020a031681526020019081526020016000205461371090919063ffffffff16565b8335600160a060020a03166000908152600c830160208181526040832093909355611779928501356001608060020a031691866001611702565b600160a060020a03602094850135166000908152600c9290920190935260409020919091555050565b6117f7610140604051908101604052808c81526020018b81526020018a81526020018963ffffffff16815260200188815260200187815260200186815260200185815260200184815260200183815250613729565b50505050505050505050565b61180b61249c565b151561181657600080fd5b60008054604051600160a060020a03909116907f8be0079c531659141344cd1fd0a4f28419497f9722a3daafe3b4186f6b6457e0908390a36000805473ffffffffffffffffffffffffffffffffffffffff19169055565b60008881526003602052604090206002600b820154606060020a900460ff16600281111561189757fe5b146118a157600080fd5b600a810154608060020a900467ffffffffffffffff1643116118c257600080fd5b858484898b89876040516020018085815260200184815260200183805190602001908083835b602083106119075780518252601f1990920191602091820191016118e8565b51815160209384036101000a60001901801990921691161790528551919093019285810192500280838360005b8381101561194c578181015183820152602001611934565b505050509050019450505050506040516020818303038152906040528051906020012060405160200180858051906020019060200280838360005b8381101561199f578181015183820152602001611987565b50505050905001848051906020019060200280838360005b838110156119cf5781810151838201526020016119b7565b50505050905001838051906020019060200280838360005b838110156119ff5781810151838201526020016119e7565b50505050905001828152602001945050505050604051602081830303815290604052805190602001208160010154141515611a3957600080fd5b60028101879055611a4f89898888888888613e0a565b600a8101546040805167ffffffffffffffff60c060020a909304929092168252518a917fd23ef3a25058f2acee4ca7aee5cc78a587b9fc76d2875098af1ffdfc2bcc74c9919081900360200190a2505050505050505050565b600054600160a060020a031690565b805162010000906041900410611b17576040805160e560020a62461bcd02815260206004820152601360248201527f546f6f206d616e792076616c696461746f727300000000000000000000000000604482015290519081900360640190fd5b87516bffffffffffffffffffffffff1981161415611b7f576040805160e560020a62461bcd02815260206004820152600c60248201527f496e76616c696420766d49640000000000000000000000000000000000000000604482015290519081900360640190fd5b60015461ffff861610611bdc576040805160e560020a62461bcd02815260206004820152601d60248201527f496e76616c6964206368616c6c656e6765206d616e61676572206e756d000000604482015290519081900360640190fd5b60006001608060020a03851611611bf257600080fd5b600160a060020a03831660009081526004602052604090205460ff161515611c4e5760405160e560020a62461bcd0281526004018080602001828103825260298152602001806159e06029913960400191505060405180910390fd5b60408089015181517ff0c8e969000000000000000000000000000000000000000000000000000000008152600481018281526024820193845284516044830152845160609473__ArbProtocol___________________________9463f0c8e969949093889390929160640190602085019080838360005b83811015611cdd578181015183820152602001611cc5565b50505050905090810190601f168015611d0a5780820380516001836020036101000a031916815260200191505b50935050505060006040518083038186803b158015611d2857600080fd5b505af4158015611d3c573d6000803e3d6000fd5b505050506040513d6000823e601f3d908101601f191682016040526020811015611d6557600080fd5b810190808051602060020a811115611d7c57600080fd5b82016020810184811115611d8f57600080fd5b81518560208202830111602060020a82111715611dab57600080fd5b509094508b93508892508791508a90508c600160200201518a8887604051602001808963ffffffff1663ffffffff1660e060020a028152600401886001608060020a03166001608060020a0316608060020a02815260100187600160a060020a0316600160a060020a0316606060020a0281526014018663ffffffff1663ffffffff1660e060020a0281526004018581526020018461ffff1661ffff167e0100000000000000000000000000000000000000000000000000000000000002815260020183600160a060020a0316600160a060020a0316606060020a028152601401828051906020019060200280838360005b83811015611eb5578181015183820152602001611e9d565b505050509050019850505050505050505060405160208183030381529060405280519060200120896002600381101515611eeb57fe5b602002015114611f45576040805160e560020a62461bcd02815260206004820152601560248201527f437265617465206461746120696e636f72726563740000000000000000000000604482015290519081900360640190fd5b60005b815181101561201b576002548251600160a060020a039091169063b8569ccd90849084908110611f7457fe5b90602001906020020151606060020a026bffffffffffffffffffffffff191687896040518463ffffffff1660e060020a0281526004018084815260200183600160a060020a0316600160a060020a03168152602001826001608060020a031681526020019350505050600060405180830381600087803b158015611ff757600080fd5b505af115801561200b573d6000803e3d6000fd5b505060019092019150611f489050565b50885160009081526003602052604090208960016020020151816000018190555073__ArbValue______________________________63364df2776040518163ffffffff1660e060020a02815260040160206040518083038186803b15801561208357600080fd5b505af4158015612097573d6000803e3d6000fd5b505050506040513d60208110156120ad57600080fd5b50516002820155604080517f364df277000000000000000000000000000000000000000000000000000000008152905173__ArbValue______________________________9163364df277916004808301926020929190829003018186803b15801561211857600080fd5b505af415801561212c573d6000803e3d6000fd5b505050506040513d602081101561214257600080fd5b50516003820155600b810180546bffff0000000000000000000019166a010000000000000000000061ffff8a1602176cff000000000000000000000000191690556000600182018190556040517f6a2dda6700000000000000000000000000000000000000000000000000000000815260206004820181815285516024840152855173__MerkleLib_____________________________94636a2dda67948894849360449092019286820192909102908190849084905b838110156122115781810151838201526020016121f9565b505050509050019250505060206040518083038186803b15801561223457600080fd5b505af4158015612248573d6000803e3d6000fd5b505050506040513d602081101561225e57600080fd5b505160048201558151600b82018054600a840180546fffffffffffffffffffffffffffffffff19166001608060020a038b1617905560098401805473ffffffffffffffffffffffffffffffffffffffff19908116600160a060020a038b81169190911790925560078601805490911691891691909117905569ffff000000000000000019166801000000000000000061ffff909316929092029190911763ffffffff191663ffffffff8b81169190911767ffffffff000000001916602060020a918b169190910217905560005b825181101561237d57866001608060020a031682600c016000858481518110151561235257fe5b6020908102909101810151600160a060020a031682528101919091526040016000205560010161232b565b5089600060200201517f4b2401fcd345e80785cf05556c9dc50bc985a521241d1e3037b4ad86c77f62418a88888c8f600160200201518d8b8a604051808963ffffffff1663ffffffff168152602001886001608060020a03166001608060020a0316815260200187600160a060020a0316600160a060020a031681526020018663ffffffff1663ffffffff1681526020018581526020018461ffff1661ffff16815260200183600160a060020a0316600160a060020a0316815260200180602001828103825283818151815260200191508051906020019060200280838360005b8381101561247657818101518382015260200161245e565b50505050905001995050505050505050505060405180910390a250505050505050505050565b600054600160a060020a0316331490565b60008981526003602052604090206124c488611628565b15156125045760405160e560020a62461bcd028152600401808060200182810382526024815260200180615a4f6024913960400191505060405180910390fd5b8054151561251157600080fd5b60008a8a8a846000015485600201548c8c8c8c6040516020018089815260200188600260200280838360005b8381101561255557818101518382015260200161253d565b50505050905001878152602001868152602001858051906020019060200280838360005b83811015612591578181015183820152602001612579565b50505050905001848051906020019060200280838360005b838110156125c15781810151838201526020016125a9565b50505050905001838051906020019060200280838360005b838110156125f15781810151838201526020016125d9565b505050509050018267ffffffffffffffff1667ffffffffffffffff1660c060020a028152600801985050505050505050506040516020818303038152906040528051906020012085604051602001808481526020018381526020018281526020019350505050604051602081830303815290604052805190602001209050816004015473__MerkleLib_____________________________636a2dda6773__ArbProtocol___________________________63f0c8e96985886040518363ffffffff1660e060020a0281526004018083815260200180602001828103825283818151815260200191508051906020019080838360005b838110156126ff5781810151838201526020016126e7565b50505050905090810190601f16801561272c5780820380516001836020036101000a031916815260200191505b50935050505060006040518083038186803b15801561274a57600080fd5b505af415801561275e573d6000803e3d6000fd5b505050506040513d6000823e601f3d908101601f19168201604052602081101561278757600080fd5b810190808051602060020a81111561279e57600080fd5b820160208101848111156127b157600080fd5b81518560208202830111602060020a821117156127cd57600080fd5b505060405160e060020a63ffffffff87160281526020600482018181528351602484015283519396509450849350604490910191818601910280838360005b8381101561282457818101518382015260200161280c565b505050509050019250505060206040518083038186803b15801561284757600080fd5b505af415801561285b573d6000803e3d6000fd5b505050506040513d602081101561287157600080fd5b5051146128c8576040805160e560020a62461bcd02815260206004820181905260248201527f56616c696461746f72207369676e61747572657320646f6e2774206d61746368604482015290519081900360640190fd5b6002600b830154606060020a900460ff1660028111156128e457fe5b141561290f57600a82015467ffffffffffffffff60c060020a90910481169086161161290f57600080fd5b600260009054906101000a9004600160a060020a0316600160a060020a031663c24651068c8a73__ArbProtocol___________________________630f89fbff8d8d8d6040518463ffffffff1660e060020a02815260040180806020018060200180602001848103845287818151815260200191508051906020019060200280838360005b838110156129ac578181015183820152602001612994565b50505050905001848103835286818151815260200191508051906020019060200280838360005b838110156129eb5781810151838201526020016129d3565b50505050905001848103825285818151815260200191508051906020019060200280838360005b83811015612a2a578181015183820152602001612a12565b50505050905001965050505050505060006040518083038186803b158015612a5157600080fd5b505af4158015612a65573d6000803e3d6000fd5b505050506040513d6000823e601f3d908101601f191682016040526020811015612a8e57600080fd5b810190808051602060020a811115612aa557600080fd5b82016020810184811115612ab857600080fd5b81518560208202830111602060020a82111715612ad457600080fd5b50509291905050506040518463ffffffff1660e060020a028152600401808481526020018060200180602001838103835285818151815260200191508051906020019060200280838360005b83811015612b38578181015183820152602001612b20565b50505050905001838103825284818151815260200191508051906020019060200280838360005b83811015612b77578181015183820152602001612b5f565b5050505090500195505050505050600060405180830381600087803b158015612b9f57600080fd5b505af1158015612bb3573d6000803e3d6000fd5b50505050612bc0826141db565b612bc98261429e565b600b820180546cff00000000000000000000000019166c02000000000000000000000000179055600a8201805477ffffffffffffffffffffffffffffffffffffffffffffffff1660c060020a67ffffffffffffffff88160217905560405188518991899189918e916020918201918291818801910280838360005b83811015612c5c578181015183820152602001612c44565b50505050905001848051906020019060200280838360005b83811015612c8c578181015183820152602001612c74565b50505050905001838051906020019060200280838360005b83811015612cbc578181015183820152602001612ca4565b50505050919091019283525050604080518083038152602080840180845282519290910191909120600189015586905267ffffffffffffffff8a1681830152518f94507f2147b50aa60f106b4862803c213873094d4a6495020f15f436027600a58b1fff9350908190036060019150a25050505050505050505050565b600073__ArbProtocol___________________________63c655d7aa8773__ArbValue______________________________6392516ac7876040518263ffffffff1660e060020a0281526004018080602001828103825283818151815260200191508051906020019080838360005b83811015612dc0578181015183820152602001612da8565b50505050905090810190601f168015612ded5780820380516001836020036101000a031916815260200191505b509250505060206040518083038186803b158015612e0a57600080fd5b505af4158015612e1e573d6000803e3d6000fd5b505050506040513d6020811015612e3457600080fd5b50516040805160208181019490945280820192909252606082018990526affffffffffffffffffffff198a166080830152805160758184030181526095830180835281519185019190912060e060020a63ffffffff8716029091526099830181815260b98401928352885160d985015288519194899491939260f9909201919085019080838360005b83811015612ed5578181015183820152602001612ebd565b50505050905090810190601f168015612f025780820380516001836020036101000a031916815260200191505b50935050505060206040518083038186803b158015612f2057600080fd5b505af4158015612f34573d6000803e3d6000fd5b505050506040513d6020811015612f4a57600080fd5b50519050612f64868686600160a060020a03851687613550565b505050505050565b6040805161018081018252895181526020808b01519082015289820151918101919091526060808a0151908201526080808a01519082015263ffffffff881660a082015260c0810187905260e081018690526101008101859052610120810184905261014081018390526101608101829052612fe7906142ea565b5050505050505050565b613046610160604051908101604052808d81526020018c81526020018b81526020018a815260200189815260200188815260200187815260200186815260200185815260200184815260200183815250614f6b565b5050505050505050505050565b61305b61249c565b151561306657600080fd5b61306f816154d7565b50565b600254604080517fda63d7b6000000000000000000000000000000000000000000000000000000008152600481018590529051600160a060020a039092169163da63d7b6913491602480830192600092919082900301818588803b1580156130d957600080fd5b505af11580156130ed573d6000803e3d6000fd5b506131049350859250600091503490503385615554565b5050565b60008181526003602052604090206007810154600160a060020a0316331461317a576040805160e560020a62461bcd02815260206004820152601e60248201527f4f6e6c79206f776e65722063616e2073687574646f776e2074686520564d0000604482015290519081900360640190fd5b613104826158a6565b60008281526003602052604090206008810154600160a060020a03163314156131e05760405160e560020a62461bcd028152600401808060200182810382526021815260200180615a736021913960400191505060405180910390fd5b600a810154608060020a900467ffffffffffffffff164311156132375760405160e560020a62461bcd028152600401808060200182810382526026815260200180615b046026913960400191505060405180910390fd5b6001600b820154606060020a900460ff16600281111561325357fe5b146132925760405160e560020a62461bcd02815260040180806020018281038252602f8152602001806159b1602f913960400191505060405180910390fd5b336000908152600c82016020526040902054600a8201546001608060020a031611156132f25760405160e560020a62461bcd0281526004018080602001828103825260278152602001806159516027913960400191505060405180910390fd5b600181015482146133375760405160e560020a62461bcd0281526004018080602001828103825260398152602001806159786039913960400191505060405180910390fd5b600a810154336000908152600c83016020526040902054613366916001608060020a031663ffffffff61593b16565b336000908152600c83016020526040812091909155600180830191909155600b820180546d01000000000000000000000000006dffff00000000000000000000000019909116179081905581546a010000000000000000000090910461ffff169081106133cf57fe5b60009182526020808320909101546040805180820182526008860154600160a060020a039081168252338286015282518084018452600a8801546001608060020a031680825295810195909552600b87015483517f2b50d42b000000000000000000000000000000000000000000000000000000008152600481018b81529290951696632b50d42b968b969495909463ffffffff909316938b93909260249091019187918190849084905b8381101561349257818101518382015260200161347a565b5050505090500184600260200280838360005b838110156134bd5781810151838201526020016134a5565b505050509050018363ffffffff1663ffffffff16815260200182815260200195505050505050600060405180830381600087803b1580156134fd57600080fd5b505af1158015613511573d6000803e3d6000fd5b50506040805133815290518693507fb8d6a904566965067cb7e3e946d2a494a4b1f955ffec3e72e1e6ebe4e8e52c7292509081900360200190a2505050565b8360141a7f0100000000000000000000000000000000000000000000000000000000000000027effffffffffffffffffffffffffffffffffffffffffffffffffffffffffffff191660017f010000000000000000000000000000000000000000000000000000000000000002141561366157600254604080517fcdf25dc10000000000000000000000000000000000000000000000000000000081526004810185905260248101889052600160a060020a03606060020a880481166044830152606482018790529151919092169163cdf25dc191608480830192600092919082900301818387803b15801561364457600080fd5b505af1158015613658573d6000803e3d6000fd5b505050506136fc565b600254604080517f1240117b0000000000000000000000000000000000000000000000000000000081526004810185905260248101889052600160a060020a03606060020a8804811660448301526064820187905291519190921691631240117b91608480830192600092919082900301818387803b1580156136e357600080fd5b505af11580156136f7573d6000803e3d6000fd5b505050505b6137098585858585615554565b5050505050565b60008282018381101561372257600080fd5b9392505050565b805160009081526003602052604090206001600b820154606060020a900460ff16600281111561375557fe5b146137945760405160e560020a62461bcd028152600401808060200182810382526022815260200180615a2d6022913960400191505060405180910390fd5b600a810154608060020a900467ffffffffffffffff1643116137ea5760405160e560020a62461bcd028152600401808060200182810382526024815260200180615a096024913960400191505060405180910390fd5b8060010154826020015173__ArbProtocol___________________________632090372185604001518660600151600073__ArbProtocol___________________________63252001608a608001518b60a001518c60c001518d60e001518e61010001516040518663ffffffff1660e060020a02815260040180806020018060200180602001806020018060200186810386528b818151815260200191508051906020019060200280838360005b838110156138b0578181015183820152602001613898565b5050505090500186810385528a818151815260200191508051906020019080838360005b838110156138ec5781810151838201526020016138d4565b50505050905090810190601f1680156139195780820380516001836020036101000a031916815260200191505b508681038452895181528951602091820191808c01910280838360005b8381101561394e578181015183820152602001613936565b50505050905001868103835288818151815260200191508051906020019060200280838360005b8381101561398d578181015183820152602001613975565b50505050905001868103825287818151815260200191508051906020019060200280838360005b838110156139cc5781810151838201526020016139b4565b505050509050019a505050505050505050505060206040518083038186803b1580156139f757600080fd5b505af4158015613a0b573d6000803e3d6000fd5b505050506040513d6020811015613a2157600080fd5b810190808051906020019092919050505060008a610120015173__ArbProtocol___________________________630f89fbff8d608001518e60c001518f60e001516040518463ffffffff1660e060020a02815260040180806020018060200180602001848103845287818151815260200191508051906020019060200280838360005b83811015613abd578181015183820152602001613aa5565b50505050905001848103835286818151815260200191508051906020019060200280838360005b83811015613afc578181015183820152602001613ae4565b50505050905001848103825285818151815260200191508051906020019060200280838360005b83811015613b3b578181015183820152602001613b23565b50505050905001965050505050505060006040518083038186803b158015613b6257600080fd5b505af4158015613b76573d6000803e3d6000fd5b505050506040513d6000823e601f3d908101601f191682016040526020811015613b9f57600080fd5b810190808051602060020a811115613bb657600080fd5b82016020810184811115613bc957600080fd5b81518560208202830111602060020a82111715613be557600080fd5b50509291905050506040518863ffffffff1660e060020a028152600401808881526020018763ffffffff1663ffffffff16815260200186600102815260200185815260200184600102815260200183815260200180602001828103825283818151815260200191508051906020019060200280838360005b83811015613c75578181015183820152602001613c5d565b505050509050019850505050505050505060206040518083038186803b158015613c9e57600080fd5b505af4158015613cb2573d6000803e3d6000fd5b505050506040513d6020811015613cc857600080fd5b5051604080516020818101949094528082019290925280518083038201815260609092019052805191012014613d325760405160e560020a62461bcd0281526004018080602001828103825260398152602001806159786039913960400191505060405180910390fd5b600a8101546008820154600160a060020a03166000908152600c83016020526040902054613d6e916001608060020a031663ffffffff61371016565b6008820154600160a060020a03166000908152600c830160205260409081902091909155825190830151608084015160a085015160c086015160e0870151610100880151613dc196959493929190613e0a565b81516040808401516101208501518251918252602082015281517f9116ee6e53cceb1cd0f4ba7dafd4076656846670da45f42fc6dde02c9ebb8cc9929181900390910190a25050565b6000878152600360205260408120606090825b8551811015613fec5773__ArbValue______________________________634d00ef7a89866040518363ffffffff1660e060020a0281526004018080602001838152602001828103825284818151815260200191508051906020019080838360005b83811015613e97578181015183820152602001613e7f565b50505050905090810190601f168015613ec45780820380516001836020036101000a031916815260200191505b50935050505060006040518083038186803b158015613ee257600080fd5b505af4158015613ef6573d6000803e3d6000fd5b505050506040513d6000823e601f3d908101601f191682016040908152811015613f1f57600080fd5b815160208301805191939283019291602060020a811115613f3f57600080fd5b82016020810184811115613f5257600080fd5b8151602060020a811182820187101715613f6b57600080fd5b505089519498509650613fe49389935085925082109050613f8857fe5b906020019060200201518a8984815181101515613fa157fe5b9060200190602002015161ffff16815181101515613fbb57fe5b906020019060200201518884815181101515613fd357fe5b906020019060200201518e87613550565b600101613e1d565b50888155600b810180546cff00000000000000000000000019169055604080517f364df277000000000000000000000000000000000000000000000000000000008152905173__ArbValue______________________________9163364df277916004808301926020929190829003018186803b15801561406c57600080fd5b505af4158015614080573d6000803e3d6000fd5b505050506040513d602081101561409657600080fd5b50516003820154146141cb5773__ArbProtocol___________________________63f11fcc26826002015483600301546040518363ffffffff1660e060020a028152600401808381526020018281526020019250505060206040518083038186803b15801561410457600080fd5b505af4158015614118573d6000803e3d6000fd5b505050506040513d602081101561412e57600080fd5b50516002820155604080517f364df277000000000000000000000000000000000000000000000000000000008152905173__ArbValue______________________________9163364df277916004808301926020929190829003018186803b15801561419957600080fd5b505af41580156141ad573d6000803e3d6000fd5b505050506040513d60208110156141c357600080fd5b505160038201555b8815156117f7576117f78a6158a6565b6000600b820154606060020a900460ff1660028111156141f757fe5b1461421e57600a810154608060020a900467ffffffffffffffff1643111561421e57600080fd5b6001600b820154606060020a900460ff16600281111561423a57fe5b141561306f57600a8101546008820154600160a060020a03166000908152600c8301602052604090205461427c916001608060020a031663ffffffff61371016565b6008820154600160a060020a03166000908152600c8301602052604090205550565b600b810154600a909101805477ffffffffffffffff000000000000000000000000000000001916608060020a63ffffffff909316430167ffffffffffffffff1692909202919091179055565b8051600090815260036020526040812090600b820154606060020a900460ff16600281111561431557fe5b146143545760405160e560020a62461bcd02815260040180806020018281038252602d815260200180615b2a602d913960400191505060405180910390fd5b80541580159061436657508054600114155b151561437157600080fd5b600b8101546d0100000000000000000000000000900460ff161561439457600080fd5b336000908152600c82016020526040902054600a8201546001608060020a031611156143f45760405160e560020a62461bcd028152600401808060200182810382526027815260200180615ab66027913960400191505060405180910390fd5b600b81015460a083015163ffffffff602060020a909204821691161115614465576040805160e560020a62461bcd02815260206004820152601f60248201527f547269656420746f206578656375746520746f6f206d616e7920737465707300604482015290519081900360640190fd5b6144728260c00151611628565b15156144b25760405160e560020a62461bcd028152600401808060200182810382526024815260200180615a4f6024913960400191505060405180910390fd5b80546020830151146144f85760405160e560020a62461bcd028152600401808060200182810382526027815260200180615add6027913960400191505060405180910390fd5b80600201548260400151148061459e575073__ArbProtocol___________________________63f11fcc26826002015483600301546040518363ffffffff1660e060020a028152600401808381526020018281526020019250505060206040518083038186803b15801561456b57600080fd5b505af415801561457f573d6000803e3d6000fd5b505050506040513d602081101561459557600080fd5b50516040830151145b15156145de5760405160e560020a62461bcd028152600401808060200182810382526022815260200180615a946022913960400191505060405180910390fd5b606073__ArbProtocol___________________________630f89fbff8460e001518561012001518661014001516040518463ffffffff1660e060020a02815260040180806020018060200180602001848103845287818151815260200191508051906020019060200280838360005b8381101561466557818101518382015260200161464d565b50505050905001848103835286818151815260200191508051906020019060200280838360005b838110156146a457818101518382015260200161468c565b50505050905001848103825285818151815260200191508051906020019060200280838360005b838110156146e35781810151838201526020016146cb565b50505050905001965050505050505060006040518083038186803b15801561470a57600080fd5b505af415801561471e573d6000803e3d6000fd5b505050506040513d6000823e601f3d908101601f19168201604052602081101561474757600080fd5b810190808051602060020a81111561475e57600080fd5b8201602081018481111561477157600080fd5b81518560208202830111602060020a8211171561478d57600080fd5b5050600254875160e08901516040517fc246510600000000000000000000000000000000000000000000000000000000815260048101838152606060248301908152835160648401528351969a50600160a060020a03909516985063c24651069750929550909388939160448101916084909101906020808801910280838360005b8381101561482757818101518382015260200161480f565b50505050905001838103825284818151815260200191508051906020019060200280838360005b8381101561486657818101518382015260200161484e565b5050505090500195505050505050600060405180830381600087803b15801561488e57600080fd5b505af11580156148a2573d6000803e3d6000fd5b505050506148af8261429e565b600073__ArbProtocol___________________________63b32774958560e001518661010001518761012001518861014001518961016001516040518663ffffffff1660e060020a02815260040180806020018060200180602001806020018060200186810386528b818151815260200191508051906020019060200280838360005b8381101561494a578181015183820152602001614932565b5050505090500186810385528a818151815260200191508051906020019060200280838360005b83811015614989578181015183820152602001614971565b50505050905001868103845289818151815260200191508051906020019060200280838360005b838110156149c85781810151838201526020016149b0565b50505050905001868103835288818151815260200191508051906020019060200280838360005b83811015614a075781810151838201526020016149ef565b50505050905001868103825287818151815260200191508051906020019060200280838360005b83811015614a46578181015183820152602001614a2e565b505050509050019a505050505050505050505060206040518083038186803b158015614a7157600080fd5b505af4158015614a85573d6000803e3d6000fd5b505050506040513d6020811015614a9b57600080fd5b5051602085015160c086015160408088015160e089015182517f3e2855980000000000000000000000000000000000000000000000000000000081526004810186815296975073__ArbProtocol___________________________96633e2855989695948a9260240190869080838360005b83811015614b25578181015183820152602001614b0d565b505050509050018481526020018060200180602001838103835285818151815260200191508051906020019060200280838360005b83811015614b72578181015183820152602001614b5a565b50505050905001838103825284818151815260200191508051906020019060200280838360005b83811015614bb1578181015183820152602001614b99565b5050505090500197505050505050505060206040518083038186803b158015614bd957600080fd5b505af4158015614bed573d6000803e3d6000fd5b505050506040513d6020811015614c0357600080fd5b5051606085015160a086015160808701516040517f209037210000000000000000000000000000000000000000000000000000000081526004810184815263ffffffff84166024830152600060448301819052606483018890526084830181905260a4830184905260e060c48401908152895160e4850152895173__ArbProtocol___________________________976320903721979096909593948b94869492938e93916101040190602085810191028083838a5b83811015614cd1578181015183820152602001614cb9565b505050509050019850505050505050505060206040518083038186803b158015614cfa57600080fd5b505af4158015614d0e573d6000803e3d6000fd5b505050506040513d6020811015614d2457600080fd5b50516040805160208181019490945280820192909252805180830382018152606090920181528151918301919091206001860155600a850154336000908152600c8701909352912054614d85916001608060020a031663ffffffff61593b16565b336000818152600c8601602052604090209190915560088401805473ffffffffffffffffffffffffffffffffffffffff19169091179055600b83018054600191906cff0000000000000000000000001916606060020a83021790555083600001517f8466b2589a76ab0ff96670e87c3100a0a418647ac17a93ecbde4d036590aa34460606040519081016040528087602001518152602001876040015181526020018760600151815250338760c001518860e001518960a00151878b608001518a6040518089600360200280838360005b83811015614e6e578181015183820152602001614e56565b50505050600160a060020a038b1692019182525060200187604080838360005b83811015614ea6578181015183820152602001614e8e565b50505050905001806020018663ffffffff1663ffffffff16815260200185815260200184815260200180602001838103835288818151815260200191508051906020019060200280838360005b83811015614f0b578181015183820152602001614ef3565b50505050905001838103825284818151815260200191508051906020019060200280838360005b83811015614f4a578181015183820152602001614f32565b505050509050019a505050505050505050505060405180910390a250505050565b8051600090815260036020526040902080541515614f8857600080fd5b614f958260600151611628565b1515614fd55760405160e560020a62461bcd028152600401808060200182810382526024815260200180615a4f6024913960400191505060405180910390fd5b60008260000151836040015184602001518560a001518661010001516040516020018085815260200184815260200183805190602001908083835b6020831061502f5780518252601f199092019160209182019101615010565b51815160209384036101000a60001901801990921691161790528551919093019285810192500280838360005b8381101561507457818101518382015260200161505c565b505050509050019450505050506040516020818303038152906040528051906020012084606001518460000154856002015487608001518860c001518960e001516040516020018088815260200187600260200280838360005b838110156150e65781810151838201526020016150ce565b50505050905001868152602001858152602001848051906020019060200280838360005b8381101561512257818101518382015260200161510a565b50505050905001838051906020019060200280838360005b8381101561515257818101518382015260200161513a565b50505050905001828051906020019060200280838360005b8381101561518257818101518382015260200161516a565b5050505090500197505050505050505060405160208183030381529060405280519060200120846101200151604051602001808481526020018381526020018281526020019350505050604051602081830303815290604052805190602001209050816004015473__MerkleLib_____________________________636a2dda6773__ArbProtocol___________________________63f0c8e969858861014001516040518363ffffffff1660e060020a0281526004018083815260200180602001828103825283818151815260200191508051906020019080838360005b83811015615279578181015183820152602001615261565b50505050905090810190601f1680156152a65780820380516001836020036101000a031916815260200191505b50935050505060006040518083038186803b1580156152c457600080fd5b505af41580156152d8573d6000803e3d6000fd5b505050506040513d6000823e601f3d908101601f19168201604052602081101561530157600080fd5b810190808051602060020a81111561531857600080fd5b8201602081018481111561532b57600080fd5b81518560208202830111602060020a8211171561534757600080fd5b505060405160e060020a63ffffffff87160281526020600482018181528351602484015283519396509450849350604490910191818601910280838360005b8381101561539e578181015183820152602001615386565b505050509050019250505060206040518083038186803b1580156153c157600080fd5b505af41580156153d5573d6000803e3d6000fd5b505050506040513d60208110156153eb57600080fd5b505114615442576040805160e560020a62461bcd02815260206004820181905260248201527f56616c696461746f72207369676e61747572657320646f6e2774206d61746368604482015290519081900360640190fd5b61544b826141db565b600b820180546cff000000000000000000000000191690556040830151600283015582516020840151608085015160a086015160c087015160e088015161010089015161549d96959493929190613e0a565b82516040805183815290517f7349e5fdd7efd858059f6107d3f1309d322a1a495dc102e112296badf7742a869181900360200190a2505050565b600160a060020a03811615156154ec57600080fd5b60008054604051600160a060020a03808516939216917f8be0079c531659141344cd1fd0a4f28419497f9722a3daafe3b4186f6b6457e091a36000805473ffffffffffffffffffffffffffffffffffffffff1916600160a060020a0392909216919091179055565b6bffffffffffffffffffffffff19851685146157d157600085815260036020908152604080832090517f92516ac70000000000000000000000000000000000000000000000000000000081526004810183815285516024830152855192949373__ArbProtocol___________________________93632a0500d8938c9373__ArbValue______________________________936392516ac7938b938392604490910191908501908083838e5b83811015615618578181015183820152602001615600565b50505050905090810190601f1680156156455780820380516001836020036101000a031916815260200191505b509250505060206040518083038186803b15801561566257600080fd5b505af4158015615676573d6000803e3d6000fd5b505050506040513d602081101561568c57600080fd5b50516040805160e060020a63ffffffff8616028152600481019390935260248301919091526affffffffffffffffffffff198a16604483015260648201899052608482018890525160a4808301926020929190829003018186803b1580156156f357600080fd5b505af4158015615707573d6000803e3d6000fd5b505050506040513d602081101561571d57600080fd5b50516003830154604080517fd78d18ea0000000000000000000000000000000000000000000000000000000081526004810192909252602482018390525191925073__ArbProtocol___________________________9163d78d18ea91604480820192602092909190829003018186803b15801561579a57600080fd5b505af41580156157ae573d6000803e3d6000fd5b505050506040513d60208110156157c457600080fd5b5051600390920191909155505b847f983eec3b16cf85cbe329d288a7863b78dc7d1c9a0d690b21434d4cc1f73539e58386868560405180858152602001846affffffffffffffffffffff19166affffffffffffffffffffff1916815260200183815260200180602001828103825283818151815260200191508051906020019080838360005b8381101561586257818101518382015260200161584a565b50505050905090810190601f16801561588f5780820380516001836020036101000a031916815260200191505b509550505050505060405180910390a25050505050565b60009081526003602081905260408220828155600181018390556002810183905590810182905560048101829055600581018290556006810182905560078101805473ffffffffffffffffffffffffffffffffffffffff19908116909155600882018054821690556009820180549091169055600a810191909155600b0180546dffffffffffffffffffffffffffff19169055565b60008282111561594a57600080fd5b5090039056fe4368616c6c656e67657220646964206e6f74206861766520656e6f75676820657363726f776564507265636f6e646974696f6e20616e6420617373657274696f6e20646f206e6f74206d617463682070656e64696e6720617373657274696f6e417373657274696f6e206d7573742062652070656e64696e6720746f20696e697469617465206368616c6c656e676553656c65637465642063757272656e6379206973206e6f7420616e2061636365707465642074797065417373657274696f6e206973207374696c6c2070656e64696e67206368616c6c656e6765564d20646f6573206e6f74206861766520617373657274696f6e2070656e64696e67507265636f6e646974696f6e3a206e6f742077697468696e2074696d6520626f756e64734368616c6c656e6765207761732063726561746564206279206173736572746572507265636f6e646974696f6e3a20696e626f7820646f6573206e6f74206d6174636856616c696461746f7220646f6573206e6f74206861766520726571756972656420657363726f77507265636f6e646974696f6e3a207374617465206861736820646f6573206e6f74206d617463684368616c6c656e676520646964206e6f7420636f6d65206265666f726520646561646c696e6543616e206f6e6c792064697370757461626c65206173736572742066726f6d2077616974696e67207374617465a165627a7a72305820907ff63b1a57dbf7cc6e934a1d7c21107ab8a0870606fd8dce4d3898e37e2fa40029",
  "source": "/*\n * Copyright 2019, Offchain Labs, Inc.\n *\n * Licensed under the Apache License, Version 2.0 (the \"License\");\n * you may not use this file except in compliance with the License.\n * You may obtain a copy of the License at\n *\n *    http://www.apache.org/licenses/LICENSE-2.0\n *\n * Unless required by applicable law or agreed to in writing, software\n * distributed under the License is distributed on an \"AS IS\" BASIS,\n * WITHOUT WARRANTIES OR CONDITIONS OF ANY KIND, either express or implied.\n * See the License for the specific language governing permissions and\n * limitations under the License.\n */\n\npragma solidity ^0.5.3;\n\nimport \"./ArbProtocol.sol\";\nimport \"./ArbValue.sol\";\nimport \"./IChallengeManager.sol\";\nimport \"./ArbBalanceTracker.sol\";\nimport \"./MerkleLib.sol\";\n\nimport \"openzeppelin-solidity/contracts/ownership/Ownable.sol\";\n\ncontract VMTracker is Ownable {\n\tusing SafeMath for uint256;\n    using BytesLib for bytes;\n\n    event MessageDelivered(\n        bytes32 indexed vmId,\n        bytes32 destination,\n        bytes21 tokenType,\n        uint256 value,\n        bytes data\n    );\n\n    event VMCreated(\n        bytes32 indexed vmId,\n        uint32 _gracePeriod,\n        uint128 _escrowRequired,\n        address _escrowCurrency,\n        uint32 _maxExecutionSteps,\n        bytes32 _vmState,\n        uint16 _challengeManagerNum,\n        address _owner,\n        address[] validators\n    );\n\n    event PendingUnanimousAssertion (\n        bytes32 indexed vmId,\n        bytes32 unanHash,\n        uint64 sequenceNum\n    );\n\n    event ConfirmedUnanimousAssertion (\n        bytes32 indexed vmId,\n        uint64 sequenceNum\n    );\n\n    event FinalizedUnanimousAssertion(\n        bytes32 indexed vmId,\n        bytes32 unanHash\n    );\n\n    // fields:\n    // beforeHash\n    // beforeInbox\n    // afterHash\n\n    event PendingDisputableAssertion (\n        bytes32 indexed vmId,\n        bytes32[3] fields,\n        address asserter,\n        uint64[2] timeBounds,\n        bytes21[] tokenTypes,\n        uint32 numSteps,\n        bytes32 lastMessageHash,\n        bytes32 logsAccHash,\n        uint256[] amounts\n    );\n\n    event ConfirmedDisputableAssertion(\n        bytes32 indexed vmId,\n        bytes32 newState,\n        bytes32 logsAccHash\n    );\n\n    enum VMState {\n        Waiting,\n        PendingAssertion,\n        PendingUnanimous\n    }\n\n    struct VM {\n        bytes32 machineHash;\n        bytes32 pendingHash; // Lock pending and confirm asserts together\n        bytes32 inboxHash;\n        bytes32 pendingMessages;\n        bytes32 validatorRoot;\n        bytes32 exitAddress;\n        bytes32 terminateAddress;\n        address owner;\n        address disputableAsserter;\n        address currencyType;\n        uint128 escrowRequired;\n        uint64 deadline;\n        uint64 sequenceNum;\n        uint32 gracePeriod;\n        uint32 maxExecutionSteps;\n        uint16 validatorCount;\n        uint16 challengeManagersNum;\n        VMState state;\n        bool inChallenge;\n        mapping(address => uint256) validatorBalances;\n    }\n\n    bytes32 constant MACHINE_HALT_HASH = bytes32(0);\n    bytes32 constant MACHINE_ERROR_HASH = bytes32(uint(1));\n\n    IChallengeManager[] challengeManagers;\n    ArbBalanceTracker arbBalanceTracker;\n    mapping(bytes32 => VM) vms;\n    mapping(address => bool) acceptedCurrencies;\n\n    constructor(address _balanceTrackerAddress) public {\n        arbBalanceTracker = ArbBalanceTracker(_balanceTrackerAddress);\n\n        acceptedCurrencies[address(0)] = true;\n    }\n\n    function addChallengeManager(IChallengeManager _challengeManager) onlyOwner public {\n        challengeManagers.push(_challengeManager);\n    }\n\n    function withinTimeBounds(uint64[2] memory _timeBounds) public view returns (bool) {\n        return block.number >= _timeBounds[0] && block.number <= _timeBounds[1];\n    }\n\n    function _resetDeadline(VM storage _vm) internal {\n        _vm.deadline = uint64(block.number) + _vm.gracePeriod;\n    }\n\n    function _acceptAssertion(\n        bytes32 _vmId,\n        bytes32 _afterHash,\n        bytes21[] memory _tokenTypes,\n        bytes memory _messageData,\n        uint16[] memory _tokenTypeNum,\n        uint256[] memory _amounts,\n        bytes32[] memory _destinations\n    ) internal {\n        uint offset = 0;\n        bytes memory msgData;\n        VM storage vm = vms[_vmId];\n        for (uint i = 0; i < _amounts.length; i++) {\n            (offset, msgData) = ArbValue.get_next_valid_value(_messageData, offset);\n            _sendUnpaidMessage(\n                _destinations[i],\n                _tokenTypes[_tokenTypeNum[i]],\n                _amounts[i],\n                _vmId,\n                msgData\n            );\n        }\n\n        vm.machineHash = _afterHash;\n        vm.state = VMState.Waiting;\n\n        if (vm.pendingMessages != ArbValue.hashEmptyTuple()) {\n            vm.inboxHash = ArbProtocol.appendInboxMessages(vm.inboxHash, vm.pendingMessages);\n            vm.pendingMessages = ArbValue.hashEmptyTuple();\n        }\n\n        if (_afterHash == MACHINE_HALT_HASH) {\n            _shutdownVM(_vmId);\n        }\n    }\n\n\n\n    // fields\n    // _vmId\n    // _vmState\n    // _createHash\n\n    function createVm(\n        bytes32[3] memory _fields,\n        uint32 _gracePeriod,\n        uint32 _maxExecutionSteps,\n        uint16 _challengeManagerNum,\n        uint128 _escrowRequired,\n        address _escrowCurrency,\n        address _owner,\n        bytes memory _signatures\n    ) public {\n        require(_signatures.length / 65 < 2 ** 16, \"Too many validators\");\n        require(bytes32(bytes20(_fields[0])) != _fields[0], \"Invalid vmId\");\n        require(_challengeManagerNum < challengeManagers.length, \"Invalid challenge manager num\");\n        require(_escrowRequired > 0);\n        require(acceptedCurrencies[_escrowCurrency], \"Selected currency is not an accepted type\");\n\n        address[] memory assertKeys = ArbProtocol.recoverAddresses(_fields[2], _signatures);\n        require(_fields[2] == keccak256(abi.encodePacked(\n            _gracePeriod,\n            _escrowRequired,\n            _escrowCurrency,\n            _maxExecutionSteps,\n            _fields[1],\n            _challengeManagerNum,\n            _owner,\n            assertKeys\n        )), \"Create data incorrect\");\n\n        for (uint i = 0; i < assertKeys.length; i++) {\n            arbBalanceTracker.ownerRemoveToken(\n                bytes32(bytes20(assertKeys[i])),\n                _escrowCurrency,\n                _escrowRequired\n            );\n        }\n\n        VM storage vm = vms[_fields[0]];\n\n        // Machine state\n        vm.machineHash = _fields[1];\n        vm.inboxHash = ArbValue.hashEmptyTuple();\n        vm.pendingMessages = ArbValue.hashEmptyTuple();\n        vm.challengeManagersNum = _challengeManagerNum;\n        vm.state = VMState.Waiting;\n        vm.pendingHash = 0;\n\n        // Validator options\n        vm.validatorRoot = MerkleLib.generateAddressRoot(assertKeys);\n        vm.validatorCount = uint16(assertKeys.length);\n        vm.escrowRequired = _escrowRequired;\n        vm.currencyType = _escrowCurrency;\n        vm.owner = _owner;\n        vm.gracePeriod = _gracePeriod;\n        vm.maxExecutionSteps = _maxExecutionSteps;\n\n        for (uint i = 0; i < assertKeys.length; i++) {\n            vm.validatorBalances[assertKeys[i]] = _escrowRequired;\n        }\n\n        emit VMCreated(\n            _fields[0],\n            _gracePeriod,\n            _escrowRequired,\n            _escrowCurrency,\n            _maxExecutionSteps,\n            _fields[1],\n            _challengeManagerNum,\n            _owner,\n            assertKeys\n        );\n    }\n\n    function _shutdownVM(bytes32 _vmId) private {\n        // TODO: transfer all owned funds to halt address\n        delete vms[_vmId];\n    }\n\n    function ownerShutdown(bytes32 _vmId) external {\n        VM storage vm = vms[_vmId];\n        require(msg.sender == vm.owner, \"Only owner can shutdown the VM\");\n        _shutdownVM(_vmId);\n    }\n\n    function sendMessage(bytes32 _destination, bytes21 _tokenType, uint256 _amount, bytes memory _data) public {\n        _sendUnpaidMessage(\n            _destination,\n            _tokenType,\n            _amount,\n            bytes32(uint256(uint160(msg.sender))),\n            _data\n        );\n    }\n\n    function forwardMessage(bytes32 _destination, bytes21 _tokenType, uint256 _amount, bytes memory _data, bytes memory _signature) public {\n        address sender = ArbProtocol.recoverAddress(keccak256(abi.encodePacked(\n            _destination,\n            ArbValue.deserialize_value_hash(_data),\n            _amount,\n            _tokenType\n        )), _signature);\n\n        _sendUnpaidMessage(\n            _destination,\n            _tokenType,\n            _amount,\n            bytes32(uint256(uint160(sender))),\n            _data\n        );\n    }\n\n    function sendEthMessage(bytes32 _destination, bytes memory _data) public payable {\n        arbBalanceTracker.depositEth.value(msg.value)(_destination);\n        _deliverMessage(\n            _destination,\n            bytes21(0),\n            msg.value,\n            bytes32(uint256(uint160(msg.sender))),\n            _data\n        );\n    }\n\n    function _sendUnpaidMessage(bytes32 _destination, bytes21 _tokenType, uint256 _value, bytes32 _sender, bytes memory _data) internal {\n        if(_tokenType[20] == 0x01) {\n            arbBalanceTracker.transferNFT(_sender, _destination, address(bytes20(_tokenType)), _value);\n        } else {\n            arbBalanceTracker.transferToken(_sender, _destination, address(bytes20(_tokenType)), _value);\n        }\n        _deliverMessage(_destination, _tokenType, _value, _sender, _data);\n    }\n\n    function _deliverMessage(bytes32 _destination, bytes21 _tokenType, uint256 _value, bytes32 _sender, bytes memory _data) internal {\n        if (bytes32(bytes20(_destination)) != _destination) {\n            VM storage vm = vms[_destination];\n            bytes32 messageHash = ArbProtocol.generateSentMessageHash(\n                _destination,\n                ArbValue.deserialize_value_hash(_data),\n                _tokenType,\n                _value,\n                _sender\n            );\n            vm.pendingMessages = ArbProtocol.appendInboxPendingMessage(\n                vm.pendingMessages,\n                messageHash\n            );\n        }\n\n        emit MessageDelivered(\n            _destination,\n            _sender,\n            _tokenType,\n            _value,\n            _data\n        );\n    }\n\n    function _cancelCurrentState(VM storage vm) internal {\n        if (vm.state != VMState.Waiting) {\n            require(block.number <= vm.deadline);\n        }\n\n        if (vm.state == VMState.PendingAssertion) {\n            // If there is a pending disputable assertion, cancel it\n            vm.validatorBalances[vm.disputableAsserter] = vm.validatorBalances[vm.disputableAsserter].add(vm.escrowRequired);\n        }\n    }\n\n    struct finalizedUnanimousAssertData {\n        bytes32 vmId;\n        bytes32 afterHash;\n        bytes32 newInbox;\n        uint64[2] timeBounds;\n        bytes21[] tokenTypes;\n        bytes messageData;\n        uint16[] messageTokenNum;\n        uint256[] messageAmount;\n        bytes32[] messageDestination;\n        bytes32 logsAccHash;\n        bytes signatures;\n    }\n\n    function finalizedUnanimousAssert(\n        bytes32 _vmId,\n        bytes32 _afterHash,\n        bytes32 _newInbox,\n        uint64[2] memory _timeBounds,\n        bytes21[] memory _tokenTypes,\n        bytes memory _messageData,\n        uint16[] memory _messageTokenNum,\n        uint256[] memory _messageAmount,\n        bytes32[] memory _messageDestination,\n        bytes32 _logsAccHash,\n        bytes memory _signatures\n    ) public {\n        _finalizedUnanimousAssert(finalizedUnanimousAssertData(\n            _vmId,\n            _afterHash,\n            _newInbox,\n            _timeBounds,\n            _tokenTypes,\n            _messageData,\n            _messageTokenNum,\n            _messageAmount,\n            _messageDestination,\n            _logsAccHash,\n            _signatures\n        ));\n    }\n\n    function _finalizedUnanimousAssert(finalizedUnanimousAssertData memory data) internal {\n        VM storage vm = vms[data.vmId];\n        require(vm.machineHash != MACHINE_HALT_HASH);\n        require(withinTimeBounds(data.timeBounds), \"Precondition: not within time bounds\");\n        bytes32 unanHash = keccak256(abi.encodePacked(\n            data.vmId,\n            keccak256(abi.encodePacked(\n                keccak256(abi.encodePacked(\n                    data.newInbox,\n                    data.afterHash,\n                    data.messageData,\n                    data.messageDestination\n                )),\n                data.timeBounds,\n                vm.machineHash,\n                vm.inboxHash,\n                data.tokenTypes,\n                data.messageTokenNum,\n                data.messageAmount\n            )),\n            data.logsAccHash\n        ));\n        require(MerkleLib.generateAddressRoot(\n            ArbProtocol.recoverAddresses(unanHash, data.signatures)\n        ) == vm.validatorRoot, \"Validator signatures don't match\");\n\n        _cancelCurrentState(vm);\n        vm.state = VMState.Waiting;\n        vm.inboxHash = data.newInbox;\n        _acceptAssertion(\n            data.vmId,\n            data.afterHash,\n            data.tokenTypes,\n            data.messageData,\n            data.messageTokenNum,\n            data.messageAmount,\n            data.messageDestination\n        );\n\n        emit FinalizedUnanimousAssertion(\n            data.vmId,\n            unanHash\n        );\n    }\n\n    function pendingUnanimousAssert(\n        bytes32 _vmId,\n        bytes32 _unanRest,\n        uint64[2] memory _timeBounds,\n        bytes21[] memory _tokenTypes,\n        uint16[] memory _messageTokenNum,\n        uint256[] memory _messageAmount,\n        uint64 _sequenceNum,\n        bytes32 _logsAccHash,\n        bytes memory _signatures\n    ) public {\n        VM storage vm = vms[_vmId];\n        require(withinTimeBounds(_timeBounds), \"Precondition: not within time bounds\");\n        require(vm.machineHash != MACHINE_HALT_HASH);\n        bytes32 unanHash = keccak256(abi.encodePacked(\n            _vmId,\n            keccak256(abi.encodePacked(\n                _unanRest,\n                _timeBounds,\n                vm.machineHash,\n                vm.inboxHash,\n                _tokenTypes,\n                _messageTokenNum,\n                _messageAmount,\n                _sequenceNum\n            )),\n            _logsAccHash\n        ));\n        require(MerkleLib.generateAddressRoot(\n            ArbProtocol.recoverAddresses(unanHash, _signatures)\n        ) == vm.validatorRoot, \"Validator signatures don't match\");\n\n        if (vm.state == VMState.PendingUnanimous) {\n            require(_sequenceNum > vm.sequenceNum);\n        }\n\n        arbBalanceTracker.hasFunds(\n            _vmId,\n            _tokenTypes,\n            ArbProtocol.calculateBeforeValues(\n                _tokenTypes,\n                _messageTokenNum,\n                _messageAmount\n            )\n        );\n\n        _cancelCurrentState(vm);\n        _resetDeadline(vm);\n\n        vm.state = VMState.PendingUnanimous;\n        vm.sequenceNum = _sequenceNum;\n        vm.pendingHash = keccak256(abi.encodePacked(\n            _tokenTypes,\n            _messageTokenNum,\n            _messageAmount,\n            _unanRest\n        ));\n\n        emit PendingUnanimousAssertion(\n            _vmId,\n            unanHash,\n            _sequenceNum\n        );\n    }\n\n    function ConfirmUnanimousAsserted(\n        bytes32 _vmId,\n        bytes32 _afterHash,\n        bytes32 _newInbox,\n        bytes21[] memory _tokenTypes,\n        bytes memory _messageData,\n        uint16[] memory _messageTokenNum,\n        uint256[] memory _messageAmount,\n        bytes32[] memory _messageDestination\n    ) public {\n        VM storage vm = vms[_vmId];\n        require(vm.state == VMState.PendingUnanimous);\n        require(block.number > vm.deadline);\n        require(vm.pendingHash == keccak256(abi.encodePacked(\n            _tokenTypes,\n            _messageTokenNum,\n            _messageAmount,\n            keccak256(abi.encodePacked(\n                _newInbox,\n                _afterHash,\n                _messageData,\n                _messageDestination\n            ))\n        )));\n\n        vm.inboxHash = _newInbox;\n        _acceptAssertion(\n            _vmId,\n            _afterHash,\n            _tokenTypes,\n            _messageData,\n            _messageTokenNum,\n            _messageAmount,\n            _messageDestination\n        );\n\n        emit ConfirmedUnanimousAssertion(\n            _vmId,\n            vm.sequenceNum\n        );\n    }\n\n    struct PendingDisputableAssertData {\n        bytes32 vmId;\n        bytes32 beforeHash;\n        bytes32 beforeInbox;\n        bytes32 afterHash;\n        bytes32 logsAccHash;\n        uint32 numSteps;\n        uint64[2] timeBounds;\n        bytes21[] tokenTypes;\n        bytes32[] messageDataHash;\n        uint16[] messageTokenNum;\n        uint256[] msgAmount;\n        bytes32[] msgDestination;\n    }\n\n    // fields:\n    // _vmId\n    // _beforeHash\n    // _beforeInbox\n    // _afterHash\n    // _logsAccHash\n\n    function pendingDisputableAssert(\n        bytes32[5] memory _fields,\n        uint32 _numSteps,\n        uint64[2] memory timeBounds,\n        bytes21[] memory _tokenTypes,\n        bytes32[] memory _messageDataHash,\n        uint16[] memory _messageTokenNum,\n        uint256[] memory _msgAmount,\n        bytes32[] memory _msgDestination\n    ) public {\n        return _pendingDisputableAssert(PendingDisputableAssertData(\n            _fields[0],\n            _fields[1],\n            _fields[2],\n            _fields[3],\n            _fields[4],\n            _numSteps,\n            timeBounds,\n            _tokenTypes,\n            _messageDataHash,\n            _messageTokenNum,\n            _msgAmount,\n            _msgDestination\n        ));\n    }\n\n    function _pendingDisputableAssert(PendingDisputableAssertData memory _data) internal {\n        VM storage vm = vms[_data.vmId];\n        require(vm.state == VMState.Waiting, \"Can only disputable assert from waiting state\");\n        require(vm.machineHash != MACHINE_HALT_HASH && vm.machineHash != MACHINE_ERROR_HASH);\n        require(!vm.inChallenge);\n        require(vm.escrowRequired <= vm.validatorBalances[msg.sender], \"Validator does not have required escrow\");\n        require(_data.numSteps <= vm.maxExecutionSteps, \"Tried to execute too many steps\");\n        require(withinTimeBounds(_data.timeBounds), \"Precondition: not within time bounds\");\n        require(_data.beforeHash == vm.machineHash, \"Precondition: state hash does not match\");\n        require(\n            _data.beforeInbox == vm.inboxHash ||\n            _data.beforeInbox == ArbProtocol.appendInboxMessages(vm.inboxHash, vm.pendingMessages)\n        , \"Precondition: inbox does not match\");\n\n        uint256[] memory beforeBalances = ArbProtocol.calculateBeforeValues(\n            _data.tokenTypes,\n            _data.messageTokenNum,\n            _data.msgAmount\n        );\n\n        arbBalanceTracker.hasFunds(\n            _data.vmId,\n            _data.tokenTypes,\n            beforeBalances\n        );\n        _resetDeadline(vm);\n\n        bytes32 lastMessageHash = ArbProtocol.generateLastMessageHashStub(\n            _data.tokenTypes,\n            _data.messageDataHash,\n            _data.messageTokenNum,\n            _data.msgAmount,\n            _data.msgDestination\n        );\n\n        vm.pendingHash = keccak256(abi.encodePacked(\n            ArbProtocol.generatePreconditionHash(\n                _data.beforeHash,\n                _data.timeBounds,\n                _data.beforeInbox,\n                _data.tokenTypes,\n                beforeBalances\n            ),\n            ArbProtocol.generateAssertionHash(\n                _data.afterHash,\n                _data.numSteps,\n                0x00,\n                lastMessageHash,\n                0x00,\n                _data.logsAccHash,\n                beforeBalances\n            )\n        ));\n        vm.validatorBalances[msg.sender] = vm.validatorBalances[msg.sender].sub(vm.escrowRequired);\n        vm.disputableAsserter = msg.sender;\n        vm.state = VMState.PendingAssertion;\n\n        emit PendingDisputableAssertion(\n            _data.vmId,\n            [_data.beforeHash, _data.beforeInbox, _data.afterHash],\n            msg.sender,\n            _data.timeBounds,\n            _data.tokenTypes,\n            _data.numSteps,\n            lastMessageHash,\n            _data.logsAccHash,\n            beforeBalances\n        );\n    }\n\n    // fields:\n    // _vmId\n    // _preconditionHash\n    // _afterHash\n    // _logsAccHash\n\n    struct confirmDisputableAssertedData{\n        bytes32 vmId;\n        bytes32 preconditionHash;\n        bytes32 afterHash;\n        uint32  numSteps;\n        bytes21[] tokenTypes;\n        bytes messageData;\n        uint16[] messageTokenNums;\n        uint256[] messageAmounts;\n        bytes32[] messageDestination;\n        bytes32 logsAccHash;\n    }\n\n    function confirmDisputableAsserted(\n        bytes32 _vmId,\n        bytes32 _preconditionHash,\n        bytes32 _afterHash,\n        uint32 _numSteps,\n        bytes21[] memory _tokenTypes,\n        bytes memory _messageData,\n        uint16[] memory _messageTokenNums,\n        uint256[] memory _messageAmounts,\n        bytes32[] memory _messageDestination,\n        bytes32 _logsAccHash\n    ) public {\n        return _confirmDisputableAsserted(confirmDisputableAssertedData(\n            _vmId,\n            _preconditionHash,\n            _afterHash,\n            _numSteps,\n            _tokenTypes,\n            _messageData,\n            _messageTokenNums,\n            _messageAmounts,\n            _messageDestination,\n            _logsAccHash\n        ));\n    }\n\n    function _confirmDisputableAsserted(confirmDisputableAssertedData memory _data) internal {\n        VM storage vm = vms[_data.vmId];\n        require(vm.state == VMState.PendingAssertion, \"VM does not have assertion pending\");\n        require(block.number > vm.deadline, \"Assertion is still pending challenge\");\n        require(\n            keccak256(abi.encodePacked(\n                _data.preconditionHash,\n                ArbProtocol.generateAssertionHash(\n                    _data.afterHash,\n                    _data.numSteps,\n                    0x00,\n                    ArbProtocol.generateLastMessageHash(\n                        _data.tokenTypes,\n                        _data.messageData,\n                        _data.messageTokenNums,\n                        _data.messageAmounts,\n                        _data.messageDestination\n                    ),\n                    0x00,\n                    _data.logsAccHash,\n                    ArbProtocol.calculateBeforeValues(\n                        _data.tokenTypes,\n                        _data.messageTokenNums,\n                        _data.messageAmounts\n                    )\n                )\n            )) == vm.pendingHash,\n            \"Precondition and assertion do not match pending assertion\"\n        );\n        vm.validatorBalances[vm.disputableAsserter] = vm.validatorBalances[vm.disputableAsserter].add(vm.escrowRequired);\n        _acceptAssertion(\n            _data.vmId,\n            _data.afterHash,\n            _data.tokenTypes,\n            _data.messageData,\n            _data.messageTokenNums,\n            _data.messageAmounts,\n            _data.messageDestination\n        );\n\n        emit ConfirmedDisputableAssertion(\n            _data.vmId,\n            _data.afterHash,\n            _data.logsAccHash\n        );\n    }\n\n    event InitiatedChallenge(\n        bytes32 indexed vmId,\n        address challenger\n    );\n\n    // fields\n    // _vmId\n    // _assertionHash\n\n    function initiateChallenge(\n        bytes32 _vmId,\n        bytes32 _assertPreHash\n    ) public {\n        VM storage vm = vms[_vmId];\n        require(msg.sender != vm.disputableAsserter, \"Challenge was created by asserter\");\n        require(block.number <= vm.deadline, \"Challenge did not come before deadline\");\n        require(vm.state == VMState.PendingAssertion, \"Assertion must be pending to initiate challenge\");\n        require(vm.escrowRequired <= vm.validatorBalances[msg.sender], \"Challenger did not have enough escrowed\");\n\n        require(\n            _assertPreHash\n            == vm.pendingHash,\n            \"Precondition and assertion do not match pending assertion\"\n        );\n\n        vm.validatorBalances[msg.sender] = vm.validatorBalances[msg.sender].sub(vm.escrowRequired);\n        vm.pendingHash = 0;\n        vm.state = VMState.Waiting;\n        vm.inChallenge = true;\n\n        challengeManagers[vm.challengeManagersNum].initiateChallenge(\n            _vmId,\n            [vm.disputableAsserter, msg.sender],\n            [vm.escrowRequired, vm.escrowRequired],\n            vm.gracePeriod,\n            _assertPreHash\n        );\n        emit InitiatedChallenge(\n            _vmId,\n            msg.sender\n        );\n    }\n\n\n    function completeChallenge(bytes32 _vmId, address[2] calldata _players, uint128[2] calldata _rewards) external {\n        VM storage vm = vms[_vmId];\n        require(msg.sender == address(challengeManagers[vm.challengeManagersNum]));\n        require(vm.inChallenge);\n\n        vm.inChallenge = false;\n        vm.validatorBalances[_players[0]] = vm.validatorBalances[_players[0]].add(_rewards[0]);\n        vm.validatorBalances[_players[1]] = vm.validatorBalances[_players[1]].add(_rewards[1]);\n    }\n}\n",
  "sourcePath": "/Users/hkalodner/Documents/OffchainLabs/Github/arbitrum/packages/arb-bridge-eth/contracts/VMTracker.sol",
  "compiler": {
    "name": "solc",
    "version": "0.5.3+commit.10d17f24.Emscripten.clang"
  },
  "schemaVersion": "3.0.11",
  "updatedAt": "2019-08-13T17:41:35.384Z",
  "devdoc": {
    "methods": {
      "isOwner()": {
        "return": "true if `msg.sender` is the owner of the contract."
      },
      "owner()": {
        "return": "the address of the owner."
      },
      "renounceOwnership()": {
        "details": "Allows the current owner to relinquish control of the contract."
      },
      "transferOwnership(address)": {
        "details": "Allows the current owner to transfer control of the contract to a newOwner.",
        "params": {
          "newOwner": "The address to transfer ownership to."
        }
      }
    }
  },
  "userdoc": {
    "methods": {
      "renounceOwnership()": {
        "notice": "Renouncing to ownership will leave the contract without an owner. It will not be possible to call the functions with the `onlyOwner` modifier anymore."
      }
    }
  }
}